:020000040800F2
:10000000F0B900202903000841670008914B00085F
:10001000E5600008110C00087F9F00080000000048
:10002000000000000000000000000000690200085D
:100030000D1B000800000000C50200087D950008A7
:100040004303000843030008430300084303000878
:1000500043030008430300080F1B00084303000884
:1000600043030008191B0008231B00084303000872
:10007000B10D0008430300084303000843030008D0
:100080004303000843030008430300084303000838
:100090003D0C000843030008430300082D1B000823
:1000A0004303000843030008430300084303000818
:1000B000C1960008430300084303000843030008F7
:1000C00043030008430300084303000843030008F8
:1000D00043030008359E0008430300084D9E0008B6
:1000E00043030008430300084303000843030008D8
:1000F00043030008430300084303000843030008C8
:1001000043030008430300084303000843030008B7
:1001100043030008430300084303000843030008A7
:100120004303000843030008C10D0008430300080F
:100130004303000843030008430300084303000887
:100140004303000843030008430300084303000877
:100150005916000843030008691600084303000805
:100160004303000843030008430300084303000857
:100170004303000843030008430300080000000095
:10018000430300084303000800F002F800F05CF8A5
:100190000AA090E8000C82448344AAF10107DA45E2
:1001A00001D100F051F8AFF2090EBAE80F0013F0D8
:1001B000010F18BFFB1A43F001031847E0DB0000F2
:1001C00000DC00000A444FF0000C10F8013B13F073
:1001D000070408BF10F8014B1D1108BF10F8015BA0
:1001E000641E05D010F8016B641E01F8016BF9D193
:1001F00013F0080F1EBF10F8014BAD1C0C1B09D1EA
:100200006D1E58BF01F801CBFAD505E014F8016B5B
:1002100001F8016B6D1EF9D59142D6D370470000ED
:100220000023002400250026103A28BF78C1FBD8FF
:10023000520728BF30C148BF0B6070471FB50DF093
:1002400036FD1FBD10B510BD00F002FA1146FFF7D4
:10025000F5FF0BF06BF800F020FA03B4FFF7F2FFA4
:1002600003BC00F023FA00002C4B19680868B0E8C2
:10027000F04F80F30988BFF36F8F4FF0000080F3D9
:10028000118870470000000008480068006880F38B
:1002900008884FF0000080F3148862B661B6BFF39F
:1002A0004F8FBFF36F8F00DF00BF00BF08ED00E08E
:1002B000DFF80C00016841F470010160704700BF75
:1002C00088ED00E0EFF30980BFF36F8F134B1A68DE
:1002D0001EF0100F08BF20ED108A20E9F04F1060CB
:1002E00009B44FF0500080F31188BFF34F8FBFF374
:1002F0006F8F0CF057FD4FF0000080F3118809BCA0
:1003000019680868B0E8F04F1EF0100F08BFB0EC95
:10031000108A80F30988BFF36F8F70472000002098
:10032000EFF30580704700000948804709480047FF
:10033000FEE7FEE7FEE7FEE7FEE7FEE7FEE7FEE795
:10034000FEE7FEE704480549054A064B70470000F2
:100350005D96000889010008F0790020F0B90020BE
:10036000F0990020F099002053EA020C00F0698017
:100370002DE9F04B4FF00006002B1FBFB3FA83F5B9
:1003800003FA05F424FA05F65E4012BF1643B2FAEA
:1003900082F502FA05F4C5F120051EBF22FA05FC1C
:1003A00044EA0C04203556EA044C4FEA144418BFC2
:1003B000641C4FF000084FF00009904271EB030CF1
:1003C00039D3002919BFB1FA81F701FA07F6B0FA5B
:1003D00080F700FA07F6C7F120071EBF20FA07FCD6
:1003E00046EA0C062037B6FBF4FCA7EB0507103FE6
:1003F00007F01F0BCBF120060CFA0BFB2CFA06F6CC
:1004000044BFB3460026202FA4BF5E464FF0000B2A
:100410005BEA060C08BF4FF0010B19EB0B09ABFBB5
:10042000027C48EB0608C01B06FB02CC0BFB03CC8E
:1004300071EB0C01C1E70B46024641464846BDE858
:10044000F08B13B54FF000004FF00001AFF30080C8
:10045000BDE81C40704710B5431C02E010F8011BBA
:1004600071B18107FAD14FF0013202C88C1A8C4366
:1004700014EAC211F9D0C01A0A0603D0C01E10BD7A
:10048000C01A10BD0A0401D0801E10BD0902FCD0A4
:10049000401E10BD032A40F2308010F0030C00F023
:1004A000158011F8013BBCF1020F624498BF11F8AE
:1004B00001CB00F8013B38BF11F8013BA2F1040267
:1004C00098BF00F801CB38BF00F8013B11F00303DF
:1004D00000F02580083AC0F0088051F8043B083A43
:1004E00051F804CBA0E80810F5E7121D5CBF51F8E5
:1004F000043B40F8043BAFF30080D20724BF11F85F
:10050000013B11F801CB48BF11F8012B24BF00F8C3
:10051000013B00F801CB48BF00F8012B704710B534
:10052000203AC0F00B80B1E81850203AA0E81850EB
:10053000B1E81850A0E81850BFF4F5AF5FEA027CAC
:1005400024BFB1E81850A0E8185044BF18C918C01B
:10055000BDE810405FEA827C24BF51F8043B40F8BC
:10056000043B08BF7047D20728BF31F8023B48BFA1
:1005700011F8012B28BF20F8023B48BF00F8012BDF
:10058000704702F0FF0343EA032242EA024200F00E
:1005900002B84FF000020429C0F0128010F0030CE2
:1005A00000F01B80CCF1040CBCF1020F18BF00F866
:1005B000012BA8BF20F8022BA1EB0C0100F00DB815
:1005C0005FEAC17C24BF00F8012B00F8012B48BF73
:1005D00000F8012B70474FF0000200B51346944617
:1005E0009646203922BFA0E80C50A0E80C50B1F18B
:1005F0002001BFF4F7AF090728BFA0E80C5048BF9F
:100600000CC05DF804EB890028BF40F8042B08BF3C
:10061000704748BF20F8022B11F0804F18BF00F838
:10062000012B704770477047704710B500F008F80D
:10063000006810BD10B5044600F002F8046010BD5B
:10064000004870478C790020004870478C79002062
:100650007546FFF7F9FFAE4605006946534620F0A0
:100660000700854618B020B5FFF76CFEBDE82040B6
:100670004FF000064FF000074FF000084FF0000B5E
:1006800021F00701AC46ACE8C009ACE8C009ACE811
:10069000C009ACE8C0098D46704710B50446AFF3F9
:1006A00000802046BDE81040FFF7D7BD0149182063
:1006B000ABBEFEE72600020070470000B7EE000A5E
:1006C00080ED000A9FED060A80ED010A9FED040A05
:1006D00080ED020A9FED020A80ED030A70470000D8
:1006E000000000002DE9F0412DED028B0746B0EE31
:1006F000408A0C4615461E46D6ED024AB0EE644AC4
:10070000D6ED014AF0EE643AD6ED004AB0EE643A16
:10071000D5ED024AF0EE642AD5ED014AB0EE642A26
:10072000D5ED004AF0EE641AD4ED024AB0EE641A38
:10073000D4ED014AF0EE640AD4ED004AB0EE640A4A
:10074000384605F07BF8BDEC028BBDE8F081000077
:100750009FED3B1AB0EE410A9FED391AF0EE410AC7
:100760000168097B012904D0016891F90C10491C2A
:1007700049B9016891F90C1001EE101AB8EEC11ACE
:10078000F0EE410A03E0B7EE001AF0EE410A4168CC
:1007900091ED071AB5EEC01AF1EE10FA0CD14168CE
:1007A00091ED051AB5EEC01AF1EE10FA04D19FEDE5
:1007B000241AB0EE410A08E0416891ED061AD1ED25
:1007C000071A31EE611AB0EE410AB5EEC00AF1EE39
:1007D00010FA02DDB0EE401A01E0B1EE401ADFED92
:1007E000191AB4EEE11AF1EE10FA1CDDB5EEC00AEA
:1007F000F1EE10FA0BDD416891ED051ADFED121AEA
:1008000070EE211A01EEA01A81ED051A12E041687E
:1008100091ED051ADFED0D1A70EE211A01EEA01A06
:1008200081ED051A06E0416891ED051A00EE201AE7
:1008300081ED051A416891ED061A81ED071A70479E
:1008400000000000DA0F4940DA0FC9C0DA0FC940D2
:1008500010B501221021024802F02AF910BD000053
:100860000000024010B500221021024802F020F9D9
:1008700010BD0000000002407047000010B50122CA
:100880001146024802F014F910BD000000040240B5
:1008900010B500220121024802F00AF910BD000043
:1008A0000004024010B543781B021BB204782343B6
:1008B00000EE103AB8EEC01A1C4BD3ED001A21EE30
:1008C000211A81ED001AC3781B021BB284782343DE
:1008D00000EE103AB8EEC01A144BD3ED001A21EE18
:1008E000211A81ED011A43791B021BB204792343BB
:1008F00000EE103AB8EEC01A0C4BD3ED001A21EE00
:10090000211A81ED021A037A1B04C47943EA0423F5
:100910008479234300EE903AB8EE601ADFED041AB2
:1009200021EE211A82ED001A10BD000010010020F6
:1009300000401C42704710B5044620460BF03EF9BB
:1009400010BD10B5044620460AF0B0F810BD0000F6
:100950004278120212B203781A4300EE102AF8EE1F
:10096000C00A144A92ED001A60EE810AC1ED000A35
:10097000C278120212B283781A4300EE102AF8EEFF
:10098000C00A0C4A92ED001A60EE810AC1ED010A1C
:100990004279120212B203791A4300EE102AF8EEDD
:1009A000C00A044A92ED001A60EE810AC1ED020A03
:1009B000704700001401002010B50024FFF75CFF11
:1009C000FFF7B8FF09F0D0FD10B144F0800402E059
:1009D00009F030FD044309F0BFFF10B144F04004BA
:1009E00002E009F03FFF0443204610BD2DE9FC4121
:1009F00005460E461746002000900190FFF732FF93
:100A0000922000F0D1F806226946122000F0ACF8DE
:100A1000FFF71EFF9DF80100000200B29DF80010D4
:100A200040EA010400EE104AB8EEC00A4C48D0ED8E
:100A3000000A20EE200A86ED000A9DF8030000025D
:100A400000B29DF8021040EA010400EE104AB8EE30
:100A5000C00A4348D0ED000A20EE200A86ED010AC4
:100A60009DF80500000200B29DF8041040EA010460
:100A700000EE104AB8EEC00A3948D0ED000A20EE68
:100A8000200A86ED020AFFF703FF082269460020CC
:100A900000F06AF8FFF7F2FE9DF800000F2838D149
:100AA0009DF80300000200B29DF8021040EA010424
:100AB00000EE104AB8EEC00A2A48D0ED000A20EE37
:100AC000200A85ED000A9DF80500000200B29DF89D
:100AD000041040EA010400EE104AB8EEC00A2148B2
:100AE000D0ED000A20EE200A85ED010A9DF80700EE
:100AF000000200B29DF8061040EA010400EE104A20
:100B0000B8EEC00A1748D0ED000A20EE200A85EDA5
:100B1000020AFFF7A7FEA22000F046F8022269466B
:100B2000222000F021F8FFF793FE9DF80000C0009E
:100B30009DF8011040EA6114B4F5806F02DBA4F562
:100B4000006004B200EE104AF8EEC00AB4EE001ADB
:100B5000B3EE070A00EE810A87ED000ABDE8FC81CA
:100B6000100100201401002070B506460C46154601
:100B700046F0800000F018F806E0552000F014F868
:100B80002070641C681EC5B2002DF6D170BD70B512
:100B900004460D4644F0800000F006F8552000F0B1
:100BA00003F8287070BD000001B582B04FF47A7070
:100BB000012301AA02A90090024803F065F89DF8FC
:100BC00004000EBD1810002010B502461378DB009B
:100BD000547843EA6410B0F5806F02DBA0F500633F
:100BE00018B200EE100AF8EEC00AB4EE001AB3EE26
:100BF000070A00EE810A81ED000A10BD70B50546B6
:100C00000C462846FFF7D0FF2046FFF7CDFF70BD0A
:100C100000BFFEE700B58BB001A800F077F801A98E
:100C2000054801F035F80221034800F0A6FF02480C
:100C300001F0B7FB0BB000BD9C0F002010B50248BF
:100C400001F075F910BD00009C0F00207CB5054631
:100C50000C462088000A8DF8000020788DF80100ED
:100C60006088000A8DF80200A0788DF80300A08843
:100C7000000A8DF8040020798DF80500E088000A4C
:100C80008DF80600A0798DF807006A4629460248CB
:100C900000F068F87CBD00009C0F002070B5044691
:100CA0000D46A4F24110F8B1012814D0C42802D096
:100CB000C52822D106E0124808222946D0F8AC32D5
:100CC00098471BE00E4808222946D0F87C3500F5ED
:100CD0003470984712E00B482946826990470020FB
:100CE0000849C968086009E00748294682699047B1
:100CF00000200549C968086000E000BF00BF70BD62
:100D0000DC010020AC0100206C010020002101600A
:100D100041608160C1600161416181610121C16106
:100D2000016200214162704701464A780B7842EA2D
:100D30000320704701464A790B7942EA032210B238
:100D400070470146CA788B7842EA032210B2704796
:100D500001468879704701464A790B7942EA0322B5
:100D600010B2704770B588B004460D4616460E495D
:100D70002068884206D00D492068884202D00120B0
:100D800008B070BD029500200490059008200690E0
:100D900001AB324602A9204600F001FF08B1012054
:100DA000EEE70020ECE7000000640040006800402F
:100DB00010B5024801F092FB10BD0000581300204E
:100DC00010B5FE48C06C0068FD49884276D9FC48E1
:100DD00054380068F949C96C0968FA4A914201D14E
:100DE000202169E0F549C96C0968F54A483A914201
:100DF00001D1202160E0F149C96C0968F14A6032F3
:100E0000914201D1202157E0EC49C96C0968EC4AB4
:100E10001832914201D120214EE0E849C96C09689D
:100E2000E84A1832914201D1C91445E0E349C96C3E
:100E30000968E34A303A914201D1C9143CE0DF49E4
:100E4000C96C0968DF4A7832914201D1C91433E094
:100E5000DA49C96C0968DA4A3032914201D1C914C1
:100E60002AE0D649C96C0968D64A3032914202D18B
:100E70004FF4001120E0D149C96C0968D04A183AF2
:100E8000914202D14FF4001116E0CC49C96C0968B7
:100E9000CC4A9032914202D14FF400110CE0C74984
:100EA000C96C0968C64A4832914203D14FF4001117
:100EB00002E003E04FF00061084070E1BF48C06C01
:100EC0000068C049A831884276D9BD4858380068C2
:100ED000BA49C96C0968BB4A914201D1202169E035
:100EE000B649C96C0968B64A483A914201D12021F5
:100EF00060E0B249C96C0968B24A6032914201D1DE
:100F0000202157E0AD49C96C0968AD4A18329142B9
:100F100001D120214EE0A949C96C0968A94A1832BB
:100F2000914201D1C91445E0A449C96C0968A44A99
:100F3000303A914201D1C9143CE0A049C96C09681A
:100F4000A04A7832914201D1C91433E09B49C96C5F
:100F500009689B4A3032914201D1C9142AE097496D
:100F6000C96C0968974A3032914202D14FF400119E
:100F700020E09249C96C0968914A183A914202D11D
:100F80004FF4001116E08D49C96C09688D4A903202
:100F9000914202D14FF400110CE08849C96C0968F4
:100FA000874A4832914203D14FF4001102E003E036
:100FB0004FF000610840F2E08048C06C0068814951
:100FC0004831884276D97F48103840687B49C96CDF
:100FD00009687C4A914201D1202169E07749C96CB6
:100FE0000968774A483A914201D1202160E073496B
:100FF000C96C0968734A6032914201D1202157E0DF
:101000006E49C96C09686E4A1832914201D120219B
:101010004EE06A49C96C09686A4A1832914201D1A6
:10102000C91445E06549C96C0968654A303A91427E
:1010300001D1C9143CE06149C96C0968614A783240
:10104000914201D1C91433E05C49C96C09685C4A1A
:101050003032914201D1C9142AE05849C96C09685B
:10106000584A3032914202D14FF4001120E05349E6
:10107000C96C0968524A183A914202D14FF40011E2
:1010800016E04E49C96C09684E4A9032914202D12D
:101090004FF400110CE04949C96C0968484A4832CC
:1010A000914203D14FF4001102E003E04FF00061E0
:1010B000084074E04348103800684049C96C09682A
:1010C000404A914201D1202168E03C49C96C09683D
:1010D0003B4A483A914201D120215FE03749C96C2F
:1010E0000968384A6032914201D1202156E03349E3
:1010F000C96C0968324A1832914201D120214DE071
:101100002E49C96C09682F4A1832914201D1C9147D
:1011100044E02A49C96C0968294A303A914201D110
:10112000C9143BE02549C96C0968264A78329142C6
:1011300001D1C91432E02149C96C0968204A303212
:10114000914201D1C91429E01C49C96C09681D4AA2
:101150003032914202D14FF400111FE01749C96C9F
:101160000968174A183A914202D14FF4001115E06C
:101170001249C96C0968134A9032914202D14FF466
:1011800000110BE00D49C96C09680D4A48329142C3
:1011900002D14FF4001101E04FF000610840002837
:1011A0006FD00648C06C0068054988427BD9034867
:1011B000C06C00680349884208D105E0181000207F
:1011C0005864024010600240202068E0FE48C06C75
:1011D0000068FE49884201D1202060E0FA48C06CD6
:1011E0000068FB49884201D1202058E0F648C06CD5
:1011F0000068F6496031884201D120204FE0F24872
:10120000C06C0068F2494839884201D1C01446E0F8
:10121000ED48C06C0068ED491831884201D1C01416
:101220003DE0E948C06C0068E9491831884201D1C5
:10123000C01434E0E448C06C0068E4497831884266
:1012400001D1C0142BE0E048C06C0068E04930399F
:10125000884202D14FF4001021E0DB48C06C0068E6
:10126000DA493031884202D14FF4001017E0D648F5
:10127000C06C0068D6493031884204D14FF4001068
:101280000DE0DFE10FE0D048C06C0068CF4990313D
:10129000884202D14FF4001001E04FF00060CB49CA
:1012A000091F08606AE1C848C06C0068C849483135
:1012B000884274D9C448C06C0068C5496039884206
:1012C00001D1202066E0C048C06C0068BF49884258
:1012D00001D120205EE0BC48C06C0068BC49884257
:1012E00001D1202056E0B848C06C0068B749603191
:1012F000884201D120204DE0B348C06C0068B44959
:101300004839884201D1C01444E0AF48C06C00683D
:10131000AE491831884201D1C0143BE0AA48C06CE4
:101320000068AB491831884201D1C01432E0A648A8
:10133000C06C0068A5497831884201D1C01429E009
:10134000A148C06C0068A2493039884202D14FF4EC
:1013500000101FE09C48C06C00689C4930318842F6
:1013600002D14FF4001015E09748C06C006898490E
:101370003031884202D14FF400100BE09248C06C2B
:10138000006892499031884202D14FF4001001E088
:101390004FF000608D4908390860EFE0FFE78A48A8
:1013A000C06C00688A491839884274D98648C06C74
:1013B000006887496039884201D1202066E0824870
:1013C000C06C00688149884201D120205EE07E48DF
:1013D000C06C00687E49884201D1202056E07A48DE
:1013E000C06C006879496031884201D120204DE00D
:1013F0007548C06C006876494839884201D1C014EC
:1014000044E07148C06C006870491831884201D1CD
:10141000C0143BE06C48C06C00686D4918318842CC
:1014200001D1C01432E06848C06C00686749783167
:10143000884201D1C01429E06348C06C0068644947
:101440003039884202D14FF400101FE05E48C06C72
:1014500000685E493031884202D14FF4001015E037
:101460005948C06C00685A493031884202D14FF463
:1014700000100BE05448C06C006854499031884219
:1014800002D14FF4001001E04FF000605049703974
:10149000C86073E0FFE74C48C06C00684C49603995
:1014A000884201D1202066E04748C06C0068474967
:1014B000884201D120205EE04348C06C0068444966
:1014C000884201D1202056E03F48C06C00683F4967
:1014D0006031884201D120204DE03B48C06C00685B
:1014E0003B494839884201D1C01444E03648C06CB9
:1014F000006836491831884201D1C0143BE03248B7
:10150000C06C006832491831884201D1C01432E001
:101510002D48C06C00682D497831884201D1C01433
:1015200029E02948C06C006829493039884202D135
:101530004FF400101FE02448C06C0068234930318C
:10154000884202D14FF4001015E01F48C06C0068BB
:101550001F493031884202D14FF400100BE01A4885
:10156000C06C006819499031884202D14FF40010D4
:1015700001E04FF000601649703988601548007826
:1015800000F0020078B11348007820F00200114901
:1015900008700846007840F00400087001221146E7
:1015A0000D4801F085FA0D48007800F00200E0B126
:1015B0000A48007820F002000849087008460078C0
:1015C00040F0040008700BE0181000201064024086
:1015D00070600240D500002000040240D6000020C8
:1015E00001221021184801F063FA1848007800F031
:1015F000020078B11548007820F002001349087005
:101600000846007840F004000870012210210E48BE
:1016100001F04EFA09F080FB0D48007800F004005C
:1016200080B10B48007820F0040009490870084692
:10163000007840F0080008700648006840F001009B
:101640000449086010BD000000000240D7000020DF
:10165000D5000020103C014010B5024800F03EFFCC
:1016600010BD00009812002010B5024800F036FFAF
:1016700010BD0000F8120020F0B50446059D0026BC
:10168000A068802803D1400060650120F0BDE648D5
:10169000E063E6486064E06B08B1606C18B9402014
:1016A00060650120F2E700BF94F83400012801D101
:1016B0000220EBE7012084F8340000BF94F83500E5
:1016C000012875D1022084F835000020606520686B
:1016D000006840F480202768386020680361206833
:1016E0004560A068402804D1206882602068C160FD
:1016F00003E0206881602068C260CD4F2068B84256
:101700005DD9CC4F2068B84201D1202053E0C84FAA
:10171000483F2068B84201D120204CE0C54F6037D7
:101720002068B84201D1202045E0C14F1837206819
:10173000B84201D120203EE0BE4F18372068B842A1
:1017400001D1C01437E0BA4F303F2068B84201D110
:10175000C01430E0B74F78372068B84201D1C014C8
:1017600029E0B34F30372068B84201D1C01422E0DD
:10177000B04F30372068B84202D14FF400101AE061
:10178000AB4F183F2068B84202D14FF4001012E06E
:10179000A84F90372068B84202D14FF400100AE0F9
:1017A000A34F48372068B84203D14FF4001002E03D
:1017B0002CE14FF000609E4F4C3F38601FE19D4F81
:1017C000A8372068B8425CD99A4F2068B84201D146
:1017D000202052E0964F483F2068B84201D1202097
:1017E0004BE0944F60372068B84201D1202044E09C
:1017F0008F4F18372068B84201D120203DE08D4F2F
:1018000018372068B84201D1C01436E0884F303F05
:101810002068B84201D1C0142FE0864F7837206885
:10182000B84201D1C01428E0814F30372068B84257
:1018300001D1C01421E07F4F30372068B84202D177
:101840004FF4001019E07A4F183F2068B84202D1D7
:101850004FF4001011E0774F90372068B84202D162
:101860004FF4001009E0724F48372068B84202D1A7
:101870004FF4001001E04FF000606D4F503F3860B2
:10188000BDE06C4F48372068B8425CD9694F20688A
:10189000B84201D1202052E0654F483F2068B8424D
:1018A00001D120204BE0634F60372068B84201D15E
:1018B000202044E05E4F18372068B84201D1202034
:1018C0003DE05C4F18372068B84201D1C01436E0C3
:1018D000574F303F2068B84201D1C0142FE0554F18
:1018E00078372068B84201D1C01428E0504F303713
:1018F0002068B84201D1C01421E04E4F3037206833
:10190000B84202D14FF4001019E0494F183F206847
:10191000B84202D14FF4001011E0464F90372068D2
:10192000B84202D14FF4001009E0414F4837206817
:10193000B84202D14FF4001001E04FF000603D4F7B
:10194000103FF8605BE03B4F2068B84201D1202097
:1019500052E0374F483F2068B84201D120204BE089
:10196000344F60372068B84201D1202044E0304F26
:1019700018372068B84201D120203DE02D4F18379C
:101980002068B84201D1C01436E0294F303F2068AA
:10199000B84201D1C0142FE0264F78372068B842F2
:1019A00001D1C01428E0224F30372068B84201D15D
:1019B000C01421E01F4F30372068B84202D14FF4E5
:1019C000001019E01A4F183F2068B84202D14FF4B6
:1019D000001011E0174F90372068B84202D14FF441
:1019E000001009E0124F48372068B84202D14FF486
:1019F000001001E04FF000600E4F103FB86020680B
:101A0000006840F001002768386005E000BF002052
:101A100084F8340000BF022600BF002084F83400A0
:101A200000BF304632E60000C5AA0008E9AA000857
:101A3000586402401060024001680A4BCAB2103A72
:101A4000A3FB02321209084B9B5CC365032A04D92D
:101A50006FF30901091D816502E06FF309018165DA
:101A6000806D7047ABAAAAAA4CDD00080146002091
:101A70008A6A8B69002B0FD0B3F5005F1DD08AB343
:101A8000012A30D0022A2ED0032A04D1C96A11F0CB
:101A9000807F00D0012070471AB1012A07D0022AA6
:101AA000F9D1C96A11F0807FF5D001207047C96A69
:101AB000B1F1C07FFAD1012070475AB1012A0BD091
:101AC000022A07D0032AF7D1C96AB1F1C07FF3D146
:101AD0000120704701207047C96A11F0807FFAD059
:101AE00001207047FFE70120704710B504462068C9
:101AF000006800F01000102807D12068C06800F0CE
:101B0000100010B120460AF04BFE10BD704710B512
:101B1000012000F0B9FE10BD10B5082000F0B4FEA1
:101B200010BD10B5102000F0AFFE10BD10B5202084
:101B300000F0AAFE10BD000010B504466068808960
:101B400000EE100AF8EE400A9FED091A80EE810AB5
:101B5000F0EE000A20EE200ADFED060A20EE200A51
:101B6000606880ED060A2046FEF7F2FD10BD000019
:101B700000FF7F47DA0F4940704790F82020012A84
:101B800007D0022A05D0416A41F480214162012038
:101B9000704700684269114341610020704770B48A
:101BA00090F82040D0F800C0DCF808C0012C08D024
:101BB000022C06D0416A41F48021416270BC0120B0
:101BC00070470CF080640CF000652C430CF08055DD
:101BD0002C4355D0CCF3016C012404FA0CF41C60A6
:101BE0008B684FF4C0749BB1CD6804EB0C162B438B
:101BF0004D6843EAC5030568AB514FF4C2730668EC
:101C000003EB0C130D69F550097D012909D00DE096
:101C10000D88CB6804EB0C1643EA45530568AB51BD
:101C2000EBE70168CD5845F48075CD501179D37933
:101C3000557941EA036193791B0443EA052319436B
:101C40004FF4C675036805EB0C1559511178D3781C
:101C500041EA0361937852781B0443EA022211435C
:101C60004FF4C473026803EB0C13D150006804EB0B
:101C70000C11425842F00102425070BC00207047E3
:101C8000416A41F40011416270BC012070470000BC
:101C900090F82020012A07D0022A05D0416A41F499
:101CA00080214162012070474248D0F8002242F072
:101CB0000102C0F80022D0F8002222F47C52C0F8C1
:101CC0000022D0F800224B6A42EA0322C0F8002228
:101CD0000A7D012302F01F0203FA02F2D0F81C323F
:101CE0009343C0F81C32CB69D3B9D0F80C3293437C
:101CF000C0F80C32B1F80CC04B686CF31F43D1F83C
:101D000014C000EBCC0CCCF84032B1F808C00B6822
:101D10006CF31F43D1F814C000EBCC0CCCF8443268
:101D2000CB69012B1AD1D0F80C321343C0F80C3216
:101D3000B1F800C04B686CF31F43D1F814C000EB3E
:101D4000CC0CCCF84032B1F808C0CB686CF31F4320
:101D5000D1F814C000EBCC0CCCF844328B697BB1C9
:101D6000D0F804321343C0F804320B6973B1D0F8D1
:101D700014321343C0F81432096A01290CD010E060
:101D8000D0F804329343C0F80432EEE7D0F81432AE
:101D90009343C0F81432EFE7D0F81C121143C0F897
:101DA0001C12D0F8001221F00101C0F8001200202E
:101DB0007047000000640040704730B490F820C0C5
:101DC000BCF1010F09D0BCF1020F06D0416A41F409
:101DD0008021416230BC0120704739B1D0F800C089
:101DE000DCF810C01CF0030F33D006E0D0F800C0C0
:101DF000DCF80CC01CF0030F24D04FF4D87C04682E
:101E00000CEB011C54F80C4004F0040494603CB347
:101E1000046854F80C40E4085460046854F80CC09A
:101E20000CF0020CC2F80CC04FF4DA7C04680CEB26
:101E3000011C54F80C5005F00F05082D16D308248A
:101E4000146118E0416A41F40011416230BC012084
:101E50007047416A41F40011416230BC0120704773
:101E6000046854F80C40640D1460D6E754F80C4034
:101E700004F00F041461046854F80C40C4F3072400
:101E80009461046854F80CC04FEA1C4CC2F814C0AA
:101E90004FF4DC72D0F800C002EB01125CF802C013
:101EA00083F800C0D0F800C05CF802C04FEA1C2CD8
:101EB00083F801C0D0F800C05CF802C04FEA1C4CA7
:101EC00083F802C0D0F800C05CF80220120EDA706D
:101ED0004FF4DE72D0F800C002EB01125CF802C0D1
:101EE00083F804C0D0F800C05CF802C04FEA1C2C94
:101EF00083F805C0D0F800C05CF802C04FEA1C4C63
:101F000083F806C0D0F800C05CF80220120EDA7127
:101F100039B10068016941F02001016130BC002045
:101F200070470068C16841F02001C160F6E72DE903
:101F3000F05F0546002428684669D0F80490876859
:101F4000D0F80CA0D0F810B0D0F8188016F0010F1F
:101F500054D017F0010F17D00121816017F0020F44
:101F600003D0284600F050FA0EE017F0040F02D01C
:101F70004FF4006408E017F0080F02D04FF48054CB
:101F800002E0284600F03FFA17F4807F19D0296854
:101F90004FF48070886017F4007F03D0284600F06B
:101FA00035FA0EE017F4806F02D044F4005408E0D4
:101FB00017F4006F02D044F4804402E0284600F099
:101FC00024FA17F4803F19D029684FF480308860D4
:101FD00017F4003F03D0284600F01AFA0EE017F479
:101FE000802F02D044F4004408E017F4002F02D000
:101FF00044F4803402E0284600F009FA16F0080F95
:1020000007D01AF0100F04D044F40074296810208F
:10201000C86016F0040F4FF0080707D01AF0080F39
:1020200004D02868C760284600F09CF916F0020F1B
:1020300007D02868C06810F0030F02D0284600F0CF
:1020400093F916F0400F07D01BF0100F04D044F4A2
:10205000806429681020086116F0200F07D01BF05B
:10206000080F04D028680761284600F097F916F099
:10207000100F07D02868006910F0030F02D028461F
:1020800000F08DF916F4003F08D019F0100F05D0BC
:10209000296810204860284600F082F916F4803F35
:1020A00007D019F0080F04D028684760284600F0D0
:1020B000B0F916F4004F4AD019F0040F44D016F4CA
:1020C000807F04D018F0010F01D044F0010416F411
:1020D000007F04D018F0020F01D044F0020416F47F
:1020E000806F04D018F0040F01D044F0040416F4FB
:1020F000006F29D018F0700F26D008F0700040282B
:1021000015D006DC102809D020280AD0302816D196
:102110000AE050280ED0602811D10EE044F00804E7
:102120000DE044F010040AE044F0200407E044F01D
:10213000400404E044F0800401E044F48074286822
:10214000816921F070018161296804204860002CB8
:1021500005D0686A204368622846FFF72DFEBDE877
:10216000F09F70B50446002C03D094F8200010B105
:1021700004E0012070BD204600F0A8F82068016846
:1021800041F00101016000F09BFC054620684068B9
:102190004FF0050610F0010F11D100F091FC401B2B
:1021A0000A2807D9606A40F40030606284F8206031
:1021B000012070BD2068406810F0010FEDD020684C
:1021C000016821F00201016000F07AFC05462068F8
:1021D000406810F0020F11D000F072FC401B0A287A
:1021E00007D9606A40F40030606284F82060012002
:1021F00070BD2068406810F0020FEDD1207E0128EC
:102200003FD02068016821F080010160607E0128D4
:102210003DD02068016821F040010160A07E0128C6
:102220003BD02068016821F020010160E07E012898
:1022300039D02068016841F010010160207F012839
:1022400037D02068016821F008010160607F012813
:1022500035D02068016821F004010160E168A068C0
:10226000626908432169114308436168491E0843B4
:102270002168C86100206062012084F820000020ED
:1022800070BD2068016841F080010160BEE72068F0
:10229000016841F040010160C0E72068016841F039
:1022A00020010160C2E72068016821F0100101608F
:1022B000C4E72068016841F008010160C6E72068B2
:1022C000016841F004010160C8E7000010B586B064
:1022D0000446142101A8FEF77EF91F4920688842B0
:1022E00037D100BF002000901C48006840F000700B
:1022F0001A4908600846006800F00070009000BFAE
:1023000000BF00BF0020009014481038006840F063
:1023100008001249103908600846006800F00800FB
:10232000009000BF00BF0320019002200290002017
:102330000390032004900920059001A9084800F0AB
:10234000AFFA00220521142000F0D2FF142000F083
:10235000C1FF06B010BD00000064004040380240DC
:10236000000C02407047000010B504460948844242
:102370000DD1094BA3F11C0200212046FFF71DFDE2
:1023800005491C3908681C31FEF788FC00E010BDC7
:1023900000BFFCE79C0F00200077002070477047CB
:1023A000704770B5044694F82000012805D0606A93
:1023B00040F400206062012070BD022084F82000FB
:1023C0002068016821F00101016000F079FB0546F9
:1023D0002068406810F0010F12D000F071FB401B24
:1023E0000A2808D9606A40F400306062052084F849
:1023F0002000012070BD2068406810F0010FECD172
:102400000020606270BD704770477047704770472A
:10241000704770472DE9F0410446A66D00F050FB6F
:10242000054694F835000027022806D08020606514
:1024300084F834700120BDE8F0812068016821F043
:10244000160101602068416921F080014161206C22
:1024500008B9A06C20B12068016821F00801016072
:102460002068016821F0010101602068006810F017
:10247000010F12D000F024FB401B052808D92020B2
:102480006065032084F8350084F83470BDE8F0817D
:102490002068006810F0010FECD194F85C003F2137
:1024A00001FA00F0B060012084F8350084F834703F
:1024B0000020BDE8F08190F83510022903D080217A
:1024C000416501207047052180F8351000680168DA
:1024D00021F0010101600020704700002DE9F84360
:1024E00004464FF00008CDF8008076484FF41651AE
:1024F0000068B0FBF1F7A56D2E6894F85C00082128
:1025000001FA00F0304211D02068026812F0040F86
:102510000CD0026822F00402026094F85C0001FA18
:1025200000F0A860606D40F00100606594F85C0008
:102530004FF0010909FA00F0304209D021684969D9
:1025400011F0800F04D0A860606D40F0020060655B
:1025500094F85C1004208840304209D02168096852
:1025600011F0020F04D0A860606D40F004006065B7
:1025700094F85C1010208840304224D0216809680B
:1025800011F0080F1FD0A8602068016811F4802F97
:102590000DD0006810F4002F04D0A16C99B1204632
:1025A000884710E0216C71B1204688470BE0016834
:1025B00011F4807F03D1016821F008010160216CD2
:1025C00009B12046884794F85C10202088403042AA
:1025D00051D02168096811F0100F4CD0A86094F810
:1025E000350005280DD02068016811F4802F32D005
:1025F000006810F4002F29D0E16B59B320468847BA
:1026000039E02068016821F0160101602068416905
:1026100021F080014161206C08B9A06C20B12068D4
:10262000016821F00801016094F85C003F2101FA83
:1026300000F0A86084F8359084F83480216D00297A
:102640003ED001B02046BDE8F0430847616C09B1B7
:10265000204688470FE0016811F4807F07D10168A8
:1026600021F01001016084F8359084F83480E16B2A
:1026700009B120468847606D002821D0606D10F0B8
:10268000010F15D0052084F835002068016821F07D
:10269000010101600098401C0090B84204D82068F5
:1026A000006810F0010FF5D184F8359084F834807B
:1026B000E16C002904D001B02046BDE8F043084792
:1026C000BDE8F883100000202DE9F041044600F039
:1026D000F7F90546DCB1022084F83500002684F8BD
:1026E00034602068016821F0010101602068006801
:1026F00010F0010F13D000F0E3F9401B052809D9B1
:1027000020206065032084F83500BDE8F0810120B9
:10271000BDE8F0812068006810F0010FEBD121685E
:102720000868234A1040A3686268D4F810C01A43AE
:10273000E36843EA0C031A4363691A43A3691A4323
:10274000E3691A43236A1A431043626A042A03D1D5
:10275000236BE26A1A43104308602068406920F046
:102760000701606A40EA0105012704280ED1A06A2A
:102770000543E06A50B12046FFF778F930B14020B8
:10278000606584F835700120BDE8F08120684561FE
:102790002046FFF751F994F85C103F2202FA01F14C
:1027A0008160666584F835700020BDE8F081000026
:1027B0003F8010F010B50446102C12D12948007843
:1027C00040F00100274908702748007840F00100D8
:1027D0002549087025480078002841D008F09CFA67
:1027E0003EE0202C0BD12248007840F00100204927
:1027F00008701E48007898B308F08EFA30E0082C74
:1028000019D11C48007840F001001A4908700846A8
:10281000007800F00100087010B30846007820F03E
:10282000010008700846007840F002000870124865
:1028300008F05EFC14E0012C12D10AF099FE012888
:102840000ED00E490E4800680AF0C6F90B48006821
:1028500030B120070B490860BFF34F8FBFF36F8F74
:1028600010BD0000D6000020D7000020D9000020B5
:10287000D5000020D800002074760020DC00002065
:10288000B000002004ED00E010B504490A680242DF
:1028900002D00860FFF78EFF10BD0000143C01401D
:1028A0002DE9F84F0022DFF8FCA1DFF8F4914FF09A
:1028B000010E03274FF00F08AAF1040B0EFA02FCD9
:1028C0000B6803EA0C0363457ED10C7904F0030422
:1028D000012C01D0022C14D18568540007FA04F6AB
:1028E000B543CE6806FA04F42C438460446824EAB5
:1028F0000C0C0C79C4F30014944044EA0C0CC0F89E
:1029000004C0D1F804C037EA0C0C0CD0C4684FEAFC
:10291000420C07FA0CF5AC438D6805FA0CFC4CEA46
:10292000040CC0F80CC091F804C00CF0030CBCF10E
:10293000020F12D14FEAD20C00EB8C04256A4FEA49
:10294000427C4FEADC6C08FA0CF6B5430E6906FAD5
:102950000CFC4CEA050CC4F820C004684FEA420C99
:1029600007FA0CF5AC430D7905F0030505FA0CFCEC
:102970004CEA040CC0F800C0D1F804C01CF4403F7D
:102980006FD0D9F800C04CF4804CC9F800C0D9F819
:1029900000C00CF4804CCDF800C022F0030C0CF108
:1029A000804505F59835D5F808C89407240F08FA2E
:1029B00004F62CEA0606A0F1804CBCF5003C56D08B
:1029C000BCF5806C56D000E04BE0BCF5806C54D078
:1029D000BCF5806C54D0BCF5806C54D0BCF5806CD8
:1029E00054D0BCF5806C54D0BCF5806C54D04FF002
:1029F000080C0CFA04FC4CEA060CC5F808C8DAF816
:102A000000C02CEA030C4C6814F4801F01D04CEA7F
:102A1000030CCAF800C0244CD4F800C02CEA030C04
:102A20004D6815F4001F01D04CEA030CC4F800C037
:102A3000DBF800C02CEA030C4C6814F4003F01D012
:102A40004CEA030CCBF800C0184CD4F800C02CEAB8
:102A5000030C4D6815F4803F01D04CEA030CC4F818
:102A600000C0521C102AFFF429AFBDE8F88F4FF0C8
:102A7000000CBEE74FF0010CBBE74FF0020CB8E7CB
:102A80004FF0030CB5E74FF0040CB2E74FF0050C24
:102A9000AFE74FF0060CACE74FF0070CA9E70000DA
:102AA00044380240083C01400C3C0140003C0140DD
:102AB000002A01D0816170470904816170470000DC
:102AC00001488068704700001400002070B504467B
:102AD000002C04D094F83D00002510B106E0012040
:102AE00070BD84F83C50204600F0EAFA242084F8B7
:102AF0003D002068016821F0010101602068016843
:102B000041F4004101602068016821F40041016046
:102B100000F016FD544B6168994203D8534988422E
:102B200003D304E05249884201D2012070BD5149CB
:102B3000B0FBF1F12268D2F804C02CF03F0C4CEA53
:102B4000010CC2F804C062689A4201D84A1C07E02E
:102B50004FF4967251434FF47A72B1FBF2F14A1C72
:102B60002168D1F820C02CF03F0C42EA0C020A6226
:102B70006168994210D84900401EB0FBF1F2521C26
:102B8000C2F30B02042A01D2042026E0B0FBF1F0CC
:102B9000401CC0F30B0020E0A268002A50D001EBDB
:102BA000C10303EB0113A0F1010CBCFBF3F35B1CAD
:102BB00043F480431B051B0D4AD0002A4AD001EB89
:102BC000C10202EB0111401EB0FBF1F0401CC0F34A
:102BD0000B0040F4804040F400402168CA6922F0B4
:102BE000FF0222F44F421043C861216AE0690143A9
:102BF0002068026822F0C00211430160E168206988
:102C000001432068826822F0FF0222F4034211434C
:102C10008160A169606901432068C26822F0FF02F7
:102C20001143C1602068016841F001010160256421
:102C3000202084F83D00256384F83E50002070BDBC
:102C400001EB4103A0F1010CBCFBF3F35B1CB1E70A
:102C50000120C2E701EB4101401EB0FBF1F0401C36
:102C6000C0F30B00B7E70000A086010080841E00BF
:102C700000093D0040420F002DE9FF4F83B004469C
:102C80008A469346DDF84490DDF84080129EFFF7B7
:102C900017FF054694F83D00202803D007B0022016
:102CA000BDE8F08F19230122A5492046009502F0C6
:102CB000D0F818B107B00220BDE8F08F94F83C00BE
:102CC000012808D0012084F83C002068016811F038
:102CD000010F04D007E007B00220BDE8F08F0168C3
:102CE00041F0010101602068016821F40061016088
:102CF000222084F83D00402084F83E00002727640D
:102D0000C4F82480A4F82A90608D20858D48E06264
:102D1000019500965A4651462046069B01F054FF05
:102D200018B107B00120BDE8F08F208D10B3012845
:102D300029D0022835D02068416980690290208D11
:102D4000002800F0F180DFF80082208D032800F2D7
:102D5000B780012834D002284AD0334600224146A9
:102D60002046009502F075F800286CD007B00120CD
:102D7000BDE8F08F2068416981690291016841F4E2
:102D800000710160DBE72068016821F48061016067
:102D90002068416981690291016841F40071016014
:102DA000CDE72068016821F4806101602068016836
:102DB00041F4006101602068416980690290BEE7CA
:102DC0002A463146204602F02FF918B107B00120FB
:102DD000BDE8F08F20680069616A0870606A401C75
:102DE0006062208D401E2085608D401E608597E0CA
:102DF0003346002241462046009502F02AF818B1D9
:102E000007B00120BDE8F08F2068016841F400712F
:102E1000016020680069616A0870606A401C606235
:102E2000218D491E2185618D491E618521680969B1
:102E30000170606A401C6062208D401E2085608D9C
:102E4000401E60856CE02068016821F480610160AB
:102E500020680069616A0870606A401C6062208DA9
:102E6000401E2085608D401E60853346002241460D
:102E70002046009501F0EDFF18B107B00120BDE834
:102E8000F08F2068016841F40071016020680069DA
:102E9000616A0870606A401C6062218D491E21854C
:102EA000618D491E6185216809690170606A401C55
:102EB0006062208D401E2085608D401E60852FE061
:102EC0002A463146204602F0AFF818B107B001207B
:102ED000BDE8F08F20680069616A0870606A401C74
:102EE0006062208D401E82B22285608D401E60850A
:102EF0002068416911F0040F12D0032A03D1016840
:102F000021F48061016020680069616A0870606A6C
:102F1000401C6062208D401E2085608D401E6085B3
:102F2000208D00287FF411AF202084F83D0084F824
:102F30003E7084F83C7007B00020BDE8F08F0000C0
:102F4000020010000000FFFF040001002DE9FF4F08
:102F500083B004468A469346DDF84490DDF840800D
:102F6000129EFFF7ADFD054694F83D00202803D0E2
:102F700007B00220BDE8F08F192301224E492046F8
:102F8000009501F066FF18B107B00220BDE8F08F90
:102F900094F83C00012808D0012084F83C00206807
:102FA000016811F0010F04D007E007B00220BDE86E
:102FB000F08F016841F0010101602068016821F48F
:102FC00000610160212084F83D00402084F83E002B
:102FD00000272764C4F82480A4F82A90608D2085F7
:102FE0003648E062019500965A4651462046069BB7
:102FF00001F094FE18B107B00120BDE8F08F208DDC
:10300000002836D02A463146204602F050F858B102
:10301000206C042804D12068016841F4007101602B
:1030200007B00120BDE8F08F606A21680078086170
:10303000606A00F1010CC4F824C0208D401E80B2EB
:103040002085618D491E61852368596911F0040F3F
:103050000CD058B19CF800001861606A401C606296
:10306000208D401E2085608D401E6085208D0028AB
:10307000C8D12A463146204601F0B8FE58B1206C2E
:10308000042804D12068016841F40071016007B090
:103090000120BDE8F08F2068016841F400710160F3
:1030A000202084F83D0084F83E7084F83C7007B01E
:1030B0000020BDE8F08F0000020010000000FFFFBC
:1030C00010B586B00446142101A8FDF784FA2A49F8
:1030D000206888424DD100BF00200090274800683A
:1030E00040F00400254908600846006800F004002C
:1030F000009000BF00BF00BF00200090084600689D
:1031000040F0010008600846006800F001000090EF
:1031100000BF00BF481501901220029001200390CB
:10312000032004900420059001A91548FFF7B8FB7F
:103130004FF4807001901220029001200390032030
:1031400004900420059001A90E48FFF7A9FB00BFD9
:103150000020009009481030006840F40000074942
:10316000103108600846006800F40000009000BFBD
:1031700000BF06B010BD0000005C004030380240C7
:1031800000080240000002400248816802781144B1
:10319000816070471400002010B50B48016841F4AD
:1031A00000710160016841F480610160016841F4CF
:1031B00080710160032000F0CFF80F2000F006F8C6
:1031C00000F05EF8002010BD003C02402DE9F04107
:1031D00088B004460027B84600BF0020019024486C
:1031E000006840F00100224908600846006800F0CD
:1031F0000100019000BF00BF02A903A800F07CF904
:10320000069F1FB900F09CF9054602E000F098F90E
:1032100045001848B5FBF0F0A0F101084FF08040E0
:103220001549086040F2E7311348C160C0F80480D6
:10323000002101618160816100F075FE064696B94A
:103240000D4800F005FF06466EB91C2000F042F85C
:10325000102C07D2002221461C2000F049F8074814
:10326000046000E00126304608B0BDE8F0810000AF
:103270004038024040420F00B813002018000020E0
:1032800008B500BF002000901148006840F480405D
:103290000F4908600846006800F48040009000BFB5
:1032A00000BF00BF00200090081F006840F0805061
:1032B000091F08600846006800F08050009000BFB9
:1032C00000BF00220F21901E00F012F808BD000080
:1032D0004438024000280ADB00F01F01012202FAF4
:1032E00001F14009800000F1E020C0F800117047B2
:1032F00010B4184B1B68C3F30223C3F1070CBCF1D5
:10330000040F01D94FF0040C1C1D072C01D200231F
:1033100000E0DB1E012404FA0CFCACF1010C0CEA09
:103320000101994004FA03F35B1E1A40114300287F
:1033300006DB00F1E020090180F8001410BC7047A2
:1033400000F00F0000F1E020090180F8141D10BC0E
:10335000704700000CED00E000F00700064A11681D
:103360004FF6FF03194041EA002040F0FD7040F0A5
:1033700080601060704700000CED00E02DE9F04720
:1033800004460D46002C13D0DFF85491D9F8000004
:10339000EFB200F00700A8420DD289F80070D9F80A
:1033A000000000F00700A84205D00120BDE8F0872A
:1033B0000120BDE8F08720684A4E10F0020F14D0BB
:1033C00010F0040F03D0306840F4E05030602078F3
:1033D00010F0080F03D0306840F46040306030686F
:1033E000A16820F0F00008433060207810F0010F51
:1033F0003ED060683C49012808D002280DD003283F
:103400000BD0096811F0020F28D00AE0096811F406
:10341000003F06D10120BDE8F087096811F0007F68
:1034200019D0316821F0030108433060FFF748FBF1
:1034300080463068616800F00C00B0EB810F17D057
:1034400041F2883AFFF73CFBA0EB0800504508D951
:103450000320BDE8F0870120BDE8F0870120BDE82A
:10346000F0873068616800F00C00B0EB810FE9D1A3
:10347000D9F8000000F00700A8420AD989F80070C6
:10348000D9F8000000F00700A84202D00120BDE8F2
:10349000F087207810F0040F05D03068E16820F440
:1034A000E05008433060207810F0080F06D03068F4
:1034B000216920F4604040EAC100306000F060F80B
:1034C00031680A4AC1F30311515CC84008490860D9
:1034D00008480068FFF77AFE0020BDE8F08700008A
:1034E000003C0240083802400038024034DD000849
:1034F00010000020180000200F2202600B4A136801
:1035000003F003034360136803F0F0038360136860
:1035100003F4E053C360126802F46042D20802610F
:103520000348006800F00700086070470838024050
:10353000003C024001480068704700001000002075
:1035400000B5FFF7F7FF04490968044AC1F3822177
:10355000515CC84000BD00000838024044DD00084E
:1035600000B5FFF7E7FF04490968044AC1F3423197
:10357000515CC84000BD00000838024044DD00082E
:1035800010B51748006810F00C01164816D0164BFD
:10359000042912D0082911D1144C216801F03F02EE
:1035A000216811F4800F0AD02068C0F38810A0FBB6
:1035B00003010023FCF7D8FE09E0184610BD21687E
:1035C0000023C1F38811A1FB0001FCF7CDFE2168A7
:1035D000C1F30141491C4900B0FBF1F010BD0000EE
:1035E000083802400024F400001BB70004380240F1
:1035F0002DE9F84F0446002C12D02078FB4E10F035
:10360000010FA6F1040563D0301D016801F00C0123
:1036100004290CD0006800F00C00082803D010E04A
:103620000120BDE8F88F306810F4800F09D02868B9
:1036300010F4003F4CD06068002849D10120BDE85B
:10364000F88F6068B0F5803F14D0B0F5A02F16D089
:10365000286820F480302860286820F480202860C2
:10366000606810B3FFF72CFA0746286810F4003F93
:103670000ED02DE0286840F480302860F0E72868FC
:1036800040F480202860286840F480302860E7E714
:10369000FFF716FAC01B642802D90320BDE8F88F93
:1036A000286810F4003FF3D012E0FFF709FA07464C
:1036B000286810F4003F0BD0FFF702FAC01B642803
:1036C00002D90320BDE8F88F286810F4003FF3D139
:1036D0002078C74F10F0020F4FF0000957D0C548AF
:1036E000016811F00C0F14D0006800F00C000828DD
:1036F00003D1306810F4800F0BD0E06880B3012054
:103700003860FFF7DDF98046286810F0020F12D00C
:103710001EE0286810F0020F05D0E068012802D0F2
:103720000120BDE8F88F2868216920F0F80040EA00
:10373000C10028602BE0FFF7C3F9A0EB08000228C6
:1037400002D90320BDE8F88F286810F0020FF2D0EC
:103750002868216920F0F80040EAC100286016E0DE
:10376000FFE7C7F80090FFF7ABF98046286810F034
:10377000020F0CD0FFF7A4F9A0EB0800022802D931
:103780000320BDE8F88F286810F0020FF2D12078EE
:1037900010F0080F35D09848DFF860A26169C1B118
:1037A00001210160FFF78CF98046DAF8000010F083
:1037B000020F26D1FFF784F9A0EB0800022802D9F6
:1037C0000320BDE8F88FDAF8000010F0020FF1D006
:1037D00017E0C0F80090FFF773F98046DAF80000B0
:1037E00010F0020F0DD0FFF76BF9A0EB08000228D4
:1037F00002D90320BDE8F88FDAF8000010F0020FBC
:10380000F1D1207810F0040F71D04FF000087C48FF
:10381000006810F0805F0AD17948016841F080515A
:103820000160006800F0805000904FF00108DFF860
:10383000D4B1DBF8000010F4807F1BD1DBF800006E
:1038400040F48070CBF80000FFF73AF98246DBF8CD
:10385000000010F4807F0DD1FFF732F9A0EB0A00D1
:10386000022802D90320BDE8F88FDBF8000010F42D
:10387000807FF1D0A068DFF890B1012818D005282A
:103880001DD0DBF8000020F00100CBF80000DBF8D1
:10389000000020F00400CBF80000A06840B3FFF760
:1038A0000FF98246DBF8000010F0020F14D03EE062
:1038B000DBF8000040F00100CBF80000EDE7DBF89A
:1038C000000040F00400CBF80000DBF8000040F0FE
:1038D0000100CBF80000E0E7FFF7F2F8A0EB0A01E7
:1038E00041F28830814204D90320BDE8F88F26E0F8
:1038F00005E0DBF8000010F0020FEDD017E0FFF755
:10390000DFF88246DBF8000010F0020F0FD0FFF75F
:10391000D7F8A0EB0A0141F28830814202D9032096
:10392000BDE8F88FDBF8000010F0020FEFD1B8F11E
:10393000010F04D13248016821F080510160A06973
:10394000F0B32C4909684FF0FF3801F00C01082949
:1039500066D0022810D0C7F86090FFF7B1F804468F
:10396000286810F0007F2BD0FFF7AAF8001B022870
:1039700051D90320BDE8F88FC7F86090FFF7A0F891
:103980008146286810F0007F0CD0FFF799F8A0EB73
:103990000900022802D90320BDE8F88F286810F03A
:1039A000007FF2D1216AE069A26A0843616A08EBEC
:1039B0005202890141EA0241084394F82C1000E0C8
:1039C00055E040EA0160306001203866FFF778F882
:1039D0000446286810F0007F49D1FFF771F8001BFA
:1039E000022813D90320BDE8F88F000004380240F4
:1039F0000000474208380240800E474274380240B7
:103A0000403802400070004070380240286810F0D2
:103A1000007FE2D02BE0286810F0007FA4D126E0E0
:103A2000012822D03068E26900F4800191421AD165
:103A3000226A00F03F01914215D147F6C071626AD7
:103A40000140B1EB821F0ED1A26A00F4403108EBB5
:103A50005202B1EB024F06D194F82C1000F07060C6
:103A6000B0EB016F03D00120BDE70120BBE70020D0
:103A7000B9E770B50446002C09D0606A002540B152
:103A800025616561A56294F8510040B10CE0012008
:103A900070BD6068B0F5827FF4D0E561F2E784F82C
:103AA0005050204600F044F8022084F8510020686D
:103AB000016821F040010160A088218900F4827032
:103AC00001F404410843A18901F400610843217C09
:103AD00001F002010843217D01F001010843218B1F
:103AE00001F400710843217F01F03801084394F884
:103AF000201001F080010843218D01F4005108439A
:103B000021680860A169042000EA114094F824109B
:103B100001F010010143206841602068C16921F46F
:103B20000061C1616565012084F85100002070BD0D
:103B300010B586B00446142101A8FCF74CFD4B4992
:103B4000206888427ED100BF00200090484800686D
:103B500040F48050464908600846006800F48050F0
:103B6000009000BF00BF00BF002000904048143804
:103B7000006840F002003E491439086008460068B9
:103B800000F00200009000BF00BF00BF00200090C6
:103B90000846006840F0010008600846006800F030
:103BA0000100009000BF00BF182001900220029089
:103BB00001200390032004900520059001A92D48C1
:103BC000FEF76EFE802001900220029001200390FB
:103BD000032004900520059001A92748FEF760FE08
:103BE0002648274908604FF0C060486000212448FB
:103BF0008160C1604FF48061016100214161816198
:103C0000C1614FF44031016200214162FEF75CFD69
:103C100008B1FDF7B1FF00BF1948E064846300BF3D
:103C200016481830174908604FF0C06048604021BE
:103C3000144881600021C1604FF48061016100215E
:103C4000416100E010E08161C1614FF40031016227
:103C500000214162FEF738FD08B1FDF78DFF00BF7E
:103C60000848A064846300BF06B010BD0030014066
:103C70004438024000040240000002404064024018
:103C800070100020D01000202DE9F84F04460A9E45
:103C90008A4693461F460125FEF712FF804694F898
:103CA00051006168012809D0B1F5827F03D1A16874
:103CB00009B9042802D00220BDE8F88FBAF1000F3C
:103CC00028D0BBF1000F25D0380023D094F8500045
:103CD000012822D0012084F8500094F851000428D3
:103CE00002D0052084F851004FF00009C4F8549028
:103CF000C4F838B0E787A787C4F830A0E786A7865E
:103D0000C4F84090C4F844902068016811F0400F56
:103D100006D009E00120BDE8F88F0220BDE8F88F49
:103D2000016841F040010160E068B0F5006F05D026
:103D3000606800284DD0012F4BD083E0606808B147
:103D4000012F3FD1206B21680088C860206B801C48
:103D50002063E08E401EE08634E02068816811F028
:103D6000020F0DD0E18E59B1012D09D1216B0988C7
:103D7000C160206B801C2063E08E401EE086002521
:103D80002068816811F0010F0BD0E18F49B1C06844
:103D9000A16B0880A06B801CA063E08F401EE087B1
:103DA0000125FEF78DFEA0EB0800B0420AD3B6F164
:103DB000FF3F07D0012084F8510084F85090032081
:103DC000BDE8F88FE08E0028C7D1E08F0028C4D16D
:103DD0003EE0206B216800780873206B401C206354
:103DE000E08E401EE0862DE02068816811F0020F11
:103DF0000DD0E18E59B1012D09D1216B09780173E4
:103E0000206B401C2063E08E401EE0860025206869
:103E1000816811F0010F0BD0E18F49B1C068A16B2F
:103E20000870A06B401CA063E08F401EE087012556
:103E3000FEF746FEA0EB0800B04202D3B6F1FF3F0A
:103E400013D196B1E08E0028CED1E08F0028CBD1DF
:103E500042463146204605F07BFA70B1202060656D
:103E600084F850900120BDE8F88F012084F85100BB
:103E700084F850900320BDE8F88FA06818B9206836
:103E8000C16880680090012084F8510084F8509047
:103E9000606D10B10120BDE8F88F0020BDE8F88FFB
:103EA0007047704730B490F83C20012A38D0012484
:103EB00080F83C40022280F83D200268D2F804C01D
:103EC00093682CF0700C0D6845EA0C0CC2F804C025
:103ED0000268A2F1804CBCF5803C14D0B2F1804F56
:103EE00011D01CF57C4C0ED0BCF5806C0BD0BCF511
:103EF000806C08D0BCF5784C05D0BCF5705C02D065
:103F00001CF5943C04D123F0800349681943916067
:103F100080F83D40002180F83C1030BC0020704704
:103F200030BC0220704710B50446002C03D094F832
:103F30003D0010B107E0012010BD002084F83C00D6
:103F4000204600F01FF8022084F83D00211D206863
:103F500005F0BEFB012084F8460084F83E0084F89A
:103F60003F0084F8400084F8410084F8420084F85F
:103F7000430084F8440084F8450084F83D000020A4
:103F800010BD000008B5154A016891420FD100BF6D
:103F9000002100911249096841F00801104A11609E
:103FA0001146096801F00801009100BF15E00D4AB3
:103FB0000168914211D100BF002100910849091DFB
:103FC000096841F40031064A121D11601146096862
:103FD00001F40031009100BF00BF08BD000C00409B
:103FE000403802400044014090F83D10012901D0C2
:103FF00001207047022180F83D100068A0F1804147
:10400000B1F580311AD0B0F1804F17D011F57C4155
:1040100014D0B1F5806111D0B1F580610ED0B1F549
:1040200078410BD0B1F5705108D011F5943105D01D
:10403000016841F00101016000207047816801F0D2
:1040400007010629F8D0016841F001010160F3E79A
:1040500090F83D10012901D001207047022180F81D
:104060003D100168CA6842F00102CA600068A0F110
:104070008041B1F580311AD0B0F1804F17D011F5E1
:104080007C4114D0B1F5806111D0B1F580610ED0C2
:10409000B1F578410BD0B1F5705108D011F59431DC
:1040A00005D0016841F0010101600020704781687E
:1040B00001F007010629F8D0016841F00101016013
:1040C000F3E770B50446002594F83C00012818D0A9
:1040D000012684F83C60022084F83D002068826854
:1040E00022F0770222F47F4282600868502839D09B
:1040F0000EDC202854D006DC002851D0102811D125
:104100004EE0022070BD30284AD040280AD13DE060
:10411000602831D070280DD0B0F5805F03D0B0F5A5
:10412000005F13D0012584F83D60002084F83C0036
:10413000284670BDCB684A688968206805F03FFB57
:104140002068816841F077018160ECE7CB684A68BC
:104150008968206805F033FB2068816841F480415C
:104160008160E0E7CA684968206805F015FC5021C5
:10417000206805F02FFBD6E7CA684968206805F07B
:104180001EFC6021206805F025FBCCE7CA68496861
:10419000206805F001FC4021206805F01BFBC2E708
:1041A00022680146104605F015FBBCE770472DE973
:1041B000F04104462068C56806694FF0000716F014
:1041C000020F16D015F0020F13D0F91E0161012065
:1041D00020772068806910F0030F03D02046FFF796
:1041E000E5FF05E0204600F003F9204600F09CF9C9
:1041F000277716F0040F18D015F0040F15D021689A
:104200006FF004000861022020772068806910F4B4
:10421000407F03D02046FFF7C9FF05E0204600F0AD
:10422000E7F8204600F080F9277716F0080F18D03D
:1042300015F0080F15D021686FF008000861042000
:1042400020772068C06910F0030F03D02046FFF7E5
:10425000ADFF05E0204600F0CBF8204600F064F901
:10426000277716F0100F18D015F0100F15D0216811
:104270006FF010000861082020772068C06910F4F2
:10428000407F03D02046FFF791FF05E0204600F075
:10429000AFF8204600F048F9277716F0010F09D053
:1042A00015F0010F06D021686FF00100086120466B
:1042B00000F0A2F916F0800F09D015F0800F06D09B
:1042C00021686FF0800008612046FFF7E9FD16F0D5
:1042D000400F09D015F0400F06D021686FF0400064
:1042E0000861204600F091F916F0200F0BD015F070
:1042F000200F08D021686FF0200008612046BDE83B
:10430000F041FFF7CEBDBDE8F081000010B586B0EA
:104310000446142101A8FCF75EF92E492068884262
:104320002DD100BF002000902B48006840F0800095
:10433000294908600846006800F08000009000BF2E
:1043400000BF4FF4E0500190022002900120039042
:1043500002200490059001A92048FEF7A1FA204808
:10436000FFF742FE00211E4800F0E0F804211C483F
:1043700000F0DCF808211A4800F0D8F828E01949C4
:104380002068884224D100BF0020009012480068B5
:1043900040F02000104908600846006800F0200046
:1043A000009000BF00BF4020019002200290012039
:1043B0000390022004900320059001A90A48FEF70B
:1043C0006FFA0A48FFF710FE0021084800F0AEF827
:1043D00006B010BD000C004030380240001C024006
:1043E00030110020004401400014024078110020E8
:1043F000704770B504460D46002694F83C0001282D
:104400000FD0012084F83C006AB1042A1FD0082A8A
:1044100032D00C2A44D00126002084F83C003046DB
:1044200070BD022070BD2946206805F0DBF92068C8
:10443000816941F0080181612068816921F00401EE
:104440008161206881692A6911438161E4E7294615
:10445000206805F0FFF92068816941F400618161FD
:104460002068816921F480618161206881692A69FD
:1044700041EA02218161CFE72946206805F026FA4A
:104480002068C16941F00801C1612068C16921F05B
:104490000401C1612068C1692A691143C161BBE798
:1044A0002946206805F04EFA2068C16941F4006190
:1044B000C1612068C16921F48061C1612068C1695E
:1044C0002A6941EA0221C161A6E710B50446002C21
:1044D00003D094F83D0010B107E0012010BD00208A
:1044E00084F83C00204600F01EF8022084F83D00CD
:1044F000211D206805F0ECF8012084F8460084F8BE
:104500003E0084F83F0084F8400084F8410084F8BD
:10451000420084F8430084F8440084F8450084F89D
:104520003D00002010BD70477047000010B50446E4
:10453000002909D004290AD008290BD094F8410099
:1045400001280AD0012010BD94F83E00F8E794F845
:104550003F00F5E794F84000F2E7022099B3042900
:104560003FD0082940D084F841000122206805F09E
:1045700017F91F4A20681F49904201D0884203D191
:10458000436C43F400434364206890421CD0B0F174
:10459000804F19D0A0F18042B2F5806214D0B2F5FC
:1045A000806211D0B2F580620ED088420CD0B2F594
:1045B0009A3109D011F5943106D0016841F001011A
:1045C0000160002010BD09E0816801F007010629A3
:1045D000F7D0016841F001010160F2E784F83E0084
:1045E000C3E784F83F00C0E784F84000BDE700005F
:1045F000000001400004014010B504462068B0F1FD
:10460000804F01D1FEF7C0FD10BD70477047704765
:10461000F8B5044622681068D168536900F00F0CA1
:10462000BCF1000F0AD110F0200F07D011F0200FBD
:1046300004D02046BDE8F84005F0EABA0025BCF1F8
:10464000000F74D003F0010C01F490765CEA0606CA
:104650006DD010F0010F06D011F4807F03D0626C92
:1046600042F00102626410F0040F06D013F0010F53
:1046700003D0626C42F00202626410F0020F06D0B6
:1046800013F0010F03D0626C42F00402626410F078
:10469000080F08D001F0200252EA0C0203D0626C2D
:1046A00042F008026264626C002A35D010F0200FDC
:1046B00005D011F0200F02D0204605F0A9FA20689D
:1046C0004069C0F38010616C01F00801084329D0F3
:1046D000204605F069FA2068406910F0400F1CD0B0
:1046E0002068143050E8001F21F0400140E800121B
:1046F000002AF5D1E06B60B15E490165E06BFDF722
:10470000DAFE002808D0E06B016D01B0BDE8F04092
:1047100008472046FFF77BFFF8BD2046FFF777FFED
:10472000F8BD04E02046FFF772FF6564F8BD236B17
:10473000012B7CD110F0100F79D011F0100F76D032
:1047400010685068009050694FF0200310F0400F3F
:104750004FF0020644D0E16B0868406880B2002840
:10476000E4D0A28D8242E1D9E085C869B0F5807FAE
:104770002DD020680C3050E8001F21F4807140E8F3
:104780000012002AF5D12068143050E8001F21F0F3
:10479000010140E80012002AF5D12068143050E8E9
:1047A000001F21F0400140E80012002AF5D184F8F2
:1047B0004230256320680C3050E8001F21F01001C2
:1047C00040E80012002AF5D1E06BFDF723FE666396
:1047D000A08DE18D401A81B22046FFF717FFF8BD8A
:1047E000A08DE18D401A81B2E08D0028F7D000291C
:1047F000F5D020680C3050E8002F22F4907240E889
:10480000002CBCF1000FF4D12068143050E8002FC8
:1048100022F0010240E8002CBCF1000FF4D184F832
:104820004230256320680C3050E8002F00E00AE099
:1048300022F0100240E80023002BF3D166632046EB
:10484000FFF7E4FEF8BD10F0800F07D011F0800FE5
:1048500004D02046BDE8F84005F0BCBA10F0400F87
:10486000F0D011F0400FEDD02046BDE8F84005F043
:10487000C2B90000999B000870B50446002C04D012
:1048800094F84100002510B106E0012070BD84F8C5
:104890004050204600F024F8242084F8410020688D
:1048A000C16821F40051C160204605F017FA206864
:1048B000016921F4904101612068416921F02A01D8
:1048C00041612068C16841F40051C16065642020E5
:1048D00084F8410084F842006563002070BD000048
:1048E00010B586B00446142101A8FBF774FE9A495E
:1048F000206888427ED100BF002000909748006861
:1049000040F01000954908600846006800F010006B
:10491000009000BF00BF00BF002000908F481438F7
:10492000006840F002008D491439086008460068AC
:1049300000F00200009000BF00BF00BF0020009008
:104940000846006840F0010008600846006800F072
:104950000100009000BF00BF802001900220029063
:1049600000200390032004900720059001A97C48B3
:10497000FDF796FF4FF40070019002200290002096
:104980000390032004900720059001A97548FDF7C6
:1049900087FF7548754908604FF000604860002146
:1049A00072488160C1604FF4806101610021416102
:1049B00081614FF48071C161002101624162FDF7A4
:1049C00083FE08B1FDF7D8F800BF6848E063846350
:1049D00000BF65483030664908604FF000604860AD
:1049E0004021634881600021C1604FF48061016112
:1049F000002100E017E041618161C1610162416213
:104A0000FDF762FE08B1FDF7B7F800BF5848A06394
:104A1000846300BF002205212520FEF769FC2520C4
:104A2000FEF758FC95E05349206888425CD100BFEE
:104A3000002000904948001F006840F4802047494A
:104A4000091F08600846006800F48020009000BF3D
:104A500000BF00BF0020009040481438006840F0BC
:104A600004003E49143908600846006800F004005C
:104A7000009000BF00BF4FF4406001900220029000
:104A800000200390032004900720059001A93A48D4
:104A9000FDF706FF39483A4908604FF0006048606A
:104AA000002137488160C1604FF4806101610021BD
:104AB000416181614FF48071C1614902016200214D
:104AC0004162FDF701FE08B1FDF756F800BF2C4822
:104AD000E063846300BF002205212720FEF708FC65
:104AE0002720FEF7F7FB34E026492068884230D1C2
:104AF00000BF002000901948006840F020001749CE
:104B000008600846006800F02000009000BF00BF69
:104B100000BF0020009011481438006840F04000A9
:104B20000E49143908600846006800F04000009003
:104B300000BF00BF4FF4844001900220029000208B
:104B40000390032004900820059001A90E48FDF76A
:104B5000A7FE06B010BD000000100140443802401E
:104B600000040240000002408864024098120020C5
:104B7000F81200200048004000080240286002406F
:104B8000581300200014014000180240704770477D
:104B900000BFFEE701684A6912F4806F11D06FF41C
:104BA00080624A6100210163202280F83D2080F864
:104BB0003E10026C42F00402026480F83C100120B6
:104BC00070470020704700002DE9F84F0446DDF8DB
:104BD00028A00B9D0F4690461E462068016841F4B0
:104BE000806101602068016841F480710160534672
:104BF00000224FF001112046009500F02AF94FF4F1
:104C0000007948B12068006810F4807F01D0C4F8B2
:104C100040900320BDE8F88F216807F0FE0008618E
:104C2000DFF8F4B02B4652465946204600F086F98C
:104C300010B10120BDE8F88F2068416980690090BB
:104C40002A465146204600F032FA50B1206C042822
:104C500004D12068016841F4007101600120BDE8C1
:104C6000F88F304608F0FF0601280DD021684FEA82
:104C7000182008612A465146204600F018FA70B103
:104C8000206C042803D007E02068066109E0206852
:104C9000016841F4007101600120BDE8F88F2068CF
:104CA00006612A465146204600F001FA50B1206CB8
:104CB000042804D12068016841F4007101600120DA
:104CC000BDE8F88F2068016841F4807101605346A7
:104CD00000224FF001112046009500F0BAF848B1CB
:104CE0002068006810F4807F01D0C4F84090032051
:104CF000BDE8F88F2168F8B240F0010008612B464A
:104D000052465946204600F019F910B10120BDE87D
:104D1000F88F0020BDE8F88F020001002DE9F8436C
:104D20000446DDF82090099F0D46164698462068F7
:104D3000016841F4807101604B4600224FF001117F
:104D40002046009700F085F850B12068006810F404
:104D5000807F02D04FF4007020640320BDE8F88308
:104D6000216805F0FE0008613B464A461E49204680
:104D700000F0E4F810B10120BDE8F8832068416933
:104D8000806900903A464946204600F090F950B1BB
:104D9000206C042804D12068016841F4007101608E
:104DA0000120BDE8F883F5B2B8F1010F0CD02168FD
:104DB000300A08613A464946204600F078F970B159
:104DC000206C042803D007E02068056109E0206812
:104DD000016841F4007101600120BDE8F88320689A
:104DE00005610020BDE8F8830200010070B50446AB
:104DF0000D4616462068406910F0040F18D1204671
:104E0000FFF7C8FE08B1012070BDB5F1FF3F0AD021
:104E1000FDF756FE801BA84200D825B920684069DE
:104E200010F0040F06D02068406910F0040FE6D09F
:104E3000002070BD00202063202184F83D1084F8FC
:104E40003E00216C41F02001216484F83C000120E7
:104E500070BD2DE9F0470446DDF820900D46174659
:104E60001E46C5F307482068B8F1010F13D08069CA
:104E700025EA00000004000C17D00020B8424DD1F4
:104E8000B6F1FF3F3DD0FDF71BFEA0EB0900B0429D
:104E90000DD866B135E0406925EA00000004000C39
:104EA00001D00020EAE70120E8E70120E6E7B8F1B9
:104EB000010F19D02068806925EA00000004000C69
:104EC0001DD00020B8421CD100202063202184F88E
:104ED0003D1084F83E00216C41F02001216484F8EB
:104EE0003C000120BDE8F0872068406925EA000009
:104EF0000004000C01D00020E4E70120E2E70120DB
:104F0000E0E7B8F1010F0CD02068806925EA0000C5
:104F10000004000C10D00020B842B1D00020BDE841
:104F2000F0872068406925EA00000004000C01D0E9
:104F30000020F1E70120EFE70120EDE72DE9F04740
:104F400004460D4616469846C5F307472068012FCC
:104F500026D0806925EA00000004000C59D04FF0EB
:104F600000094FF0200A2068406910F4806F1ED0BD
:104F70002068016841F40071016021686FF480606D
:104F80004861C4F8309084F83DA084F83E90206CCD
:104F900040F00400206484F83C900120BDE8F087D4
:104FA000406925EA00000004000C32D0D7E7B6F1D2
:104FB000FF3F25D0FDF784FDA0EB0800B04200D8EC
:104FC000F6B9012F15D02068806925EA0000000499
:104FD000000C15D0C4F8309084F83DA084F83E90C1
:104FE000206C40F02000206484F83C900120BDE853
:104FF000F0872068406925EA00000004000CE9D130
:10500000012F09D02068806925EA00000004000C07
:10501000A9D10020BDE8F0872068406925EA00009A
:105020000004000C9FD1F4E72DE9F04104460D4641
:1050300016462068406910F0400F27D100274FF036
:1050400020082068406910F0100F0FD020686FF022
:1050500010014161276384F83D8084F83E70206C24
:10506000206484F83C700120BDE8F081FDF728FD44
:10507000801BA84200D825B92068406910F0400F75
:1050800007D02068406910F0400FDAD00020BDE85A
:10509000F081276384F83D8084F83E70206C40F0F6
:1050A0002000206484F83C700120BDE8F08170B5D8
:1050B00004460D4616462068406910F0800F18D14E
:1050C0002046FFF767FD08B1012070BDB5F1FF3F35
:1050D0000AD0FDF7F5FC801BA84200D825B920684E
:1050E000406910F0800F06D02068406910F0800FF2
:1050F000E6D0002070BD00202063202184F83D1000
:1051000084F83E00216C41F02001216484F83C00C9
:10511000012070BD072006F051FD02E0642006F07A
:105120004DFDFBF749FC0028F8D102E0642006F0B1
:1051300045FD05F093FF0028F8D1404AA2F10C018B
:10514000101DFBF753FCDFED3E0A9FED3E0A3E4A81
:1051500000213E4801F0EEFB3D4A38490C393D48FC
:10516000FBF7ACFA002006F065FD044608F0BAF93A
:105170003949086010213948C161FEF77AFC08B14D
:10518000FCF7FAFC08223649364804F021F80120E1
:105190003549087051E000BF4FF0FF31012007F0A2
:1051A00071FB0128F8D13148007800F0080058B1AF
:1051B0002E48007820F008002C4908701F49091D6E
:1051C0002748401CFBF7C4FB2948007800F0040086
:1051D00060B12748007820F0040025490870174A7C
:1051E0001032A2F11C012348FBF75CFB2248007837
:1051F00000F0040088B12048007820F004001E4927
:1052000008700E491D48FBF7DFFC0C481038D0ED44
:10521000040AB0EE600A05F059FE0D4B074A0C3A3D
:1052200002F110019FED160A0A48FBF75BFA154BD5
:105230001A1F111F074805F069FCACE75C760020D7
:105240000080894500A08C4554DD00088076002050
:1052500074760020C8760020B000002018100020CE
:10526000B4000020BC000020D9000020D5000020A0
:10527000D600002042760020D7000020CF0000207A
:105280006F12833AE0760020C1680968491CC26841
:105290001160C1680968C2685268914207D9C16843
:1052A0004968C26811600021C268117205E0C168D6
:1052B000097A11B90121C2681172704710B50F48FF
:1052C0000F4908600320486000210D488160C160DB
:1052D0004FF4002101614FF440114161002101763A
:1052E0000121417681760021C17601770121417744
:1052F000FCF737FF08B1FCF73FFC10BD006400402D
:105300009C0F002008B500BF0020009022480068D4
:1053100040F48000204908600846006800F48000DE
:10532000009000BF00BF00BF00200090084600684A
:1053300040F4001008600846006800F40010009077
:1053400000BF00BF002205210C20FDF7D1FF0C207B
:10535000FDF7C0FF002205213A20FDF7C9FF3A20E2
:10536000FDF7B8FF002205213B20FDF7C1FF3B20E0
:10537000FDF7B0FF002205214420FDF7B9FF4420CE
:10538000FDF7A8FF002205214620FDF7B1FF4620CA
:10539000FDF7A0FF08BD00003038024000B59DB009
:1053A0001C22184916A8FBF7BAF8002116A806F027
:1053B00012FC154908601C2212491C310FA8FBF78A
:1053C000AEF800210FA806F006FC104908601C2268
:1053D0000C49383108A8FBF7A2F8002108A806F00C
:1053E000FAFB0B4908601C220649543101A8FBF75F
:1053F00096F8002101A806F0EEFB064908601DB0F2
:1054000000BD0000C4DC0008080000200C000020E3
:10541000000000200400002000B587B0142102A87D
:10542000FBF7D9F800BF002001906648006840F003
:105430004000644908600846006800F040000190A0
:1054400000BF00BF00BF002001900846006840F088
:10545000020008600846006800F00200019000BFEA
:1054600000BF00BF002001900846006840F0010026
:1054700008600846006800F00100019000BF00BF0E
:1054800000BF002001900846006840F00800086056
:105490000846006800F00800019000BF00BF00BF90
:1054A000002001900846006840F0040008600846AB
:1054B000006800F00400019000BF00BF00BF0020A2
:1054C00001900846006840F08000086008460068C7
:1054D00000F08000019000BF00BF00BF00200190DD
:1054E0000846006840F0200008600846006800F0A8
:1054F0002000019000BF00BF012240213248FDF78B
:10550000D7FA012210213148FDF7D2FA01221146C3
:105510002F48FDF7CDFA402002900120039004901F
:10552000059002A92848FDF7BBF9092002904FF425
:10553000041003900120049002A92348FDF7B0F95C
:10554000102002900120039004900220059002A9EF
:105550001E48FDF7A5F9302002904FF40410039087
:105560000120049002A91B48FDF79AF9012002903E
:10557000039004900220059002A91548FDF790F9C8
:10558000002206210846FDF7B3FE0620FDF7A2FE25
:10559000002205210920FDF7ABFE0920FDF79AFE48
:1055A000002205210A20FDF7A3FE0A20FDF792FE46
:1055B000002205211720FDF79BFE1720FDF78AFE2C
:1055C00007B000BD30380240001802400000024021
:1055D000000402400008024010B50B480B49086067
:1055E0000B484860002109488160C1604FF4804148
:1055F0000161002141618161C1610162FDF766FACB
:1056000008B1FCF7B9FA10BD005C0040C40F0020DF
:10561000801A060010B50F480F4908604FF48270D9
:10562000486000210C488160C160022101610121B4
:105630004161490281613821C161002101624162F9
:1056400081620A21C162FEF714FA08B1FCF794FAEC
:1056500010BD0000003001401810002000B587B0D8
:105660001C216846FAF7B7FF154816490860002064
:10567000486000211348816041F28731C1600021F8
:1056800001618161FEF74FFC08B1FCF775FA0D4826
:10569000FEF71BFF08B1FCF76FFA602000900020B6
:1056A000019002900490002269460648FEF7A1FE90
:1056B00008B1FCF761FA0348FEF728FE07B000BD09
:1056C000004401407811002000B58DB00020099001
:1056D0000A900B900C90079008901C216846FAF7EE
:1056E0007AFF2848284908600020486000212648A1
:1056F00081604FF6FF71C160002101618161FEF799
:1057000012FC08B1FCF738FA4FF48050099009A94F
:105710001D48FEF7D6FC08B1FCF72EFA1A48FEF732
:10572000D4FE08B1FCF728FA00200790089007A9DA
:105730001548FEF7B7FB08B1FCF71EFA6020009091
:105740000020019002900490002269460E48FEF766
:1057500050FE08B1FCF710FA042269460A48FEF729
:1057600048FE08B1FCF708FA082269460648FEF729
:1057700040FE08B1FCF700FA0348FEF7C7FD0DB084
:1057800000BD0000000C00403011002010B50B4897
:105790000B4908604FF4E1304860002108488160FF
:1057A000C16001610C21416100218161C161FFF78C
:1057B00063F808B1FCF7E0F910BD000000100140EB
:1057C000C011002010B50C480C4908600C48486016
:1057D0004FF48051094881604900C160C9100161DE
:1057E0000C21416100218161C161FFF745F808B1D9
:1057F000FCF7C2F910BD000000480040081200206C
:10580000A086010010B50B480B4908604FF4E13049
:105810004860002108488160C16001610C2141613C
:1058200000218161C161FFF727F808B1FCF7A4F9F5
:1058300010BD0000001401405012002010B52DEDE5
:10584000108B98B00446B0EE40AAF0EE60AAB0EE1D
:1058500041BAF0EE61CAF0EE42BAB0EE62CAF0EEC2
:10586000439AB0EE638AF0EE448AF5EEC09AF1EE08
:1058700010FA1CD1B5EEC08AF1EE10FA17D1F5EE90
:10588000C08AF1EE10FA12D1F0EE4C2AB0EE6B2A7B
:10589000F0EE6C1AB0EE4B1AF0EE6A0AB0EE4A0A5D
:1058A000204600F0A1FA18B0BDEC108B10BDF5EE4B
:1058B000C0CAF1EE10FA09D1F5EEC0BAF1EE10FA55
:1058C00004D1B5EEC0CAF1EE10FA7CD06CEEAC0A91
:1058D0004BEEAB0A4CEE0C0AB0EE600A05F048FB4A
:1058E000B0EE409A2CEE890AF0EE40CA2BEE890AFF
:1058F000F0EE40BA2CEE090AB0EE40CA69EEA90AF1
:1059000048EE080A48EEA80AB0EE600A05F030FB3F
:10591000B0EE409A29EE890AF0EE409A28EE090A84
:10592000B0EE408A28EE890AF0EE408A94ED000A33
:1059300020EE000A8DED170A94ED000AD4ED010A5D
:1059400020EE20EA94ED000AD4ED020A20EE20DADF
:1059500094ED000AD4ED030A20EE200A8DED160A1C
:1059600094ED010A20EE000A8DED150A94ED010A6E
:10597000D4ED020A20EE200A8DED140A94ED010AFE
:10598000D4ED030A60EE20DA94ED020A60EE00EA3C
:1059900094ED020AD4ED030A20EE20FA94ED030AF6
:1059A00060EE00FAB6EE000A30EE6E0A30EE6F0AD4
:1059B00020EE291A9DED140ADDED160A70EE600A3C
:1059C000B0EE410A00E060E108EE200A7DEE8D0AAB
:1059D00008EEA00AF0EE000A20EE200A8DED130A70
:1059E0009DED140ADDED160A30EE200A60EE290A5C
:1059F0009DED150AB6EE001A31EE400A30EE6F1A30
:105A0000B0EE600A08EE010A7FEE4E0A08EEA00A28
:105A1000F0EE000A20EE200A8DED120A9DED130A29
:105A200060EE000A9DED120A40EE000A10EE901A98
:105A3000084608F0CBF8CDE900019DED000B04F01D
:105A400071FC8DED020B9DED020B51EC100B07F07C
:105A50006BFF11903DEECD0A20EE290A7FEE0E0A73
:105A600008EE200ADDED150AB6EE001A71EE600AA6
:105A700070EEEE0A08EEA00AF0EE000A20EE200A10
:105A80008DED100A3DEECD0A8DED0F0A3EEE0F0AA8
:105A90008DED0E0A9DED170AF6EE000A30EE600A53
:105AA00030EE2F0A8DED0D0AB6EE000A30EE6E0ACA
:105AB00070EE6F0A9DED110A20EE800A3DEECD1AC0
:105AC000DDED100A00EE810A8DED0C0A9DED140A41
:105AD000DDED160A70EE600A9DED110A20EE800AD7
