:020000040800F2
:10000000A857002029030008214B0008B536000836
:10001000DD3A0008E10E0008155900080000000054
:10002000000000000000000000000000690200085D
:100030007F14000800000000C5020008594F0008A6
:100040004303000843030008430300084303000878
:100050004303000843030008430300084303000868
:100060004303000843030008811400084303000809
:100070005510000843030008430300084303000829
:100080004303000843030008430300084303000838
:100090000D0F0008430300084303000887140008FD
:1000A0004303000843030008430300084303000818
:1000B00029500008430300084303000843030008D5
:1000C00043030008430300084303000843030008F8
:1000D00043030008C15700084303000815580008EF
:1000E00043030008430300084303000843030008D8
:1000F00043030008430300084303000843030008C8
:1001000043030008430300084303000843030008B7
:1001100043030008430300084303000843030008A7
:1001200061100008430300086D10000879100008F2
:100130004303000843030008430300084303000887
:100140004303000843030008430300084303000877
:100150004303000843030008851000084303000818
:100160004303000843030008430300084303000857
:100170004303000843030008430300080000000095
:10018000430300084303000800F002F800F05CF8A5
:100190000AA090E8000C82448344AAF10107DA45E2
:1001A00001D100F051F8AFF2090EBAE80F0013F0D8
:1001B000010F18BFFB1A43F001031847D48E00004B
:1001C000F48E00000A444FF0000C10F8013B13F0CD
:1001D000070408BF10F8014B1D1108BF10F8015BA0
:1001E000641E05D010F8016B641E01F8016BF9D193
:1001F00013F0080F1EBF10F8014BAD1C0C1B09D1EA
:100200006D1E58BF01F801CBFAD505E014F8016B5B
:1002100001F8016B6D1EF9D59142D6D370470000ED
:100220000023002400250026103A28BF78C1FBD8FF
:10023000520728BF30C148BF0B6070471FB508F098
:100240008CFC1FBD10B510BD00F0DCF91146FFF7A6
:10025000F5FF06F044FC00F0FAF903B4FFF7F2FFF3
:1002600003BC00F0FDF900002C4B19680868B0E8E9
:10027000F04F80F30988BFF36F8F4FF0000080F3D9
:10028000118870470000000008480068006880F38B
:1002900008884FF0000080F3148862B661B6BFF39F
:1002A0004F8FBFF36F8F00DF00BF00BF08ED00E08E
:1002B000DFF80C00016841F470010160704700BF75
:1002C00088ED00E0EFF30980BFF36F8F134B1A68DE
:1002D0001EF0100F08BF20ED108A20E9F04F1060CB
:1002E00009B44FF0500080F31188BFF34F8FBFF374
:1002F0006F8F07F06DFC4FF0000080F3118809BC90
:1003000019680868B0E8F04F1EF0100F08BFB0EC95
:10031000108A80F30988BFF36F8F70472000002098
:10032000EFF30580704700000948804709480047FF
:10033000FEE7FEE7FEE7FEE7FEE7FEE7FEE7FEE795
:10034000FEE7FEE704480549054A064B70470000F2
:100350001950000889010008A8510020A857002062
:10036000A8530020A853002053EA020C00F0698033
:100370002DE9F04B4FF00006002B1FBFB3FA83F5B9
:1003800003FA05F424FA05F65E4012BF1643B2FAEA
:1003900082F502FA05F4C5F120051EBF22FA05FC1C
:1003A00044EA0C04203556EA044C4FEA144418BFC2
:1003B000641C4FF000084FF00009904271EB030CF1
:1003C00039D3002919BFB1FA81F701FA07F6B0FA5B
:1003D00080F700FA07F6C7F120071EBF20FA07FCD6
:1003E00046EA0C062037B6FBF4FCA7EB0507103FE6
:1003F00007F01F0BCBF120060CFA0BFB2CFA06F6CC
:1004000044BFB3460026202FA4BF5E464FF0000B2A
:100410005BEA060C08BF4FF0010B19EB0B09ABFBB5
:10042000027C48EB0608C01B06FB02CC0BFB03CC8E
:1004300071EB0C01C1E70B46024641464846BDE858
:10044000F08B13B54FF000004FF00001AFF30080C8
:10045000BDE81C407047032A40F2308010F0030CC6
:1004600000F0158011F8013BBCF1020F624498BF07
:1004700011F801CB00F8013B38BF11F8013BA2F1A4
:10048000040298BF00F801CB38BF00F8013B11F01F
:10049000030300F02580083AC0F0088051F8043BBF
:1004A000083A51F804CBA0E80810F5E7121D5CBF2C
:1004B00051F8043B40F8043BAFF30080D20724BF5F
:1004C00011F8013B11F801CB48BF11F8012B24BFF3
:1004D00000F8013B00F801CB48BF00F8012B704742
:1004E00010B5203AC0F00B80B1E81850203AA0E8CF
:1004F0001850B1E81850A0E81850BFF4F5AF5FEA03
:10050000027C24BFB1E81850A0E8185044BF18C9B5
:1005100018C0BDE810405FEA827C24BF51F8043B5C
:1005200040F8043B08BF7047D20728BF31F8023BB0
:1005300048BF11F8012B28BF20F8023B48BF00F844
:10054000012B70474FF000020429C0F0128010F018
:10055000030C00F01B80CCF1040CBCF1020F18BF9F
:1005600000F8012BA8BF20F8022BA1EB0C0100F032
:100570000DB85FEAC17C24BF00F8012B00F8012B05
:1005800048BF00F8012B70474FF0000200B513463A
:1005900094469646203922BFA0E80C50A0E80C50A3
:1005A000B1F12001BFF4F7AF090728BFA0E80C5054
:1005B00048BF0CC05DF804EB890028BF40F8042B4D
:1005C00008BF704748BF20F8022B11F0804F18BFBA
:1005D00000F8012B704770477047704710B500F066
:1005E00009F8006810BD10B5044600F003F8046077
:1005F00010BD000000487047485100200048704777
:10060000485100207546FFF7F9FFAE4605006946E0
:10061000534620F00700854618B020B5FFF792FE3C
:10062000BDE820404FF000064FF000074FF00008F3
:100630004FF0000B21F00701AC46ACE8C009ACE874
:10064000C009ACE8C009ACE8C0098D46704710B5D8
:100650000446AFF300802046BDE81040FFF7FDBD23
:1006600001491820ABBEFEE72600020070470000DB
:100670009FED290A016891F90C1001291ED04A1C2E
:100680001CD0B7EE001A4168D1ED071AD1ED050A6A
:10069000F5EEC01AF1EE10FA04D1F5EEC00AF1EE53
:1006A00010FA03D091ED060A30EE610AB5EEC00AE9
:1006B000F1EE10FA07DDF0EE401A06E000EE901AB7
:1006C000B8EEE01ADFE7F1EE401A11EE902A134B74
:1006D0009A4216DDB5EEC00AF1EE10FA08DDDFED44
:1006E000101A30EE210A40EE010AC1ED050A0CE0B5
:1006F000DFED0C1A30EE210A40EE010AC1ED050AC9
:1007000003E040EE010AC1ED050A406890ED060ADB
:1007100080ED070A7047000000000000DA0F494032
:10072000DA0FC9C0DA0FC94030B505460C46002DB6
:100730000CD0022C0AD90648A11E0288284600F0D7
:10074000C1FE291901F8020D000A487030BD0000F1
:10075000A807002030B505460C46002D0AD0022C13
:1007600008D9601E81B2FF22284600F0C3FE291975
:1007700001F8010C30BD000001221021014801F0F8
:1007800069BD00000000024000221021014801F074
:1007900061BD0000000002407047000001221146C8
:1007A000014801F057BD0000000402400022012171
:1007B000014801F04FBD000000040240704770B5D1
:1007C00004464FF47A7502E0284600F004F8641EEF
:1007D000A4B2F9D270BD70B5054606F0D1FC04464E
:1007E00006F0CEFC001BA842FAD370BD10B5FFF78F
:1007F000D3FFFFF7E3FF05F00FFF044605F092FF7C
:10080000204310BD2DE9FC4104460D46164600204C
:1008100000900190FFF7B8FF922000F0BFF8062289
:100820006946122000F09CF8FFF7A6FF9DF8010032
:100830009DF80010000200B2084300EE100A474F76
:10084000B8EEC00AD7ED000A20EE200A85ED000AB6
:100850009DF803009DF80210000200B2084300EE6C
:10086000100AF8EEC00A97ED000A60EE800AC5EDA6
:10087000010A9DF805009DF80410000200B208432B
:1008800000EE900AF8EEE00A20EE800A85ED020AFA
:10089000FFF78CFF08226946002000F061F8FFF79F
:1008A0007DFF9DF800000F2830D19DF803009DF8D2
:1008B0000210000200B2084300EE100AD7ED010A50
:1008C000B8EEC00A20EE200A84ED000A9DF805006B
:1008D0009DF80410000200B2084300EE100AF8EE82
:1008E000C00A97ED010A60EE800AC4ED010A9DF886
:1008F00007009DF80610000200B2084300EE900ABF
:10090000F8EEE00A20EE800A84ED020AFFF73CFFD1
:10091000A22000F043F802226946222000F020F8CD
:10092000FFF72AFF9DF800009DF80110C00040EA83
:100930005110B0F5806F02DBA0F5006000B200EE50
:10094000100AB4EE001AF8EEC00AB3EE070A00EE81
:10095000810A86ED000ABDE8FC8100003C01002010
:1009600070B50D46144640F0800000F017F806E020
:10097000552000F013F805F8010B641EE4B2002CBA
:10098000F6D170BD10B50C4640F0800000F006F8BE
:10099000552000F003F8207010BD000001B582B0B2
:1009A0004FF47A700090012301AA02A9024802F0D4
:1009B00011F99DF804000EBD580D002010B50C462D
:1009C000FFF7ECFF2046BDE81040FFF7E7BF00004F
:1009D0002DE9F04107462DED0A8B13A80D4616466A
:1009E00090E80710DDF85C80129BFF4C93ED002A25
:1009F00084ED112AD0ED002AC4ED122AD1ED001A9F
:100A0000C4ED131A92ED000A84ED140ADCED000A1D
:100A1000C4ED150A98ED001A84ED161A84ED1B2A10
:100A2000C4ED1C2AC4ED1D1A60EE201AB0EE008A37
:100A300061EE811AF5EEC01AF1EE10FA63D020EEE5
:100A4000000A00EEA00A01EE010A06F02DF884ED7E
:100A50000A0AD4ED140A20EE802A84ED142AD4ED7B
:100A6000150A20EE803A84ED153AD4ED160A60EEB0
:100A7000803AC4ED163A94ED070AD4ED090AD4ED94
:100A8000062A94ED081A60EE201A42EEC11A21EEF1
:100A9000884A84ED0B4A62EE801A41EE201A61EE1C
:100AA000881AC4ED0C1A62EEA22A40EE402A41EEEA
:100AB000412A40EEA02AC4ED0D2A63EE220A43EE3D
:100AC000E10AC4ED0E0A23EE841A02EE621A84EDE6
:100AD0000F1A62EE211A43EE441AC4ED101A94ED77
:100AE000112A94ED000A00EE202A84ED112AD4ED9B
:100AF000120A40EE010AC4ED120AD4ED130A40EEC8
:100B0000210AC4ED130A94ED060A84ED170AD4ED08
:100B1000070AC4ED180A94ED081A84ED191AD4EDE9
:100B2000091AC4ED1A1AD4ED112AB1EE602A94ED17
:100B3000123A62EE224A94ED132AD4ED013AB0EE55
:100B4000404A41EE434A41EEC24A04EEA34A84EDD4
:100B5000064AB0EE445A60EE224AB0EE604A41EED8
:100B6000024A41EEC34A04EEA34A84ED074A60EE0E
:100B7000035AF0EE414A40EEC25A41EEA25A45EE07
:100B8000A34AC4ED084A20EE020A00EE830A01EEF1
:100B9000620A40EE231AC4ED091A25EE050A04EE96
:100BA000040A04EEA40A01EEA10A05F07DFF84ED1B
:100BB0000A0AD4ED060A20EE80BA84ED06BAD4ED16
:100BC000070A60EE808AC4ED078AD4ED080A20EE99
:100BD000809A84ED089AD4ED090A60EE809AC4EDFB
:100BE000099A2BEE0B0A08EEE80A09EE490A09EE0B
:100BF000A90A10EE100A07F03FFF29EE080A6BEE73
:100C0000080A41EC1A0B20EE290A00EEA80A10EEA1
:100C1000100A07F031FF41EC100BB0EE4A1AF0EE6B
:100C20006A1A05F035FA9FED711B51EC100B53EC6D
:100C3000112B07F02BFC07F0AFF9286094ED070AA1
:100C4000D4ED090A94ED081A20EE080A20EE200AD5
:100C5000D4ED060A60EE880A00EEC10A10EE100A12
:100C600007F00AFF41EC100B04F0F6FE9FED61ABBC
:100C700051EC100B53EC1A2B07F008FC07F08CF921
:100C80003860D4ED068AD4ED07BA94ED08BA28EEA0
:100C9000A80A94ED09CA0BEEAB0A0BEE4B0A0CEE58
:100CA0004C0A10EE100A07F0E7FE2BEE8B0A41EC1F
:100CB000190B08EE8C0A20EE080A10EE100A07F055
:100CC000DBFE41EC100BB0EE491AF0EE691A05F0AC
:100CD000DFF953EC1A2B51EC100B07F0D7FB07F0A0
:100CE0005BF93060DFF8008194ED020A08F18008BA
:100CF00088ED020AD4ED030AC8ED030AD4ED041A04
:100D0000C8ED041A94ED051A88ED051A94ED1B2A16
:100D1000F1EE602A94ED1D3A62EE824AD4ED1C2A6F
:100D2000D4ED013AB0EE404A41EEE24A41EE434A88
:100D300004EEA34A84ED1E4AB0EE445A60EE024A25
:100D4000B0EE604A41EE834A41EE624A04EEA34AA5
:100D500084ED1F4A60EE225AF0EE614A40EEC35A1B
:100D600041EE025A45EEA34AC8ED004A20EE030ABE
:100D700000EEA20A01EEC20A00EE231A88ED011A63
:100D800025EE050A04EE040A04EEA40A01EE010AA7
:100D900005F08AFE84ED0A0AD4ED1E0A60EE800A90
:100DA000C4ED1E0AD4ED1F0A60EE800AC4ED1F0ACE
:100DB000D8ED000A60EE800AC8ED000AD8ED010AFD
:100DC00020EE800A88ED010A94ED061AD4ED071A88
:100DD00094ED080A61EE010A94ED092A41EEE10A58
:100DE00040EE400A0AE0000088000020000000E019
:100DF000DBA54C40000000E0DBA54CC020EE080A5B
:100E000021EE081A42EE020A284620EE020A01EEFE
:100E1000210A05F0E5FA94ED070AD4ED090A94EDEC
:100E2000081A20EE080A20EE200AD4ED060A60EE29
:100E3000880A00EEC10A88ED060AF7EE000A40EEC5
:100E4000400A08F11C00F5EEC00AF1EE10FA04DBCE
:100E5000B1EEE01A80ED001A03E0DFED1E0AC0EDEE
:100E6000000A3846D8ED070A05F0BAFA94ED060AEA
:100E700094ED071AD4ED081A60EE000A94ED092AE1
:100E8000304641EE010A21EE211A00EE021A41EE2F
:100E9000E10A21EE080A42EE420A05F0A1FAD5ED78
:100EA000000A9FED0D0A60EE800AC5ED000AD7ED3D
:100EB000000A9FED0A1A60EE810AC7ED000AD6ED1E
:100EC000000A20EE800A86ED000A0020BDEC0A8BA5
:100ED000BDE8F08100000000DF2E6542DF2E65C214
:100EE000FEE7000000B58BB001A800F06DF801A985
:100EF000054800F091FB0221034800F009FB02487D
:100F000000F09DFE0BB000BD300D0020014800F048
:100F100095BC0000300D00201CB50A88120A8DF81F
:100F200000200A788DF801204A88120A8DF80220E4
:100F30008A788DF803208A88120A8DF804200A79AD
:100F40008DF80520CA88120A8DF8062089798DF857
:100F5000071001466A46024800F05CF81CBD00001C
:100F6000300D002070B5A0F5807041384FF00005BD
:100F70001BD0012812D0104AC42808D0C52813D18C
:100F8000D2F87C35BDE8704008220C481847D2F8EA
:100F9000AC32BDE87040082207481847084C20468C
:100FA000A2699047E068056070BD064C2046A269C2
:100FB0009047E068056070BD08020020D80400205A
:100FC000C80100209801002000210160416081607B
:100FD000C1600161416181610122C26102624162BD
:100FE00070474178007841EA0020704741790079E4
:100FF00041EA002000B27047C178807841EA0020C1
:1010000000B27047807970474179007941EA002049
:1010100000B2704710B588B00C4C0368A34205D0ED
:101020000B4CA34202D0012008B010BD0291002158
:10103000049105910821069101AB02A900F07AFA0A
:1010400008B10120F0E70020EEE700000064004056
:1010500000680040014800F07FBE000050100020F2
:10106000014800F079BE0000B00D0020014800F0FA
:1010700073BE0000900F0020014800F06DBE00001C
:10108000100E0020014800F067BE0000F00F0020A5
:101090002DE9F04F099E00248568802D18D0A24DBF
:1010A000C563A24D456490F83450012D15D001253B
:1010B00080F8345090F83550012D10D0002180F880
:1010C00034100224002180F834102046BDE8F08F4F
:1010D0004FF4807141650120F8E70220F6E7022510
:1010E00080F835500025456505682F6847F480274E
:1010F0002F6005682B6103685E608368402B25D0F4
:10110000036899600168CA608A4D8A4E884FDFF88B
:1011100020E2EA14DFF81CC2DFF81482DFF8149230
:10112000DFF80CA201687836303793020CF1300CEE
:10113000A8F1180809F190090AF1480A4FF0006B6C
:1011400071453BD9A94206D1202233E003689A6059
:101150000268D160D8E7764D483DA94201D12022EE
:1011600028E0744D6035A94201D1202222E0704D63
:101170001835A94201D120221CE06E4D1835A94234
:1011800018D06B4D303DA94214D0B14212D0B942B3
:1011900010D0614501D11A460CE0414501D11A46F3
:1011A00008E0494501D11A4604E0514501D11A46EB
:1011B00000E05A465E494C390A60AFE0DFF874E15E
:1011C0000EF1A80E714536D9A94201D120222EE098
:1011D000574D483DA94201D1202228E0554D6035A8
:1011E000A94201D1202222E0514D1835A94201D156
:1011F00020221CE04F4D1835A94218D04C4D303DEF
:10120000A94214D0B14212D0B94210D0614501D1E7
:101210001A460CE0414501D11A4608E0494501D182
:101220001A4604E0514501D11A4600E05A464049A9
:1012300050390A6072E0DFF8FCE00EF1480E7145AB
:1012400036D9A94201D120222EE0394D483DA9428C
:1012500001D1202228E0374D6035A94201D120225A
:1012600022E0334D1835A94201D120221CE0314D36
:101270001835A94218D02E4D303DA94214D0B142A4
:1012800012D0B94210D0614501D11A460CE0414557
:1012900001D11A4608E0494501D11A4604E05145FA
:1012A00001D11A4600E05A4622491039CA6035E099
:1012B000A94201D120222EE01D4D483DA94201D175
:1012C000202228E01B4D6035A94201D1202222E0D6
:1012D000174D1835A94201D120221CE0154D1835B3
:1012E000A94218D0124D303DA94214D0B14212D0BB
:1012F000B94210D0614501D11A460CE0414501D1F7
:101300001A4608E0494501D11A4604E0514501D189
:101310001A4600E05A46074910398A6001680A688F
:1013200042F001020A60CDE63568000859680008FD
:1013300058640240106002400168CAB2103A182393
:10134000B2FBF3F2064B9B5CC3656FF30901032A02
:1013500002D9091D816500E08165806D704700003C
:10136000E08B000810B5014600208A6A8B694FF0B7
:10137000C074002B0ED0B3F5005F1AD062B3012AFF
:101380002AD0022A28D0032A03D1C96AC90100D56C
:10139000012010BD1AB1012A06D0022AF9D1C96A6A
:1013A000C901F6D5012010BDC96AA142FBD10120B7
:1013B00010BD52B1012A0AD0022A06D0032AF7D161
:1013C000C96AA142F4D1012010BD012010BDC96A33
:1013D000C901FBD5012010BD012010BD30B5046846
:1013E000256825F480252560046863608368402BA8
:1013F00004D0036899600068C26030BD03689A60D9
:101400000068C16030BD70B5002490F83450012DE3
:101410000CD0012580F8345090F835600025012E5D
:1014200006D080F834500224204670BD022070BDE2
:10143000022680F83560456505682E6826F480260A
:101440002E6005686B608368402B09D00368996043
:101450000168CA600068016841F001010160E3E7CA
:1014600003689A600268D160F4E701680A68D206EE
:1014700004D5C968C90601D506F02ABA7047704775
:10148000102000F0F3BD202000F0F0BD41689FED7A
:101490000A1A8A8900EE102AB8EE400AC0EE010A44
:1014A000B0EE000A20EE800ADFED040A20EE200AEA
:1014B00081ED060AFFF7DCB800FF7F47DA0F4940ED
:1014C00072B6FEE710B503461046002B01D0084C5B
:1014D0000AE04FF6FF7010BD13F8012B4240D2B264
:1014E00034F8122082EA1020491E4A1CF4D110BDA3
:1014F000708D000810B5054C03E010F8013B534017
:10150000E25C491E89B2F8D2104610BD708C00080A
:1015100090F82020012A07D0022A05D0416A41F420
:101520008021416201207047006842690A4342619C
:1015300000207047F0B590F820500468A468012D91
:1015400007D0022D05D0416A41F48021416201207B
:10155000F0BD04F0806504F00066354301D1E5007C
:1015600053D5C4F301640125A5401D608B684FF479
:10157000C0759BB1CE6805EB041733434E6843EA50
:10158000C6030668F3514FF4C273076803EB0413F4
:101590000E69FE50097D012909D00DE00E88CB6847
:1015A00005EB041743EA46530668F351EBE701687D
:1015B000CE5846F48076CE501179D379567941EAE7
:1015C000036193791B0443EA062319434FF4C6765B
:1015D000036806EB041699511178D37841EA036148
:1015E000937852781B0443EA022211434FF4C473E8
:1015F000026803EB0413D150006805EB0411425854
:1016000042F0010242500020F0BD416A41F4001155
:1016100041620120F0BD000010B590F82020012AA1
:1016200007D0022A05D0416A41F48021416201209D
:1016300010BD3C4800F50070026842F001020260F3
:10164000026822F47C52026002684B6A42EA03227A
:1016500002600A7D02F01F0301229A40C36993438E
:10166000C361A0F50070CB69B3B9D0F80C329343D5
:10167000C0F80C328C894B6864F31F434C6900EB53
:10168000C404C4F840320C890B6864F31F434C69EE
:1016900000EBC404C4F84432CB69012B16D1D0F856
:1016A0000C321343C0F80C320C884B6864F31F43B0
:1016B0004C6900EBC404C4F840320C89CB6864F375
:1016C0001F434C6900EBC404C4F844328B697BB1FE
:1016D000D0F804321343C0F804320B6973B1D0F868
:1016E00014321343C0F81432096A01290CD010E0F7
:1016F000D0F804329343C0F80432EEE7D0F8143245
:101700009343C0F81432EFE7D0F81C121143C0F82D
:101710001C12D0F8001221F00101C0F800120020C4
:1017200010BD000000640040704770B590F8204084
:10173000012C07D0022C05D0416A41F4802141627E
:10174000012070BD21B104682469A4072AD003E0F8
:101750000468E468A4071FD04FF4D874056804EB4C
:1017600001142D5905F0040595600DB305682D5938
:10177000ED08556005682C5904F00204D4604FF45C
:10178000DA74056804EB01142E5906F00F06082ED2
:1017900013D30825156114E0416A41F40011416238
:1017A000012070BD416A41F400114162012070BD09
:1017B00005682D596D0D1560DCE72D5905F00F05F5
:1017C000156105682D59C5F30725956105682C59E4
:1017D000240C54614FF4DC72046802EB0112A4582B
:1017E0001C700468A458240A5C700468A458240C73
:1017F0009C700468A258120EDA704FF4DE7204680E
:1018000002EB0112A4581C710468A458240A5C71EC
:101810000468A458240C9C710468A258120EDA7152
:1018200031B10068016941F020010161002070BD03
:101830000068C16841F02001C160F7E72DE9F05F61
:101840000546002428684669D0F804908768D0F8D7
:101850000CA0D0F810B0D0F81880F10748D0F907E4
:1018600014D001218160B80703D5284600F014FA8E
:101870000CE0780702D54FF4006407E0380702D582
:101880004FF4805402E0284600F005FAF80516D51A
:1018900029684FF480708860B80503D5284600F0A9
:1018A000FDF90CE0780502D544F4005407E0380552
:1018B00002D544F4804402E0284600F0EEF9F80333
:1018C00016D529684FF480308860B80303D52846C0
:1018D00000F0E6F90CE0780302D544F4004407E098
:1018E000380302D544F4803402E0284600F0D7F9EA
:1018F000300707D55FEACA6004D544F4007429684C
:101900001020C86070074FF0080707D55FEA0A701B
:1019100004D52868C760284600F074F9B00706D5DA
:101920002868C068800702D0284600F06DF970066C
:1019300007D55FEACB6004D544F4806429681020A1
:101940000861B00607D55FEA0B7004D52868076107
:10195000284600F071F9F00606D52868006980076E
:1019600002D0284600F069F9B00308D55FEAC960E3
:1019700005D5296810204860284600F05FF9F0037B
:1019800007D55FEA097004D528684760284600F04B
:1019900088F9300446D55FEA497040D5F00504D592
:1019A0005FEAC87001D044F00104B00504D55FEAD5
:1019B000887001D544F00204700504D55FEA4870D0
:1019C00001D544F00404300529D518F0700F26D055
:1019D00008F07000402815D006DC102809D0202817
:1019E0000AD0302816D10AE050280ED0602811D134
:1019F0000EE044F008040DE044F010040AE044F066
:101A0000200407E044F0400404E044F0800401E0D6
:101A100044F480742868816921F07001816129682B
:101A200004204860002C05D0686A2043686228467C
:101A3000FFF77AFEBDE8F09F70B50446002C03D096
:101A400094F8200010B104E0012070BD204600F0A1
:101A50009DF82068016841F00101016000F002FC7E
:101A6000054605260CE000F0FDFB401B0A2807D9BF
:101A7000606A40F40030606284F82060012070BD2C
:101A800020684068C007EED02068016821F002019C
:101A9000016000F0E7FB05460CE000F0E3FB401BB3
:101AA0000A2807D9606A40F40030606284F8206038
:101AB000012070BD206840688007EED4207E012898
:101AC0003FD02068016821F080010160607E01281C
:101AD0003DD02068016821F040010160A07E01280E
:101AE0003BD02068016821F020010160E07E0128E0
:101AF00039D02068016841F010010160207F012881
:101B000037D02068016821F008010160607F01285A
:101B100035D02068016821F004010160D4E9020198
:101B20000843D4E90412114308436168491E08437D
:101B30002168C86100206062012084F82000002034
:101B400070BD2068016841F080010160BEE7206837
:101B5000016841F040010160C0E72068016841F080
:101B600020010160C2E72068016821F010010160D6
:101B7000C4E72068016841F008010160C6E72068F9
:101B8000016841F004010160C8E7000010B586B0AB
:101B90000446142101A8FEF7F7FC17492068884283
:101BA00027D100211548026842F0007202600068E7
:101BB00000F00070009011481038026842F00802EE
:101BC0000260006800F008000090032001900222EB
:101BD0000292039104900920059001A9084800F0A1
:101BE00051FA00220521142000F0DAFB142000F045
:101BF000C9FB06B010BD0000006400404038024040
:101C0000000C02407047000010B5094988420ED10F
:101C1000084B00211C46A3F11C02FFF786FD054876
:101C200021461C380068BDE81040FFF79BB910BD85
:101C3000300D0020E84E002070477047704770B5A7
:101C4000044694F82000012805D0606A40F4002082
:101C50006062012070BD022084F8200020680168C5
:101C600021F00101016000F0FDFA05460DE000F0F1
:101C7000F9FA401B0A2808D9606A40F40030606213
:101C8000052084F82000012070BD20684068C0074E
:101C9000EDD1606270BD7047704770477047704704
:101CA000704770472DE9F0410446A76D00F0DAFA5D
:101CB000054694F835000026022806D0802060658D
:101CC00084F834600120BDE8F0812068016821F0CB
:101CD000160101602068416921F080014161206C9A
:101CE00008B9A06C20B12068016821F008010160EA
:101CF0002068016821F0010101600BE000F0B2FAF8
:101D0000401B052806D9202034342062032060704F
:101D10002670D8E720680068C007EFD134343F2030
:101D200094F828108840B860012060702670002068
:101D3000C9E790F83510022903D0802141650120C0
:101D40007047052180F835100068016821F0010115
:101D500001600020704700002DE9F84304464FF071
:101D60000009CDF800906F484FF416510068B0FBA1
:101D7000F1F7A56D2E6894F85C00082202FA00F1D4
:101D8000314210D02068016849070CD5016821F064
:101D90000401016094F85C0002FA00F1A960606D32
:101DA00040F00100606594F85C104FF0010808FAFB
:101DB00001F0304208D021684969090604D5A860BD
:101DC000606D40F00200606594F85C10042088406B
:101DD000304208D021680968890704D5A860606D81
:101DE00040F00400606594F85C1010208840304298
:101DF00020D02168096809071CD5A86020680168FF
:101E000049030CD50068000304D4216C91B120462D
:101E100088470FE0A16C69B1204688470AE0016855
:101E2000C90503D4016821F008010160216C09B1E2
:101E30002046884794F85C102020884030424CD0DF
:101E400021680968C90648D5A86094F835000528B6
:101E50000BD020680168490330D50068000328D4FE
:101E6000616C51B32046884737E02068016821F053
:101E7000160101602068416921F080014161206CF8
:101E800008B9A06C20B12068016821F00801016048
:101E900094F85C103F208840A86084F8358084F86E
:101EA0003490216D00293BD001B02046BDE8F043BD
:101EB0000847E16B09B1204688470EE00168C90573
:101EC00007D4016821F01001016084F8358084F89E
:101ED0003490E16B09B120468847606D00281FD01F
:101EE000606DC00714D0052084F8350020680168B3
:101EF00021F0010101600098401C0090B84203D815
:101F000020680068C007F6D184F8358084F83490E2
:101F1000E16C002904D001B02046BDE8F043084739
:101F2000BDE8F8831C0000202DE9F041044600F0D4
:101F300099F905465CB1022084F83500002684F842
:101F400034602068016821F0010101600DE001208A
:101F5000BDE8F08100F086F9401B052805D9202056
:101F60006065032084F83500F2E720680068C00748
:101F7000F0D121680A6820480240D4E901031843DF
:101F8000D4E903352B43184363691843A369184305
:101F9000E3691843236A18431043626A042A03D191
:101FA000D4E90B231A43104308602068406920F0ED
:101FB0000700656A29460543012704290DD1A06A57
:101FC0000543E06A48B12046FFF7CCF928B140202C
:101FD000606584F835700120BAE7206845612046C5
:101FE000FFF7AAF994F85C203F2191408160666573
:101FF00084F835700020ABE73F8010F02DE9F04108
:1020000004460025A66D94F8340001280DD0012067
:1020100084F8340094F835700020012F07D084F83C
:10202000340002252846BDE8F0810220FBE70227A4
:1020300084F8357060652046FFF7D0F994F85C109D
:102040003F208840B0602068016841F016010160BF
:10205000206C20B12068016841F00801016020680F
:10206000016841F001010160DCE7704710B50449E7
:102070000A68024202D00860FFF7F7FF10BD0000B7
:10208000143C01402DE9F84F0022DFF89C914FF0FD
:10209000010803274FF00F0C09F1040AA9F1040B02
:1020A00008FA02F50B682B40AB426ED10C7904F0B4
:1020B0000304012C01D0022C15D18668540007FAC4
:1020C00004FE26EA0E06D1F80CE00EFA04FE4EEAF3
:1020D000060EC0F808E04468AC430D79C5F300155E
:1020E0009540254345600C79E443A40708D0C568B2
:1020F000540007FA04F6B5438E68A6402E43C66026
:102100000C7904F00304022C11D1D40800EB8406EE
:10211000356A5407E40E0CFA04FE25EA0E05D1F8E0
:1021200010E00EFA04FE4EEA050EC6F820E005683F
:10213000540007FA04F6B5430E7906F00306A640EC
:102140002E4306604C6814F4403F67D0374C256836
:1021500045F480452560246804F480440094344CA0
:1021600022F003052E19D6F8085894074FEA147E7A
:102170000CFA0EF4A5432F4CA04201D1002424E018
:102180002D4CA04202D101241FE047E02B4CA0427D
:1021900001D1022419E02A4CA04201D1032414E009
:1021A000284CA04201D104240FE0274CA04201D1C9
:1021B00005240AE0254CA04201D1062405E0244C68
:1021C000A04201D1072400E0082404FA0EF42C43B5
:1021D000C6F80848D9F800409C434D68ED0200D588
:1021E0001C43C9F80040DAF800409C434D68AD023A
:1021F00000D51C43CAF80040DBF800409C434D6802
:10220000AD0300D51C43CBF80040074D083D2C68BA
:102210009C434E68F60300D51C432C60521C102AC8
:10222000FFF43EAFBDE8F88F083C0140443802405F
:10223000003001400000024000040240000802405B
:10224000000C02400010024000140240001802403E
:10225000001C0240002A01D081617047090481619D
:10226000704700000148806870470000100000209F
:102270000248816802781144816070471000002094
:1022800010B50B48016841F400710160016841F428
:1022900080610160016841F480710160032000F0F9
:1022A0009FF80F2000F006F800F050F8002010BD55
:1022B000003C024030B587B0054600241F48016845
:1022C00041F001010160006800F00100009001A9E7
:1022D00002A800F03DF90598B0B100F05DF94000AA
:1022E0001749B0FBF1F1491E16484FF080420260D9
:1022F00040F2E732C260416004618460846100F0B2
:1023000066FD04461CB115E000F046F9E8E70D480B
:1023100000F096FD04466CB91C2000F033F8102D37
:1023200007D2002229461C2000F03AF80648056032
:1023300000E0012407B0204630BD000040380240D4
:1023400040420F00B01000201400002082B00C4862
:10235000016841F480410160006800F48040019010
:102360000748001F016841F080510160006800F0DB
:102370008050019000220F21901E02B000F010B892
:1023800044380240002809DB00F01F02012191407F
:102390004009800000F1E020C0F800117047000003
:1023A000F0B40D460D4B1B68C3F30223C3F10704C1
:1023B000042C00D90424191D072901D2002300E0B0
:1023C000DB1E012606FA04F1491E294099409E4071
:1023D000761E16403143F0BC03F02CBB0CED00E040
:1023E00000F00701054A10684FF6FF03184040EA65
:1023F0000120034908431060704700000CED00E025
:102400000000FA052DE9F04704460D46002C13D0D4
:10241000DFF82891D9F80000EFB200F00700A842D9
:102420000CD289F80070D9F8000000F00700A8422B
:1024300004D00120BDE8F0870120FBE72068404E72
:10244000810712D5400703D5306840F4E050306072
:102450002078000703D5306840F460403060306871
:10246000A16820F0F000084330602078C00731D028
:10247000334960680839012808D002280BD00328A6
:1024800009D0096889070BD40120D3E709688903BB
:1024900006D40120CEE70968890101D40120C9E7EB
:1024A000316821F0030101433160FFF7DBFE804614
:1024B00041F2883A07E0FFF7D5FEA0EB080050454F
:1024C00001D90320B6E73068616800F00C00B0EB7A
:1024D000810FF0D1D9F8000000F00700A84209D917
:1024E00089F80070D9F8000000F00700A84201D078
:1024F00001209FE72078400705D53068E16820F487
:10250000E050084330602078000706D53068216924
:1025100020F4604040EAC100306000F05DF83168AE
:10252000084AC1F30311515CC840074908600748D5
:102530000068FFF7BFFE00207CE70000003C02407F
:1025400008380240E88B00081C000020140000201E
:102550000F2202600B4A136803F003034360136801
:1025600003F0F0038360136803F4E053C360126860
:1025700002F46042D20802610348006800F00700DC
:102580000860704708380240003C0240014800687B
:10259000704700001C00002000B5FFF7F7FF04495A
:1025A0000968044AC1F38221515CC84000BD0000A3
:1025B00008380240F88B000800B5FFF7E7FF044930
:1025C0000968044AC1F34231515CC84000BD0000B3
:1025D00008380240F88B000810B51748006810F062
:1025E0000C01164816D0164B042912D0082911D117
:1025F000114C241F216801F03F02216849020AD5CD
:102600002068C0F38810A0FB03010023FDF7ACFE97
:1026100009E0184610BD21680023C1F38811A1FB11
:102620000001FDF7A1FE2168C1F30141491C4900E9
:10263000B0FBF1F010BD0000083802400024F400A7
:10264000001BB7002DE9F84F0446002C13D020786A
:10265000DFF8A083C007A8F1040556D008F10400F4
:102660000168C1F3810101290CD00068C0F3810029
:10267000022803D00DE00120BDE8F88FD8F8000053
:10268000400206D5286880033FD5606870BB0120F2
:10269000F2E76068B0F5803F10D0B0F5A02F12D0FF
:1026A000286820F480302860286820F48020286082
:1026B0006068E0B1FFF7D6FD064614E0286840F4F4
:1026C00080302860F4E7286840F48020286028687B
:1026D00040F480302860EBE7FFF7C4FD801B6428DE
:1026E00001D90320C8E728688003F5D50DE0FFF77E
:1026F000B9FD064606E0FFF7B5FD801B642801D949
:102700000320B9E728688003F5D42078BA4F800702
:102710004FF0000948D5B748001D016811F00C0FB3
:1027200008D00068C0F38100022813D1D8F8000057
:1027300040020FD42868800704D5E068012801D042
:10274000012099E72868216920F0F80040EAC100DB
:10275000286029E0E068B8B101203860FFF782FD09
:10276000064606E0FFF77EFD801B022801D9032004
:1027700082E728688007F5D52868216920F0F800ED
:1027800040EAC10028600FE0C7F80090FFF76AFD3B
:10279000064606E0FFF766FD801B022801D90320EC
:1027A0006AE728688007F5D42078000729D5DFF884
:1027B00044A2924861690AF1700A89B1012101605D
:1027C000FFF750FD064606E0FFF74CFD801B022890
:1027D00001D9032050E7DAF800008007F4D510E0B3
:1027E000C0F80090FFF73EFD064606E0FFF73AFD11
:1027F000801B022801D903203EE7DAF80000800799
:10280000F4D42078400778D54FF0000A79483C305E
:102810000068C0000BD477483C30016841F080511B
:102820000160006800F0805000904FF0010ADFF86E
:10283000D0B1DBF80000C00514D4DBF8000040F490
:102840008070CBF80000FFF70DFD064606E0FFF7AD
:1028500009FD801B022801D903200DE7DBF80000E9
:10286000C005F4D5634EA0686C3601280FD005284A
:1028700012D0306820F001003060306820F0040091
:102880003060A068F8B1FFF7EDFC834617E03068D0
:1028900040F001003060F4E7306840F00400306040
:1028A000306840F001003060EBE7FFF7DBFCA0EBA5
:1028B0000B0141F28830814201D90320DCE6306807
:1028C0008007F2D510E0FFF7CDFC834609E0FFF763
:1028D000C9FCA0EB0B0141F28830814201D90320F1
:1028E000CAE630688007F2D4BAF1010F05D1414839
:1028F0003C30016821F080510160A069C0B33D49BE
:10290000091D09684FF0FF36C1F38101022946D045
:10291000022805D0C7F86090FFF7A4FC04463AE00F
:10292000C7F86090FFF79EFC814607E0FFF79AFC2E
:10293000A0EB0900022801D903209DE62868800148
:10294000F4D4D4E907010843616AA26A890106EB5D
:10295000520241EA0241084394F82C1040EA016017
:10296000C8F8000001203866FFF77CFC044607E049
:102970003DE0FFF777FC001B022801D903207BE62E
:1029800028688001F5D532E0FFF76CFC001B0228B7
:1029900001D9032070E628688001F5D427E00128DA
:1029A00023D0D8F80000E26900F4800191421AD1E6
:1029B000226A00F03F01914215D147F6C071626A68
:1029C0000140B1EB821F0ED1A26A00F4403106EB48
:1029D0005202B1EB024F06D194F82C1000F0706057
:1029E000B0EB016F03D0012046E6012044E6002051
:1029F00042E600000438024000004742800E474291
:102A00000070004070B50446002C09D0606A0025B3
:102A100040B125616561A56294F8510040B10CE0B8
:102A2000012070BD6068B0F5827FF4D0E561F2E707
:102A300084F85050204600F045F8022084F85100F8
:102A40002068016821F040010160A088218900F41C
:102A5000827001F404410843A18901F40061084334
:102A6000217C01F002010843217D01F001010843AE
:102A7000218B01F400710843217F01F038010843E4
:102A800094F8201001F080010843218D01F40051D9
:102A9000084321680860A069042101EA104094F805
:102AA000241001F010010843216848602068C169C2
:102AB00021F40061C1616565012084F851000020A6
:102AC00070BD00002DE9F04387B00546142102A82F
:102AD000FDF75AFD3949286888426CD100263848EC
:102AE000016841F480510160006800F48050019059
:102AF00033481438016841F002010160016801F0B7
:102B000002010191016841F001010160006800F0DB
:102B100001000190182002904FF00208CDF80C80BF
:102B20004FF00109CDF8109003240594052706976E
:102B300002A92448FFF7A6FA80200290CDF80C8065
:102B4000CDF810900594069702A91F48FFF79AFA4E
:102B50001F4C1E4820604FF0C068C4F80480A66077
:102B6000E660071527616661A661E6614FF44030B3
:102B7000206266622046FFF7D7F908B1FEF7A0FC95
:102B8000EC64A5631148124C483060342060C4F8EE
:102B900004804020A060E66027616661A661E6616E
:102BA000C002206266622046FFF7BEF908B1FEF758
:102BB00087FCAC64A56307B0BDE8F083003001403A
:102BC0004438024000040240000002401064024009
:102BD000B00D00202DE9FF4F81B004460E9E8B46BC
:102BE00098460125002794F8500001280ED0AA46E7
:102BF00084F850A0FFF736FB814694F851006168D5
:102C000001280DD0B1F5827F08D103E0022005B084
:102C1000BDE8F08FA16809B9042801D00227CFE0F0
:102C2000BBF1000F2DD0039858B35FEA080028D0FD
:102C300094F85100042802D0052084F851000020A7
:102C400060650399A163A4F83E80A4F83C80C4F8B1
:102C500030B0A4F83680A4F8348020646064206822
:102C60000168490603D4016841F040010160E06851
:102C7000B0F5006F07D06068F0B3B8F1010F49D02C
:102C80007EE001279CE0606810B1B8F1010F3AD1F5
:102C9000206B21680088C860206B801C2063E08E58
:102CA000401EE0862FE02068816889070DD5E18EFF
:102CB00059B1012D09D1216B0988C160206B801C9D
:102CC0002063E08E401EE086002520688168C907E9
:102CD0000BD0E18F49B1C068A16B0880A06B801C4C
:102CE000A063E08F401EE0870125FFF7BBFAA0EB51
:102CF0000900B04207D300E00CE0701C03D00327AA
:102D000084F851A05CE0E08E0028CCD1E08F002850
:102D1000C9D13BE0206B216800780873206B401C10
:102D20002063E08E401EE0862AE0206881688907E3
:102D30000DD5E18E59B1012D09D1216B09780173AF
:102D4000206B401C2063E08E401EE086002520683A
:102D50008168C9070BD0E18F49B1C068A16B0870C9
:102D6000A06B401CA063E08F401EE0870125FFF7A9
:102D700079FAA0EB0900B04201D3701C10D17EB1EA
:102D8000E08E0028D1D1E08F0028CED14A463146CE
:102D9000204601F0E3FF38B10127202060650FE0F5
:102DA000032784F851A00BE0A06818B92068C16817
:102DB00080680090606D08B1012701E084F851A09F
:102DC000002084F85000384621E77047704710B55E
:102DD0000446002C03D094F83D0010B107E0012018
:102DE00010BD002084F83C00204600F015F80220B9
:102DF00084F83D00211D206802F01CF901203D34BB
:102E000060726070A070E07020716071A071E071FC
:102E100020722070002010BD08B500680649884265
:102E200008D10648016841F400310160006800F4EF
:102E30000030009008BD00000044014044380240CA
:102E400090F83D10012901D001207047022180F83F
:102E50003D100168CA6842F00102CA600068144966
:102E6000884214D0B0F1804F11D0124988420ED060
:102E7000114988420BD01149884208D01049884234
:102E800005D01049884202D00F49884209D1816893
:102E900001F00701062908D0016841F00101016035
:102EA00003E0016841F0010101600020704700006B
:102EB000000001400004004000080040000C0040F9
:102EC00000040140004001400018004070472DE917
:102ED000F04104462068C56806694FF00007B10755
:102EE00014D5A90712D5F91E0161012020772068A9
:102EF0008069800703D02046FFF7E8FF05E0204601
:102F000000F0ACF8204600F03CF92777700717D5A1
:102F1000680715D521686FF004000861022020774A
:102F20002068806910F4407F03D02046FFF7CEFF71
:102F300005E0204600F092F8204600F022F92777BD
:102F4000300716D5280714D521686FF008000861EE
:102F5000042020772068C069800703D02046FFF74F
:102F6000B5FF05E0204600F079F8204600F009F9A9
:102F70002777F00617D5E80615D521686FF0100001
:102F80000861082020772068C06910F4407F03D0D2
:102F90002046FFF79BFF05E0204600F05FF8204643
:102FA00000F0EFF82777F00708D0E80706D021688F
:102FB0006FF001000861204600F0E4F8300608D503
:102FC000280606D521686FF0800008612046FFF7CB
:102FD000FCFE700608D5680606D521686FF0400033
:102FE0000861204600F0D5F8B0060AD5A80608D535
:102FF00021686FF0200008612046BDE8F041FFF72E
:10300000E5BEBDE8F081000010B586B0044614218D
:1030100001A8FDF7B9FA0E492068884215D10D487C
:10302000016841F020010160006800F0200000907C
:10303000402001900220029001210391049003207E
:10304000059001A90448FFF71DF806B010BD000067
:10305000004401403038024000140240704770B50F
:1030600004460D46002694F83C0001280FD00120AC
:1030700084F83C006AB1042A1FD0082A32D00C2AF6
:1030800044D00126002084F83C00304670BD022068
:1030900070BD2946206802F03BF82068816941F044
:1030A000080181612068816921F004018161206843
:1030B00081692A6911438161E4E72946206802F0A9
:1030C0005BF82068816941F4006181612068816951
:1030D00021F480618161206881692A6941EA0221C5
:1030E0008161CFE72946206802F080F82068C16935
:1030F00041F00801C1612068C16921F00401C1618A
:103100002068C1692A691143C161BBE7294620686B
:1031100002F0A4F82068C16941F40061C16120682F
:10312000C16921F48061C1612068C1692A6941EAED
:103130000221C161A6E710B50446002C03D094F823
:103140003D0010B107E0012010BD002084F83C00D4
:10315000204600F015F8022084F83D00211D20686B
:1031600001F068FF01203D3460726070A070E07073
:1031700020716071A071E07120722070002010BD7C
:10318000704770470068B0F1804F01D1FFF770B809
:103190007047704770477047F8B50446226810685A
:1031A000D168536900F00F06002E08D1850606D5B8
:1031B0008D0604D52046BDE8F84002F0E2B90025AE
:1031C000002E67D003F0010601F49077374361D0F9
:1031D000C20705D0CA0503D5626C42F001026264E1
:1031E000420705D5DA0703D0626C42F0020262643E
:1031F000820705D5DA0703D0626C42F004026264EC
:10320000020707D501F02002324303D0626C42F07E
:1032100008026264626C002A32D0800604D58806F7
:1032200002D5204602F0ADF920684069C0F3801055
:10323000616C01F00801014327D0204602F05FF9DC
:103240002068406940061CD52068143050E8001FF3
:1032500021F0400140E80012002AF5D1E06B60B196
:1032600059490165E06BFEF764FD002808D0E06B6A
:10327000016D01B0BDE8F04008472046FFF78BFF25
:10328000F8BD2046FFF787FFF8BD2046FFF783FF14
:103290006564F8BD236B012B7ED1C3067CD5CB06BC
:1032A0007FD510685068009050694FF020034006A9
:1032B0004FF0020644D5E16B0868406880B20028F0
:1032C000E7D0A28D8242E4D9E085C869B0F5807F5D
:1032D0002DD020680C3050E8001F21F4807140E8A8
:1032E0000012002AF5D12068143050E8001F21F0A8
:1032F000010140E80012002AF5D12068143050E89E
:10330000001F21F0400140E80012002AF5D184F8A6
:103310004230256320680C3050E8001F21F0100176
:1033200040E80012002AF5D1E06BFEF7BBFC6663B3
:10333000A08DE18D401A81B22046FFF72BFFF8BD2A
:10334000A08DE18D401A81B2E08D0028F7D00029D0
:10335000F5D020680C3050E8002F22F4907240E83D
:103360000027002FF5D12068143050E8002F22F0FC
:10337000010240E80027002FF5D184F84230256390
:1033800020680C3050E8002F22F0100240E80023A3
:10339000002BF5D1666300E003E02046FFF7FAFE5C
:1033A000F8BD020606D50A0604D52046BDE8F84059
:1033B00002F0D6B94006F3D54806F1D52046BDE85F
:1033C000F84002F0C3B800005954000870B5044634
:1033D000002C04D094F84100002510B106E0012033
:1033E00070BD84F84050204600F024F8242084F872
:1033F00041002068C16821F40051C160204602F0FC
:1034000025F92068016921F4904101612068416932
:1034100021F02A0141612068C16841F40051C16076
:103420006564202084F8410084F842006563002030
:1034300070BD00002DE9F04F87B00446142102A8AA
:10344000FDF7A2F870486F4B21686F4A14380225C7
:10345000032700264FF0070B4FF4807A4FF00068E7
:103460004FF48069994268D1116841F010011160F0
:10347000116801F010010191016841F00201016041
:10348000016801F002010191016841F00101016050
:10349000006800F0010001908020029003950496DE
:1034A0000597CDF818B002A95848FEF7EBFD2802A1
:1034B0000290039504960597CDF818B002A95448D8
:1034C000FEF7E0FD544D53482860C5F80480AE6017
:1034D000EE60C5F810906E61AE61C5F81CA02E625A
:1034E0006E622846FEF720FD08B1FDF7E9FFE563AF
:1034F000AC634848484D783060352860C5F8048092
:103500004020A860EE60C5F810906E61AE61EE617B
:103510002E626E622846FEF707FD08B1FDF7D0FF68
:10352000A563AC63002205212520FEF739FF252085
:10353000FEF728FF07B0BDE8F08F384B994240D125
:103540003149091F0A6842F480220A60096801F4BF
:1035500080210191016841F004010160006800F0E0
:10356000040001904FF44060029003950496059783
:10357000CDF818B002A92A48FEF784FD264D294847
:10358000C0352860C5F80480AE60EE60C5F81090C4
:103590006E61AE61C5F81CA04FF4003028626E6207
:1035A0002846FEF7C1FC08B1FDF78AFFE563AC636E
:1035B000002205212720FEF7F3FE2720FEF7E2FE7A
:1035C000B8E7194B9942B5D1116841F0200111605B
:1035D000116801F020010191016841F04001016092
:1035E000006800F0400001904FF484400290039581
:1035F000049605970820069002A90C48FEF742FDA4
:1036000098E70000001001404438024000040240E6
:103610000000024040640240900F0020004800403B
:1036200000080240286002400014014000180240D7
:103630007047000037B5044694F84100202801D0B7
:1036400002203EBD019959B352B32162A284E284A3
:1036500000206064212384F84130A56B114BEB639B
:10366000A56B114B2B64A56B104BEB64A36B18651A
:1036700020681346001DA56B02462846FEF7BEFCD7
:1036800021686FF0400008602068143050E8001F87
:1036900041F0800140E80012002AF5D100203EBD33
:1036A00001203EBDB3540008F554000869540008D9
:1036B00070477047FEE7000010B5DFED0D0A0D48BA
:1036C00001F030FA0B4890ED080AB5EEC00AF1EEB1
:1036D00010FA03D29FED080A80ED080A90ED080A5F
:1036E000BCEEC00A10EE100A80B20449086010BD9A
:1036F00000002042844E00200000000034440140BD
:1037000070B505460C46286804F038F8286890ED36
:10371000080A206880ED000A206804F02FF820686D
:1037200090ED080A70BDC1680A68521C0A60C16841
:103730004B689A4204D90B60C0680021017270473F
:10374000087A0028FBD101200872704710B5104894
:103750000E4901600321416000218160C1604FF486
:10376000002202614FF4401242610176012242764A
:103770008276C17601774277FEF75EF9002803D0A2
:10378000BDE81040FDF79CBE10BD00000064004085
:10379000300D002008B51D48016841F4800101602A
:1037A000016801F480010091016841F40011016099
:1037B000006800F400100090002205210C20FEF7A4
:1037C000EFFD0C20FEF7DEFD002205213820FEF77C
:1037D000E7FD3820FEF7D6FD002205213A20FEF74E
:1037E000DFFD3A20FEF7CEFD002205213B20FEF74B
:1037F000D7FD3B20FEF7C6FD002205214620FEF73F
:10380000CFFDBDE808404620FEF7BCBD3038024081
:1038100010B59CB01C22164915A8FCF761FE0021CA
:1038200015A803F0CCFC134C20601C2210491C315D
:103830000EA8FCF755FE00210EA803F0C0FC606046
:103840001C220B49383107A8FCF74AFE002107A8C3
:1038500003F0B5FCA0601C22054954316846FCF712
:103860003FFE0021684603F0AAFCE0601CB010BDDA
:10387000708B000800000020F0B587B0142102A86A
:10388000FCF782FE3948016841F04001016001689F
:1038900001F040010191016841F0020101600168FD
:1038A00001F002010191016841F00101016001682C
:1038B00001F001010191016841F008010160016816
:1038C00001F008010191016841F004010160016803
:1038D00001F004010191016841F08001016001687B
:1038E00001F080010191016841F020010160006850
:1038F00000F0200001901E4F012210213846FEF7F3
:10390000A9FC1C4E012211463046FEF7A3FC1020F4
:1039100002900124039404940225059502A93846D7
:10392000FEF7B0FB302002904FF404100390049493
:1039300002A91148FEF7A6FB02940394049405958E
:1039400002A93046FEF79EFB002205210A20FEF761
:1039500027FD0A20FEF716FD002205211720FEF79D
:103960001FFD1720FEF70EFD07B0F0BD30380240F6
:1039700000000240000402400008024010B5104858
:103980000E4901604FF48271416000218160C16085
:103990000222026101224261520282611822C26146
:1039A0000162416281620A21C162FFF72BF800289F
:1039B00003D0BDE81040FDF783BD10BD00300140CD
:1039C000580D002010B588B01C2101A8FCF7DCFDC3
:1039D00014481349016000244460846041F2873137
:1039E000C16004618461FFF7F2F908B1FDF768FD79
:1039F0000C48FFF7A0FB08B1FDF762FD60200190C5
:103A0000029403940594002201A90648FFF727FBBE
:103A100008B1FDF755FD0348FFF7F6FA08B010BDF1
:103A200000440140700E002010B50C480A490160A6
:103A30004FF4E131416000218160C16001610C22DD
:103A400042618161C161FFF7C1FC002803D0BDE87C
:103A50001040FDF735BD10BD00100140B80E00202C
:103A600010B50E480C4901600D4941604FF480517A
:103A700081604900C160C91001610C2141610021D0
:103A80008161C161FFF7A2FC002803D0BDE81040AE
:103A9000FDF716BD10BD000000480040000F0020DB
:103AA000A086010010B50C480A4901604FF4E131CD
:103AB000416000218160C16001610C22426181612D
:103AC000C161FFF783FC002803D0BDE81040FDF77B
:103AD000F7BC10BD00140140480F0020FEE770B590
:103AE00004460D4628784FF6FF7692281CD01CDC41
:103AF000302858D0312870D0902815D16168687965
:103B0000C881616806EA0020C8812A79616810438B
:103B1000C8816168E8790882616806EA0020088245
:103B2000AA7961681043088270BD9A282CD0A12818
:103B3000FAD16168687881F820006168E8780881C6
:103B4000616800020881AA786168104308812046F4
:103B500001F0A6F8616868794881616800024881CF
:103B60002A796168104348816168E87988816168D1
:103B700006EA00208881AA7961681043888120467E
:103B8000BDE87040FDF782BC6168687881F820006C
:103B9000A878E97840EA0120616848846168E8799A
:103BA00081F8240070BD6168A87881F825006168FB
:103BB000E87881F826006168287981F82700616833
:103BC000687981F828006168A87981F8290061681E
:103BD000E87981F82A0070BDFFE76168A87881F86C
:103BE00025006168E87881F826006168287981F805
:103BF00027006168687981F828006168A87981F8F0
:103C000029006168E87981F82A00E4E770B5044684
:103C10000025A06840F80E5F4560902907D09229E2
:103C200009D0A1290AD1A168A120887306E0A16862
:103C30009020887302E0A168922088732068A268AF
:103C4000D0E901100E32FDF7E5F9A06840F80E5FEB
:103C5000456070BDDFED120A60EE200A9FED111A7B
:103C600080EE810A104910EE100A884202DDB3EEA0
:103C7000080A06E010EE100A10F1795F01D9BBEED8
:103C8000080AB3EE081AC0EE010A9FED080A20EEFA
:103C9000800ABDEEC00A10EE100A00B270470000A4
:103CA00000001C43AE4755410000C0410050C346D0
:103CB00070B50446002C22D0204601F035FBA168E7
:103CC000A1208873A0680025C573A0680574A0684A
:103CD0004574A068017A8174A0680189090AC174D9
:103CE000A0680575A06845752068A268D0E9011034
:103CF0000E32FDF78FF9A06840F80E5F456070BD89
:103D000010B500F069FE00F0ABFDBDE810400148C1
:103D100000F0B8BF7C01002010B500F00FF800F0F3
:103D2000A5F9054840688078002803D1BDE8104017
:103D300000F01CB910BD00007C01002010B500F09F
:103D400005F8BDE8104000F013B9000010B5264B8F
:103D50002849264C5868DFED260A90ED060A486887
:103D600010EE102AA24208DD9FED231A31EE400A20
:103D700030EE200A80ED020A03E030EEC00A80ED4A
:103D8000020A1E48DFED1E0A426892ED060ACA6862
:103D900030EE600A82ED020A5A68F4EE000A9FEDE6
:103DA000191AB2F90A2000EE102A4A68B8EEC00AC1
:103DB00020EE200A20EE012AB3EE0E0AC2EE001A0F
:103DC000C2ED001A4068B0F90A0001EE900AC86816
:103DD000F8EEE11A61EEA00A60EE810A80EE801A28
:103DE00080ED001A10BD0000C8010020DA0F494024
:103DF000AE47213F18090020DA0FC9409801002082
:103E00005C8F3240DA0F494070B52DED028B504C7B
:103E10004E4D606895ED020A80ED010A9FED4D8AD6
:103E2000606880ED008A606803F0A8FC206895ED6A
:103E3000020A80ED010A206880ED008A206803F004
:103E40009DFC4548454A464D4068A4F108068078E7
:103E500001280ED09FED430A04F11000016881EDA6
:103E6000020A806880ED020A3F4B9878012820D032
:103E700059E0206890ED080A3068D0ED080A906893
:103E800030EE200A80ED000A5169344888476068A6
:103E9000D0ED080A706890ED080AA86830EEC00AF4
:103EA00080ED000A69692E48BDEC028BBDE87040C8
:103EB00008472749B7EE080A10394868D0ED0B0AC1
:103EC00080EE801A80ED0B1A0968D1ED0B0A80EEA6
:103ED000801A81ED0B1AD0ED0F0A80EE801A80ED6A
:103EE0000F1AD1ED0F0A80EE801A81ED0F1A70685B
:103EF000D0ED0B0A80EE801A80ED0B1A3168D1EDFF
:103F00000B0A80EE801A81ED0B1AD0ED0F0AB0EE8D
:103F1000040A80EE801A80ED0F1AD1ED0B0A80EEB4
:103F2000801A81ED0B1A00209870906880ED008A4D
:103F300051690A488847A86880ED008A696908487D
:103F4000BDEC028BBDE8704008470000D450002053
:103F500008090020000000007C010020C8010020AA
:103F600098010020CDCCCC3DB40A002000F084BCE8
:103F700070B5002434480068B0F9060000F10A0169
:103F8000142900D9044600F0BDF83048304D80783F
:103F9000012838D000EE104ADFED2E1A9FED2E2AB0
:103FA000F8EEC00A286880EEA10A20EE020A80ED31
:103FB000000A28689FED291AD0ED020A40EE010A96
:103FC000C0ED020A00EE104AA868B8EEC00AC0EEC2
:103FD000210A20EE820A80ED000AA868D0ED020ACC
:103FE00040EE010AC0ED020A28681D499FED1D1A26
:103FF00090ED020ADFED1C0A10EE102A8A4205DD60
:10400000B0EE410A09E000F095F8EDE7B5EEC00A20
:10401000F1EE10FA01D2B0EE600A80ED020AA86853
:1040200090ED020A10EE102A8A4202DDB0EE410A3B
:1040300006E0B5EEC00AF1EE10FA01D2B0EE600A69
:1040400080ED020A70BD00007C010020B40A00204F
:104050001809002000007A433333B33E6F12833ACD
:104060003333333F3333333F0000000070B52DED61
:10407000028BB6EE008A224CA4F12005606890ED18
:10408000020AE068D0ED020A286830EE200A20EE2D
:10409000080A80ED010A206890ED020A286880ED88
:1040A000000A6068A4F1180690ED000A306880EDFF
:1040B000010A31462846FFF723FB606890ED020AAB
:1040C000E068D0ED020A686830EE200A20EE080AA7
:1040D00080ED010AA06890ED020A686880ED000A90
:1040E000E06890ED000A706880ED010A311D281D1E
:1040F000FFF706FBBDEC028BBDE87040FFF784BE06
:1041000018090020084B0948B3F900200068002A6C
:1041100007D0B0F90A10914203D0012901D1044A15
:104120009170408918807047F00800207C010020C1
:10413000B40A00202DE9F0472DED068BB6EE00AA5B
:10414000714F786890ED020AF868D0ED020A30EEFF
:10415000200A20EE0A0A10EE100A04F08DFC41EC51
:10416000180BDFF8A8910026A7F1280899F802009B
:10417000012805D0C8F80460BDEC068BBDE8F087C7
:10418000614DD8F80400203DB7EE089A05F1080407
:10419000F0EE049A10B101284FD065E03E68B8688F
:1041A00096ED020AD0ED020A30EE200A20EE0A0A4D
:1041B00010EE100A04F060FCC8E908019FED540AF3
:1041C00086ED020AB86880ED020A0120C8F80400F2
:1041D000686890ED0B0A20EE090A80ED0B0A296849
:1041E00091ED0B0A20EE090A81ED0B0A90ED0F0A02
:1041F00020EE090A80ED0F0A91ED0F0A20EE090A60
:1042000081ED0F0A606890ED0B0A20EE090A80ED3F
:104210000B0A216891ED0B0A20EE090A81ED0B0AC9
:1042200090ED0F0A20EE290A80ED0F0A91ED0B0A9E
:1042300020EE290A81ED0B0A9EE79FED360B51EC2B
:10424000180B53EC102B04F01FFA0DD238689FEDB9
:10425000330A80ED020AB86880ED020AD8F804003B
:10426000401CC8F8040087E7D8F80400022883D16E
:1042700051EC180B9FED2A0B53EC102B04F0CAF8ED
:10428000DAD298ED080B51EC100B03F085FE39687B
:104290008860B9688860C8F8046089F80260686856
:1042A00090ED0B0AC0EE090AC0ED0B0A296891EDEA
:1042B0000B0AC0EE090AC1ED0B0A90ED0F0AC0EE21
:1042C000090AC0ED0F0A91ED0F0AC0EE090AC1ED0F
:1042D0000F0A606890ED0B0AC0EE090AC0ED0B0AE8
:1042E000216891ED0B0AC0EE090AC1ED0B0A90EDB1
:1042F0000F0AC0EE290AC0ED0F0A91ED0B0AC0EEBD
:10430000290AC1ED0B0A37E718090020B40A00207A
:104310003333333F000000C0CCCCE43F000000004A
:10432000000000A09999A93F2DE9F0436B4A6D4D1B
:104330006B4C6D4EE86894ED000AD0ED010A30EE4A
:10434000600A10EE101A9FED692A694FDFED691AB5
:10435000B14202DDB0EE420A05E010EE101AB94299
:1043600001D9B0EE610AD2ED000A90ED001A4FF0CB
:10437000804860EE200A94ED020A4FF0404930EE8A
:10438000410A10EE101A414502DDB0EE000A05E0C8
:1043900010EE101A494501D9B8EE000A92ED011A43
:1043A000554B41EE000AC3ED000A92ED020AD4ED2E
:1043B000050A94ED061A20EE200AD2ED030A00EE5B
:1043C000810A83ED010A94ED030AD0ED030A30EE71
:1043D000600A00F07FFBE86894ED041AD0ED020A51
:1043E00070EEC10A92ED051A60EE810A92ED041A90
:1043F00041EE400AC3ED020A93ED000A93ED011A63
:1044000030EE010A30EE200AB1EE400A83ED060AD2
:1044100094ED000AD0ED010A30EE600A10EE101A99
:10442000B14202DDB0EE420A05E010EE101AB942C8
:1044300001D9B0EE610AD2ED060A90ED001A60EEE5
:10444000200A94ED020A30EE410A10EE101A41459E
:1044500002DDB0EE000A05E010EE101A494501D960
:10446000B8EE000A92ED071A41EE000AC3ED030A06
:1044700092ED080AD4ED050A94ED061A20EE200A02
:10448000D2ED090A00EE810A83ED040A94ED030AD5
:10449000D0ED030A30EE600A00F01CFBE86894EDF2
:1044A000041AD0ED020A70EEC10A92ED0B1A60EE0A
:1044B000810A92ED0A1A41EE400AC3ED050A93ED16
:1044C000030A93ED041A30EE010A30EE200AB1EE31
:1044D000400A83ED070ABDE8F0830000B40700201E
:1044E0001C510020B40A0020CDCCCC3ECDCCCC3E1B
:1044F000CDCCCCBECDCCCCBEEC50002070B52DEDDB
:10450000028B24489FED240A254C4068D0ED120A06
:1045100080EE801AF0EE000A61EE201A9FED1F1A5D
:1045200061EE811AC4ED001A90ED102A1D49C2EE09
:10453000001A21EEA02AD1ED001A42EE011AC4EDB4
:10454000011AD0ED111A81EE802A22EE200A20EE07
:10455000010A84ED020A144D95ED020A84ED030A66
:104560009FED128AD5ED010A94ED040AB0EE481AC7
:1045700002F0B0FA84ED040AD5ED000A94ED050AC4
:10458000B0EE481A02F0A6FA84ED050ABDEC028BE3
:1045900070BD0000280100200000B443DA0F49403C
:1045A000D4500020A80A00206C4E0020CDCCCC3D79
:1045B00010B500F011F900F075F800F0ABF90448FF
:1045C000D0ED060A90ED070ABDE8104000F014BADD
:1045D000EC5000201C4A10465178C068012911D0C7
:1045E00091689FED1A1AB1F9021000EE101AB8EE98
:1045F000C00AC0EE010A9FED160A20EE800A80ED87
:10460000000A15E01349497821B1012907D0022990
:104610000AD00DE09FED100A80ED000A08E09FED42
:104620000F0A80ED000A03E09FED0D0A80ED000AFD
:10463000D0689FED0C1A90ED010AD0ED000A00EE53
:10464000810A80ED010A7047B40A00200000FA4395
:10465000CDCC4C3F8850002000000000CDCC4C3E1B
:10466000CDCC4CBE6F12833A0B490C4A0878002817
:1046700004D09FED0B0A82ED000A70478888401C29
:1046800080B28880B2EE040A82ED000AB0F57A7F2B
:10469000F3D3012008707047B40A0020880000207E
:1046A000CDCCCC3DFFF740BE30B5194C002320687F
:1046B000B0F90020174802F10A05142D816801D8CD
:1046C0000B8000E00A802168B1F9021001F10A02B2
:1046D000142A02D881684B8001E0826851802168E9
:1046E000B1F9041001F10A02142A02D881688B8002
:1046F00001E0826891802168B1F9061001F10A0297
:10470000142A02D88068C38030BD8068C18030BD63
:104710007C010020B40A002000B5294A10465178D7
:10472000C06801291AD091689FED261AB1F90010CE
:1047300000EE101AF8EEC00A80EE810AF8EE080AC0
:1047400020EE200A80ED020AD0689FED1F1AD0EDFE
:10475000030A40EE010AC0ED030A27E01B494B782B
:10476000032B23D1D1F8031000EE101A80ED030AB9
:104770001749D068D1ED030A30EE600AB5EEC00AE1
:10478000F1EE10FA04DDB7EE080A80ED020A0DE042
:10479000B5EEC00AF1EE10FA04D2BFEE080A80EDC1
:1047A000020A03E09FED0B0A80ED020AD06890ED4B
:1047B000030A00F023F8D06880ED030A00BD000072
:1047C000B40A00200000FA436F12833A8850002098
:1047D0001C5100200000000010B5FFF745FFFFF757
:1047E0008DFE00F055F8FFF75FFF00F09FF8FFF730
:1047F000F1FEBDE81040FFF78FBF0000B5EEC00A24
:10480000F1EE10FA02DDF0EE400A01E0F1EE400AAE
:1048100010EE900A0A49884211DDB5EEC00AF1EEA9
:1048200010FA01DD012001E04FF0FF30400000EE02
:10483000900A9FED041AF8EEE00A00EEC10A7047F4
:10484000DA0F4940DA0F494010B50448416A8847F9
:1048500002483030416ABDE8104008479801002006
:1048600010B50448016A884702483030016ABDE843
:10487000104008479801002010B50448C1698847D6
:1048800002483030C169BDE8104008479801002057
:1048900010B500F067F81A4C94ED0A0AD4ED090A35
:1048A00030EE600ADFED170A20EE200A84ED000AE0
:1048B00084ED070AD4ED080A9FED131A30EE600A62
:1048C000C0EE010A94ED020A9FED101A02F002F9FF
:1048D00084ED020A94ED070A84ED080A0C4890ED75
:1048E000000A84ED030A90ED030A84ED040A90EDBA
:1048F000010A84ED050A90ED040A84ED060A10BD54
:104900001C5100205839B43C6F12833A0AD7233C1B
:10491000D4500020034804490068C1F8030001F0A6
:1049200051B80000D4500020AA0700200C480B4BBF
:104930000068B3F9041003F10802B0F9100000296F
:1049400005D0884203D0012801D1012151700128EE
:1049500001D000215170988070470000AC0A0020FF
:104960007C01002010499FED111A124891EDB80A00
:10497000B8EEC00A60EE010AB0EE000A60EE801ADE
:10498000DFED0B0A61EEA01AC0ED0A1AD1ED041A90
:10499000F8EEE11A21EE811A21EE000A20EE200A3B
:1049A00080ED090A7047000008020020000000396D
:1049B000DA0F49401C51002010B5064C2046D4F8AF
:1049C000A012884704F53470D4F87015BDE8104083
:1049D000084700000802002010B5064C2046D4F815
:1049E0009C12884704F53470D4F86C15BDE810406B
:1049F000084700000802002070B5F0EE601A2DEDA7
:104A0000028BFFF727F92C4A404210802B4B58802D
:104A1000B0EE610AFFF71EF9508018802848274C35
:104A2000002540689FED278A274E8178083440F2A0
:104A3000FF10012902D12178012918D01580558055
:104A40001D49FCF769FAE06880ED008AE06896EDA0
:104A5000000A80ED010AE06896ED030A80ED030A82
:104A6000E06880ED028A6570BDEC028B70BD17496D
:104A70004FF03F4349680968994204D9144949688D
:104A80000968994211D8E16881ED008AE16896EDE4
:104A9000000A81ED010AE16896ED030A81ED030A3F
:104AA000E16881ED028A158055800349BDEC028BD7
:104AB000BDE87040FCF730BA70010020AC0A00205D
:104AC0007C010020000000001C510020C8010020D3
:104AD00098010020B5EEC00AF1EE10FA02DDF0EE0A
:104AE000400A01E0F1EE400A10EE900A0A498842BD
:104AF00011DDB5EEC00AF1EE10FA01DD012001E092
:104B00004FF0FF30400000EE900A9FED041AF8EEDF
:104B1000E00A00EEC10A7047DA0F4940DA0F494057
:104B2000FEE70000002814D0D0ED101AC0ED111AD5
:104B300090ED0F1A80ED101AC0ED060A80ED070AFD
:104B400030EEC00A80ED0F0A017829B1012952D058
:104B500092E09FED4B0A7047D0ED010A60EE801A9B
:104B6000C0ED091AD0ED0A0A90ED022A42EE000AC1
:104B7000C0ED0A0A90ED0D2A80ED0E2A90ED0C2A68
:104B800080ED0D2A30EE410A80ED0C0A90ED031AFB
:104B900021EE001A80ED0B1A90ED050AF4EEC00A22
:104BA000F1EE10FA02DD80ED0A0A08E0B1EE400AEB
:104BB000F4EEC00AF1EE10FA01D280ED0A0A90ED8F
:104BC0000A0A31EE800A30EE010A80ED080AD0EDC3
:104BD000040AB4EEE00AF1EE10FA02DDC0ED080AB4
:104BE0004AE0F1EE600AB4EEE00AF1EE10FA43D2C8
:104BF000C0ED080A40E070EE410A90ED012A60EE37
:104C0000820AC0ED090A90ED022A22EE002A80ED08
:104C10000A2AD0ED0D2AC0ED0E2AD0ED0C2AC0EDE7
:104C20000D2AF0EE002A01EE620A30EE210A80ED34
:104C30000C0A90ED031A21EE000A80ED0B0A70EECB
:104C4000820A30EE800AD0ED080A30EE200A80EDAC
:104C5000080AD0ED040AB4EEE00AF1EE10FA02DD23
:104C6000C0ED080A08E0F1EE600AB4EEE00AF1EEE9
:104C700010FA01D2C0ED080A90ED080A7047000052
:104C80000000000010B50446206802F001FD6068D5
:104C900002F067FD2068BDE8104002F067BD00002B
:104CA00001689FED280A097800291AD00129DFED53
:104CB000260A2DD0022913D14168B1F9082001EE4E
:104CC000102AB8EEC11A21EE000A20EE200A81ED6A
:104CD000010ADFED1E0A406820EE200A80ED000A7E
:104CE00070474168B1F9082000EE902AF8EEE00A1A
:104CF00020EE800ADFED160A20EE200A81ED010A7F
:104D0000DFED140A406820EE200A80ED000A7047AB
:104D10004168B1F9082001EE102AB8EEC11A21EE5F
:104D2000000A20EE200A81ED010ADFED0B0A40683F
:104D300020EE200AF1EE080A20EE200A80ED000A9B
:104D4000704700000000003A000004421F858B3FBE
:104D5000000084410AD7A33E8FC2753E7CB504464D
:104D60000E4615463346012202212046009500F0EA
:104D700033F828B1606D40F02000606503207CBDF1
:104D8000134814490068B0FBF1F04FF47A714843BE
:104D900001906068B0F5827F0DD1334600228021FA
:104DA0002046009500F018F878B1606D40F02000C2
:104DB000606503207CBD019838B10198401E0190C8
:104DC00020688068C0430006F5D500207CBD000047
:104DD0001C00002000366E012DE9F84304460F4602
:104DE00091461E46089DFDF73DFA401B351AFDF71A
:104DF00039FA804626480068C0F3CB3068430090FB
:104E00003AE0701C38D0FDF72DFAA0EB0800A8425C
:104E100003D215B1009858B32BE02068416821F007
:104E2000E00141606068B0F5827F0BD1A068B0F509
:104E3000004F02D0B0F5806F04D12068016821F0E6
:104E400040010160A06AB0F5005F09D120680168E7
:104E500021F4005101602068016841F400510160B3
:104E6000012050346070002020700320BDE8F883DA
:104E700000250098401E00902068806837EA0000F6
:104E800004D000204845BCD10020EFE70120F9E71D
:104E90001C000020084901610849416108498161FD
:104EA0000849C16108494162084981620849C162F3
:104EB000C0686421416070470D3C0008B13C0008A7
:104EC000DF3A0008294F000827370008D54E0008B0
:104ED000F34E00088168002241F80E2F4A60826874
:104EE0009A219173826800680E32D0E90110FCF7B4
:104EF00091B88268002342F80E3F536000290FD01A
:104F000082683221917381688A7A0A758168CA7AC7
:104F10004A75826800680E32D0E90110FCF77AB851
:104F2000826831219173EEE700280FD08268A121B9
:104F300091738168002241F80F2F8A808A718268FC
:104F400000680E32D0E90110FCF764B87047012008
:104F500002F028F9FBE7000010B5502080F311881B
:104F6000BFF34F8FBFF36F8F02F03CFF18B10449BE
:104F70004FF080500860002080F3118810BD0000C1
:104F800004ED00E030B593B0302107A8FBF7FCFA40
:104F9000142102A8FBF7F8FA00251D48016841F02A
:104FA00080510160006800F080500190194801684C
:104FB00041F480410160006800F4804001900120CC
:104FC00007900004089002240D9480010E900620A2
:104FD0000F90A820109011940420129007A8FDF7BC
:104FE00031FB08B1FCF76CFA0F2002900394049592
:104FF0004FF4A05005904FF480500690052102A870
:10500000FDF700FA002801D0FCF75AFA13B030BDC2
:1050100040380240007000400248016841F47001CD
:105020000160704788ED00E00148FDF750BF0000C7
:10503000B01000202DE9F04102682A4D2A4E2B4F76
:10504000DFF8ACC02B4B4FF08048A84209D0404558
:1050500007D0B04205D0B84203D0604501D0984295
:1050600003D122F070044A682243A8421BD0404575
:1050700019D0B04217D0B84215D0604513D098422D
:1050800011D01D4CA0420ED01C4CA0420BD01C4C89
:10509000A04208D01B4CA04205D01B4CA04202D01D
:1050A0001A4CA04203D122F44074CA6822434C69CE
:1050B00022F08002224302608A68C2620A68826229
:1050C000A84201D0984201D10969016301214161DF
:1050D0000169C90703D0016921F001010161BDE83F
:1050E000F081000000000140000400400008004082
:1050F000000C004000040140004001400044014019
:105100000048014000180040001C00400020004002
:10511000F0B5056A026A22F0010202624368826900
:1051200022F0700222F003020C68144325F00205FD
:105130008A682A430E4E0F4FB04201D0B84205D1C3
:1051400022F00805CA682A4322F00402B04201D0C6
:10515000B84207D123F4807323F400734D691D43D3
:105160008B692B4343608461496841630262F0BDEF
:105170000000014000040140F0B5026A036A23F018
:10518000100303624368846924F4E04424F4407407
:105190000D6844EA052422F020028D6842EA0512D7
:1051A000104D114EA84201D0B04206D122F080022B
:1051B000CF6842EA071222F04002A84201D0B04272
:1051C00009D123F4806323F400634D6943EA850326
:1051D0008D6943EA850343608461496881630262A3
:1051E000F0BD00000000014000040140F0B5026A7B
:1051F000036A23F4807303624368C46924F0700473
:1052000024F003050C682C4322F400728D6842EAF6
:105210000522104D104EA84201D0B04206D122F412
:105220000062CF6842EA072222F48062A84201D0DD
:10523000B04209D123F4805323F400534D6943EA6B
:1052400005138D6943EA05134360C4614968C1636E
:105250000262F0BD000001400004014030B5036A65
:10526000026A22F4805202624268C46924F4E04473
:1052700024F440740D6844EA052423F400538D6837
:1052800043EA0533084DA84202D0084DA84204D194
:1052900022F480424D6942EA85124260C461496845
:1052A0000164036230BD00000000014000040140C1
:1052B000064C01F03FFC206001F03CFC2168401AE4
:1052C0006060012001F06EFFF3E70000CC0A0020CF
:1052D000094C094801F05EFB606890ED000AFEF79A
:1052E000EBF9FFF7B1FAFFF767FB044802F02EFA7B
:1052F000012001F057FFECE7280100207C0100208D
:10530000084C01F017FCA060FFF752F9FEF704FD0E
:1053100001F010FCA168401AE060012001F042FF9A
:10532000EFE70000CC0A002001680978DFED400AB1
:10533000002917D001299FED3F1A3BD0022938D10F
:1053400081689FED3D2AD1ED001A81EE820A81ED40
:10535000010A10EE102A394B81689A4254DDB2EEF0
:105360000C0A58E08168DFED361A91ED001A81EEE3
:10537000210A81ED010A10EE102A8168B2F1834FF3
:1053800002DDB3EE000A06E010EE102A12F17A5F99
:1053900001D9BBEE000A81ED010ADFED2A1A80680F
:1053A00080EE211A21EE200ABDEEC00A10EE101A7E
:1053B000018170478168B1EE082A91ED000AC0EEC4
:1053C000021A9FED212A81EE820A81ED010A10EE78
:1053D000102A8168B2F1844F02DD9FED1C0A06E0BD
:1053E00010EE102AB2F1424F01D99FED190A81ED5A
:1053F000010AC0EE011A806821EEA00ABDEEC00AC3
:1054000010EE101A0181704710EE102A114B9A42CB
:1054100001D9BAEE0C0A81ED010AC0EE011A8068CA
:1054200021EEA00ABDEEC00A10EE101A01817047ED
:1054300000000045000004421F858B3F00006041D2
:105440000AD7A33E000084418FC2753E000000428F
:10545000000000C2000060C110B5806B0021C18552
:10546000C184FDF798FE10BD70B5846B206840695B
:10547000C0F3C01094F841100025212904D118B1BF
:10548000E584204600F06FF820684069C0F3801082
:1054900094F84210222904D118B1E585204600F085
:1054A0002EF8606C40F0100060642046FDF773FE3B
:1054B00070BD10B50146886B09680968C90516D426
:1054C0000021C1840168143151E8002F22F08002CC
:1054D00041E80023002BF5D101680C3151E8002F81
:1054E00042F0400241E80023002BF5D110BDFEF749
:1054F000DFF810BD10B5806BFEF7DBF810BD01685A
:105500000C3151E8002F22F4907241E80023002B67
:10551000F5D10168143151E8002F22F0010241E871
:105520000023002BF5D1016B012909D101680C3151
:1055300051E8002F22F0100241E80023002BF5D1A2
:10554000202180F8421000210163704710B50168E6
:10555000CA6822F04002CA60202180F84110FEF79C
:10556000A7F8002010BD01680C3151E8002F22F08F
:10557000C00241E80023002BF5D1202180F8411022
:10558000704708B590F84210222901D0022008BDCA
:1055900082684FF480539A4201D1016921B1816A36
:1055A0009A421DD052B10BE0816A02685268C2F380
:1055B00008020A80816A891C816209E002697AB165
:1055C0000268526802F07F020A70816A491C816297
:1055D000C18D491E0904090CC18505D0002008BDF4
:1055E000026852680A70F0E70168CA6822F0200277
:1055F000CA600168CA6822F48072CA6001684A6998
:1056000022F001024A61202180F84210002141630A
:10561000026B012A03D0FEF70BF8002008BD0163DE
:1056200001680C3151E8002F22F0100241E80023FC
:10563000002BF5D101680A68D20602D50A684968CC
:105640000091818DFDF7A6FDE7E700002DE9F0410F
:10565000044620680169E26821F440511143016168
:10566000A1682069E2690143606910430143206831
:10567000C26849F20C639A430A43C26020684169D8
:10568000A26921F440711143416133492068884285
:1056900002D03249884202D1FCF78EFF01E0FCF7CC
:1056A0007BFFE1690023192764253226B1F5004FFD
:1056B00028D061688B0F8A00A0FB0701FAF754FE1F
:1056C0000146B0FBF5F07A42504301EB800006EB57
:1056D0000010B0FBF5F000F0F002B1FBF5F002EBCA
:1056E0000012B1FBF5F07B42584301EB800006EB62
:1056F0000010B0FBF5F0216800F00F001044886046
:10570000BDE8F08161684A18A0FB07015B41FAF728
:105710002BFE0146B0FBF5F00201B1FBF5F06FF096
:105720001803584301EB800006EBC000B0FBF5F016
:1057300000F0F80002EB4002B1FBF5F0584301EB3A
:10574000800006EBC000B0FBF5F0216800F0070018
:1057500010448860D4E700000010014000140140AC
:1057600090F84110212901D0022070478168B1F5DD
:10577000805F01D1016961B1016A4A1C026202685D
:1057800009785160C18C491E0904090CC1840AD0F2
:1057900013E0016A02680988C1F308015160016AD7
:1057A000891C0162EEE70168CA6822F08002CA60C3
:1057B0000068C16841F04001C160002070470000EE
:1057C00010B50448FDF7E8FCBDE810400148FBF7C0
:1057D0004CBE0000B80E002082B00B4A1068016871
:1057E00041680191C16841F01001C16010684169D0
:1057F00041F0400141611168D06B091D6423034AE7
:1058000002B0FBF700BE0000B80E0020F04E0020F2
:1058100000F0BAB810B50448FDF7BEFCBDE8104072
:105820000148FBF722BE0000000F002008B50C4A1B
:105830001068016841680091C16841F01001C160C1
:105840001068416941F040014161192000901168E0
:10585000044BD06B091DA3F11F02FBF719FC08BD17
:10586000000F0020734F002010B504466078A17827
:1058700040EA0120C0F30A0124480180A178E278BF
:10588000C90841EA4211C1F30A014180E178227955
:10589000890941EA8201627941EA8221C1F30A0160
:1058A00081806179A279490841EAC211C1F30A01F4
:1058B000C180A179E279090941EA0211C1F30A0123
:1058C0000181E179227AC90941EA4201627A41EA19
:1058D0004221C1F30A014181617AA27A890841EA31
:1058E0008211C1F30A018181A17AE27A490941EA70
:1058F000C201C181192221462030FAF7ACFD2146B0
:10590000BDE81040024801F0CDBE0000924F0020DB
:105910007C010020FEE7000030B505460C46002D56
:1059200001D0022C01D8002030BD0A48A11E0288F7
:105930002846FBF7C7FD2919C2B211F8023C9A426A
:1059400006D111F8011CB1EB102F01D1012030BD9F
:10595000002030BDA807002030B505460C46002DBC
:1059600001D0022C01D8002030BD601E81B2FF2280
:105970002846FBF7BFFD291911F8011C814201D10E
:10598000012030BD002030BD10B504462078A52888
:105990000BD103212046FFF7DFFF012805D10921A4
:1059A0002046FFF7B9FF012801D0002010BD0449AF
:1059B0002068086060684860207A0872012010BD85
:1059C0008850002010B50D490B480A6802604A68EB
:1059D0004260097A01720321FAF7BCFE09210648E8
:1059E000FAF7A2FE092204490548FDF723FE08B193
:1059F000002010BD012010BD91500020AA070020FA
:105A0000B80E002003B401984100009850EAC1206C
:105A100018BF04204A0D18BF40F0010040F2FF7289
:105A2000B2EB515F08BF40F00200012808BF05201B
:105A300002B070470907090E002804DB00F1E020DE
:105A400080F80014704700F00F0000F1E02080F8AB
:105A5000141D70470000000070B5C1482DED020B09
:105A60002DED0E8B82B0119D25F000449FEDBEDB25
:105A70009FEDBFEB84423EDBA4F140511098A1F1B1
:105A80007F6108430FD0BC48844202DC28D11098C3
:105A900030B39DED100B02B0BDEC0E8B02B0BDE833
:105AA000704000F069BC9DED100B53EC1D2B51ECC8
:105AB000100B02F0EBFC9DED100B41EC180B53ECBE
:105AC0001E2B51EC100B02F0E1FC53EC182B02F0F2
:105AD00095FA41EC100B02B0BDEC0E8B02B070BD1C
