:020000040800F2
:10000000A089002029030008093000084D2A0008B3
:10001000592D000889090008193B0008000000005C
:10002000000000000000000000000000690200085D
:100030008B0B000800000000C502000871350008A5
:100040004303000843030008430300084303000878
:100050004303000843030008430300084303000868
:1000600043030008430300088D0B00084303000806
:100070004303000843030008430300084303000848
:100080004303000843030008430300084303000838
:10009000B50900084303000843030008970B000854
:1000A0004303000843030008430300084303000818
:1000B000B536000843030008430300084303000863
:1000C00043030008430300084303000843030008F8
:1000D00043030008430300084303000843030008E8
:1000E00043030008430300084303000843030008D8
:1000F00043030008430300084303000843030008C8
:1001000043030008430300084303000843030008B7
:1001100043030008430300084303000843030008A7
:100120004303000843030008430300084303000897
:100130004303000843030008430300084303000887
:100140004303000843030008430300084303000877
:100150004303000843030008430300084303000867
:100160004303000843030008430300084303000857
:100170004303000843030008430300080000000095
:10018000430300084303000800F002F800F05CF8A5
:100190000AA090E8000C82448344AAF10107DA45E2
:1001A00001D100F051F8AFF2090EBAE80F0013F0D8
:1001B000010F18BFFB1A43F001031847C054000099
:1001C000E05400000A444FF0000C10F8013B13F01B
:1001D000070408BF10F8014B1D1108BF10F8015BA0
:1001E000641E05D010F8016B641E01F8016BF9D193
:1001F00013F0080F1EBF10F8014BAD1C0C1B09D1EA
:100200006D1E58BF01F801CBFAD505E014F8016B5B
:1002100001F8016B6D1EF9D59142D6D370470000ED
:100220000023002400250026103A28BF78C1FBD8FF
:10023000520728BF30C148BF0B6070471FB505F09B
:10024000DDF91FBD10B510BD00F080F91146FFF7B4
:10025000F5FF03F0A3FE00F09EF903B4FFF7F2FFF1
:1002600003BC00F0A5F900002C4B19680868B0E841
:10027000F04F80F30988BFF36F8F4FF0000080F3D9
:10028000118870470000000008480068006880F38B
:1002900008884FF0000080F3148862B661B6BFF39F
:1002A0004F8FBFF36F8F00DF00BF00BF08ED00E08E
:1002B000DFF80C00016841F470010160704700BF75
:1002C00088ED00E0EFF30980BFF36F8F134B1A68DE
:1002D0001EF0100F08BF20ED108A20E9F04F1060CB
:1002E00009B44FF0500080F31188BFF34F8FBFF374
:1002F0006F8F04F047FF4FF0000080F3118809BCB6
:1003000019680868B0E8F04F1EF0100F08BFB0EC95
:10031000108A80F30988BFF36F8F70475400002064
:10032000EFF30580704700000948804709480047FF
:10033000FEE7FEE7FEE7FEE7FEE7FEE7FEE7FEE795
:10034000FEE7FEE704480549054A064B70470000F2
:100350005136000889010008A0490020A08900202A
:10036000A0690020A069002053EA020C00F0698017
:100370002DE9F04B4FF00006002B1FBFB3FA83F5B9
:1003800003FA05F424FA05F65E4012BF1643B2FAEA
:1003900082F502FA05F4C5F120051EBF22FA05FC1C
:1003A00044EA0C04203556EA044C4FEA144418BFC2
:1003B000641C4FF000084FF00009904271EB030CF1
:1003C00039D3002919BFB1FA81F701FA07F6B0FA5B
:1003D00080F700FA07F6C7F120071EBF20FA07FCD6
:1003E00046EA0C062037B6FBF4FCA7EB0507103FE6
:1003F00007F01F0BCBF120060CFA0BFB2CFA06F6CC
:1004000044BFB3460026202FA4BF5E464FF0000B2A
:100410005BEA060C08BF4FF0010B19EB0B09ABFBB5
:10042000027C48EB0608C01B06FB02CC0BFB03CC8E
:1004300071EB0C01C1E70B46024641464846BDE858
:10044000F08B13B54FF000004FF00001AFF30080C8
:10045000BDE81C40704710B5431C02E010F8011BBA
:1004600071B18107FAD14FF0013202C88C1A8C4366
:1004700014EAC211F9D0C01A0A0603D0C01E10BD7A
:10048000C01A10BD0A0401D0801E10BD0902FCD0A4
:10049000401E10BD10B5203AC0F00B80B1E81850D6
:1004A000203AA0E81850B1E81850A0E81850BFF45E
:1004B000F5AF5FEA027C24BFB1E81850A0E81850FD
:1004C00044BF18C918C0BDE810405FEA827C24BF51
:1004D00051F8043B40F8043B08BF7047D20728BFDF
:1004E00031F8023B48BF11F8012B28BF20F8023B2E
:1004F00048BF00F8012B70474FF0000200B51346CB
:1005000094469646203922BFA0E80C50A0E80C5033
:10051000B1F12001BFF4F7AF090728BFA0E80C50E4
:1005200048BF0CC05DF804EB890028BF40F8042BDD
:1005300008BF704748BF20F8022B11F0804F18BF4A
:1005400000F8012B7047704770477047754600F000
:100550002BF8AE4605006946534620F00700854655
:1005600018B020B5FFF7EEFEBDE820404FF00006C2
:100570004FF000074FF000084FF0000B21F007018B
:10058000AC46ACE8C009ACE8C009ACE8C009ACE8CE
:10059000C0098D46704710B50446AFF30080204671
:1005A000BDE81040FFF759BE0048704740490020A1
:1005B00001491820ABBEFEE726000200704700008C
:1005C0009FED3B1AB0EE410A9FED391AF0EE410A59
:1005D0000168097B012904D0016891F90C10491CBC
:1005E00049B9016891F90C1001EE101AB8EEC11A60
:1005F000F0EE410A03E0B7EE001AF0EE410A41685E
:1006000091ED071AB5EEC01AF1EE10FA0CD141685F
:1006100091ED051AB5EEC01AF1EE10FA04D19FED76
:10062000241AB0EE410A08E0416891ED061AD1EDB6
:10063000071A31EE611AB0EE410AB5EEC00AF1EECA
:1006400010FA02DDB0EE401A01E0B1EE401ADFED23
:10065000191AB4EEE11AF1EE10FA1CDDB5EEC00A7B
:10066000F1EE10FA0BDD416891ED051ADFED121A7B
:1006700070EE211A01EEA01A81ED051A12E0416810
:1006800091ED051ADFED0D1A70EE211A01EEA01A98
:1006900081ED051A06E0416891ED051A00EE201A79
:1006A00081ED051A416891ED061A81ED071A704730
:1006B00000000000DA0F4940DA0FC9C0DA0FC94064
:1006C00010B501221021024801F088F810BD000089
:1006D0000000024010B500221021024801F07EF80F
:1006E00010BD0000000002407047000010B501225C
:1006F0001146024801F072F810BD000000040240EB
:1007000010B500220121024801F068F810BD000078
:1007100000040240704710B5044603E04FF47A70BD
:1007200000F006F8201EA4F101018CB2F6D110BD34
:1007300070B5034600BF00BF0020002200BF4FF08D
:10074000E0267569A82603FB06F44FF0E026B169A0
:1007500010E04FF0E026B06988420BD0884202D208
:100760000E1A324402E02E1A0E4432440146A242CE
:1007700000D300E0EDE700BF70BD10B50024FFF727
:10078000B3FFFFF7C7FF03F0C9F9044303F05AFAB8
:100790000443204610BD00002DE9FC4105460E46ED
:1007A0001746002000900190FFF794FF922000F080
:1007B000D1F806226946122000F0ACF8FFF780FF5E
:1007C0009DF80100000200B29DF8001040EA01040B
:1007D00000EE104AB8EEC00A4C48D0ED000A20EEF8
:1007E000200A86ED000A9DF80300000200B29DF881
:1007F000021040EA010400EE104AB8EEC00A434875
:10080000D0ED000A20EE200A86ED010A9DF80500D1
:10081000000200B29DF8041040EA010400EE104A04
:10082000B8EEC00A3948D0ED000A20EE200A86ED65
:10083000020AFFF765FF08226946002000F06AF807
:10084000FFF754FF9DF800000F2838D19DF80300F2
:10085000000200B29DF8021040EA010400EE104AC6
:10086000B8EEC00A2A48D0ED000A20EE200A85ED35
:10087000000A9DF80500000200B29DF8041040EA4D
:10088000010400EE104AB8EEC00A2148D0ED000A7B
:1008900020EE200A85ED010A9DF80700000200B253
:1008A0009DF8061040EA010400EE104AB8EEC00AB6
:1008B0001748D0ED000A20EE200A85ED020AFFF766
:1008C00009FFA22000F046F802226946222000F02B
:1008D00021F8FFF7F5FE9DF80000C0009DF801101B
:1008E00040EA6114B4F5806F02DBA4F5006004B245
:1008F00000EE104AF8EEC00AB4EE001AB3EE070A92
:1009000000EE810A87ED000ABDE8FC811C00002092
:100910002000002070B506460C46154646F08000C3
:1009200000F018F806E0552000F014F82070641C60
:10093000681EC5B2002DF6D170BD70B504460D46D7
:1009400044F0800000F006F8552000F003F828700D
:1009500070BD000001B582B04FF47A70012301AA86
:1009600002A90090024801F0B7FC9DF804000EBDFA
:100970005809002070B505460C462846FFF7EAFFE7
:100980002046FFF7E7FF70BD00BFFEE700B58BB064
:1009900001A800F04FF801A9054800F0ADF90221C7
:1009A000034800F01EF9024800F02FFD0BB000BD17
:1009B0003009002010B5024800F0EDFA10BD00002B
:1009C0003009002070B504460D46A4F24110F8B17C
:1009D000012814D0C42802D0C52822D106E012482C
:1009E00008222946D0F8AC3298471BE00E4808226E
:1009F0002946D0F87C3500F53470984712E00B4852
:100A000029468269904700200849C968086009E0C2
:100A1000074829468269904700200549C96808604F
:100A200000E000BF00BF70BDBC000020AC0600208D
:100A30006C0600200021016041608160C16001619D
:100A4000416181610121C161016200214162704700
:100A500001464A780B7842EA0320704701464A79FA
:100A60000B7942EA032210B270470146CA788B78AC
:100A700042EA032210B27047014688797047014666
:100A80004A790B7942EA032210B2704770B588B0F8
:100A900004460D4616460E492068884206D00D4988
:100AA0002068884202D0012008B070BD0295002065
:100AB000049005900820069001AB324602A920461A
:100AC00000F0A1F808B10120EEE70020ECE70000FB
:100AD000006400400068004001680A4BCAB2103A46
:100AE000A3FB02321209084B9B5CC365032A04D99D
:100AF0006FF30901091D816502E06FF3090181654A
:100B0000806D7047ABAAAAAA64560008014600206F
:100B10008A6A8B69002B0FD0B3F5005F1DD08AB3B2
:100B2000012A30D0022A2ED0032A04D1C96A11F03A
:100B3000807F00D0012070471AB1012A07D0022A15
:100B4000F9D1C96A11F0807FF5D001207047C96AD8
:100B5000B1F1C07FFAD1012070475AB1012A0BD000
:100B6000022A07D0032AF7D1C96AB1F1C07FF3D1B5
:100B70000120704701207047C96A11F0807FFAD0C8
:100B800001207047FFE701207047704710B5102023
:100B900000F010FD10BD10B5202000F00BFD10BDC1
:100BA00010B504466068808900EE100AF8EE400A2D
:100BB0009FED091A80EE810AF0EE000A20EE200A6D
:100BC000DFED060A20EE200A606880ED060A204666
:100BD000FFF7F6FC10BD000000FF7F47DA0F494029
:100BE000704790F82020012A07D0022A05D0416AD8
:100BF00041F480214162012070470068426911433D
:100C000041610020704770B490F82040D0F800C0D7
:100C1000DCF808C0012C08D0022C06D0416A41F44F
:100C20008021416270BC012070470CF080640CF0A0
:100C300000652C430CF080552C4355D0CCF3016C4F
:100C4000012404FA0CF41C608B684FF4C0749BB14F
:100C5000CD6804EB0C162B434D6843EAC5030568C9
:100C6000AB514FF4C273066803EB0C130D69F550DA
:100C7000097D012909D00DE00D88CB6804EB0C1625
:100C800043EA45530568AB51EBE70168CD5845F49D
:100C90008075CD501179D379557941EA0361937903
:100CA0001B0443EA052319434FF4C675036805EB9B
:100CB0000C1559511178D37841EA03619378527831
:100CC0001B0443EA022211434FF4C473026803EB8E
:100CD0000C13D150006804EB0C11425842F0010291
:100CE000425070BC00207047416A41F400114162DB
:100CF00070BC01207047000090F82020012A07D026
:100D0000022A05D0416A41F48021416201207047E6
:100D10004248D0F8002242F00102C0F80022D0F888
:100D2000002222F47C52C0F80022D0F800224B6A44
:100D300042EA0322C0F800220A7D012302F01F02CA
:100D400003FA02F2D0F81C329343C0F81C32CB698C
:100D5000D3B9D0F80C329343C0F80C32B1F80CC0C0
:100D60004B686CF31F43D1F814C000EBCC0CCCF8EB
:100D70004032B1F808C00B686CF31F43D1F814C0BF
:100D800000EBCC0CCCF84432CB69012B1AD1D0F853
:100D90000C321343C0F80C32B1F800C04B686CF34E
:100DA0001F43D1F814C000EBCC0CCCF84032B1F8A2
:100DB00008C0CB686CF31F43D1F814C000EBCC0C17
:100DC000CCF844328B697BB1D0F804321343C0F8BD
:100DD00004320B6973B1D0F814321343C0F81432E3
:100DE000096A01290CD010E0D0F804329343C0F80E
:100DF0000432EEE7D0F814329343C0F81432EFE730
:100E0000D0F81C121143C0F81C12D0F8001221F0C7
:100E10000101C0F80012002070470000006400408B
:100E2000704730B490F820C0BCF1010F09D0BCF17C
:100E3000020F06D0416A41F48021416230BC01209A
:100E4000704739B1D0F800C0DCF810C01CF0030FB7
:100E500033D006E0D0F800C0DCF80CC01CF0030F63
:100E600024D04FF4D87C04680CEB011C54F80C40DF
:100E700004F0040494603CB3046854F80C40E408A3
:100E80005460046854F80CC00CF0020CC2F80CC09A
:100E90004FF4DA7C04680CEB011C54F80C5005F09C
:100EA0000F05082D16D30824146118E0416A41F497
:100EB0000011416230BC01207047416A41F40011C9
:100EC000416230BC01207047046854F80C40640D46
:100ED0001460D6E754F80C4004F00F041461046861
:100EE00054F80C40C4F307249461046854F80CC00F
:100EF0004FEA1C4CC2F814C04FF4DC72D0F800C0AA
:100F000002EB01125CF802C083F800C0D0F800C008
:100F10005CF802C04FEA1C2C83F801C0D0F800C076
:100F20005CF802C04FEA1C4C83F802C0D0F800C045
:100F30005CF80220120EDA704FF4DE72D0F800C0B6
:100F400002EB01125CF802C083F804C0D0F800C0C4
:100F50005CF802C04FEA1C2C83F805C0D0F800C032
:100F60005CF802C04FEA1C4C83F806C0D0F800C001
:100F70005CF80220120EDA7139B10068016941F0A3
:100F80002001016130BC002070470068C16841F059
:100F90002001C160F6E72DE9F05F054600242868CE
:100FA0004669D0F804908768D0F80CA0D0F810B04B
:100FB000D0F8188016F0010F54D017F0010F17D099
:100FC0000121816017F0020F03D0284600F050FA8B
:100FD0000EE017F0040F02D04FF4006408E017F0A1
:100FE000080F02D04FF4805402E0284600F03FFA88
:100FF00017F4807F19D029684FF48070886017F447
:10100000007F03D0284600F035FA0EE017F4806F19
:1010100002D044F4005408E017F4006F02D044F406
:10102000804402E0284600F024FA17F4803F19D0EB
:1010300029684FF48030886017F4003F03D02846B9
:1010400000F01AFA0EE017F4802F02D044F40044A6
:1010500008E017F4002F02D044F4803402E0284660
:1010600000F009FA16F0080F07D01AF0100F04D09C
:1010700044F4007429681020C86016F0040F4FF083
:10108000080707D01AF0080F04D02868C760284660
:1010900000F09CF916F0020F07D02868C06810F025
:1010A000030F02D0284600F093F916F0400F07D046
:1010B0001BF0100F04D044F48064296810200861EC
:1010C00016F0200F07D01BF0080F04D02868076126
:1010D000284600F097F916F0100F07D0286800692D
:1010E00010F0030F02D0284600F08DF916F4003FEF
:1010F00008D019F0100F05D0296810204860284644
:1011000000F082F916F4803F07D019F0080F04D0E0
:1011100028684760284600F0B0F916F4004F4AD01E
:1011200019F0040F44D016F4807F04D018F0010F9A
:1011300001D044F0010416F4007F04D018F0020F2F
:1011400001D044F0020416F4806F04D018F0040FAC
:1011500001D044F0040416F4006F29D018F0700F89
:1011600026D008F07000402815D006DC102809D0E1
:1011700020280AD0302816D10AE050280ED0602846
:1011800011D10EE044F008040DE044F010040AE030
:1011900044F0200407E044F0400404E044F08004FC
:1011A00001E044F480742868816921F07001816154
:1011B000296804204860002C05D0686A20436862D2
:1011C0002846FFF72DFEBDE8F09F70B50446002CC1
:1011D00003D094F8200010B104E0012070BD204637
:1011E00000F0A8F82068016841F00101016000F0FA
:1011F000FDFA0546206840684FF0050610F0010F23
:1012000011D100F0F3FA401B0A2807D9606A40F4B4
:101210000030606284F82060012070BD2068406862
:1012200010F0010FEDD02068016821F0020101608B
:1012300000F0DCFA05462068406810F0020F11D07B
:1012400000F0D4FA401B0A2807D9606A40F4003045
:10125000606284F82060012070BD2068406810F052
:10126000020FEDD1207E01283FD02068016821F0D7
:1012700080010160607E01283DD02068016821F076
:1012800040010160A07E01283BD02068016821F068
:1012900020010160E07E012839D02068016841F01A
:1012A00010010160207F012837D02068016821F0FB
:1012B00008010160607F012835D02068016821F0B5
:1012C00004010160E168A068626908432169114373
:1012D00008436168491E08432168C86100206062B4
:1012E000012084F82000002070BD2068016841F0D2
:1012F00080010160BEE72068016841F040010160A3
:10130000C0E72068016841F020010160C2E7206861
:10131000016821F010010160C4E72068016841F014
:1013200008010160C6E72068016841F0040101601E
:10133000C8E7000010B586B00446142101A8FFF7E5
:10134000DBF81F492068884237D100BF0020009099
:101350001C48006840F000701A49086008460068A0
:1013600000F00070009000BF00BF00BF00200090A0
:1013700014481038006840F008001249103908601D
:101380000846006800F00800009000BF00BF03207E
:101390000190022002900020039003200490092075
:1013A000059001A9084800F011F900220521142038
:1013B00000F0D6FA142000F0C5FA06B010BD000007
:1013C0000064004040380240000C024070470000BA
:1013D00010B50446094884420DD1094BA3F11C0203
:1013E00000212046FFF71DFD05491C3908681C3106
:1013F000FFF7E8FA00E010BD00BFFCE7300900206D
:101400007C0B002070477047704770B5044694F815
:101410002000012805D0606A40F4002060620120AD
:1014200070BD022084F820002068016821F00101CD
:10143000016000F0DBF905462068406810F0010FFC
:1014400012D000F0D3F9401B0A2808D9606A40F492
:1014500000306062052084F82000012070BD206803
:10146000406810F0010FECD10020606270BD704741
:101470007047704770477047704770472DE9F041DB
:10148000044600F0B3F90546DCB1022084F83500CB
:10149000002684F834602068016821F001010160B1
:1014A0002068006810F0010F13D000F09FF9401B76
:1014B000052809D920206065032084F83500BDE89F
:1014C000F0810120BDE8F0812068006810F0010F74
:1014D000EBD121680868234A1040A3686268D4F8F9
:1014E00010C01A43E36843EA0C031A4363691A43C2
:1014F000A3691A43E3691A43236A1A431043626AD1
:10150000042A03D1236BE26A1A431043086020685F
:10151000406920F00701606A40EA010501270428BC
:101520000ED1A06A0543E06A50B12046FFF7EEFAFB
:1015300030B14020606584F835700120BDE8F0814D
:10154000206845612046FFF7C7FA94F85C103F22F7
:1015500002FA01F18160666584F835700020BDE80B
:10156000F08100003F8010F010B50446102C16D119
:101570000C480078A0B103F063FF012810D00A499D
:101580000A48006803F054FD0748006840B120068F
:1015900007490860BFF34F8FBFF36F8F00E000BFB4
:1015A00010BD000010000020180000200C000020DA
:1015B00004ED00E010B504490A68024202D0086058
:1015C000FFF7D2FF10BD0000143C01402DE9F84F99
:1015D0000022DFF8FCA1DFF8F4914FF0010E0327A1
:1015E0004FF00F08AAF1040B0EFA02FC0B6803EA95
:1015F0000C0363457ED10C7904F00304012C01D067
:10160000022C14D18568540007FA04F6B543CE685D
:1016100006FA04F42C438460446824EA0C0C0C7928
:10162000C4F30014944044EA0C0CC0F804C0D1F890
:1016300004C037EA0C0C0CD0C4684FEA420C07FA1D
:101640000CF5AC438D6805FA0CFC4CEA040CC0F8B0
:101650000CC091F804C00CF0030CBCF1020F12D1C5
:101660004FEAD20C00EB8C04256A4FEA427C4FEA29
:10167000DC6C08FA0CF6B5430E6906FA0CFC4CEA71
:10168000050CC4F820C004684FEA420C07FA0CF5B8
:10169000AC430D7905F0030505FA0CFC4CEA040C8B
:1016A000C0F800C0D1F804C01CF4403F6FD0D9F896
:1016B00000C04CF4804CC9F800C0D9F800C00CF44C
:1016C000804CCDF800C022F0030C0CF1804505F5EC
:1016D0009835D5F808C89407240F08FA04F62CEAC0
:1016E0000606A0F1804CBCF5003C56D0BCF5806CE1
:1016F00056D000E04BE0BCF5806C54D0BCF5806C5B
:1017000054D0BCF5806C54D0BCF5806C54D0BCF582
:10171000806C54D0BCF5806C54D04FF0080C0CFA9F
:1017200004FC4CEA060CC5F808C8DAF800C02CEA3C
:10173000030C4C6814F4801F01D04CEA030CCAF867
:1017400000C0244CD4F800C02CEA030C4D6815F4FA
:10175000001F01D04CEA030CC4F800C0DBF800C045
:101760002CEA030C4C6814F4003F01D04CEA030C43
:10177000CBF800C0184CD4F800C02CEA030C4D681C
:1017800015F4803F01D04CEA030CC4F800C0521C91
:10179000102AFFF429AFBDE8F88F4FF0000CBEE728
:1017A0004FF0010CBBE74FF0020CB8E74FF0030C11
:1017B000B5E74FF0040CB2E74FF0050CAFE74FF080
:1017C000060CACE74FF0070CA9E7000044380240D4
:1017D000083C01400C3C0140003C0140002A01D083
:1017E0008161704709048161704700000148806889
:1017F00070470000480000200248816802781144C8
:10180000816070474800002010B50B48016841F422
:1018100000710160016841F480610160016841F478
:1018200080710160032000F0CFF80F2000F006F86F
:1018300000F05EF8002010BD003C02402DE9F041B0
:1018400088B004460027B84600BF00200190244815
:10185000006840F00100224908600846006800F076
:101860000100019000BF00BF02A903A800F07CF9AD
:10187000069F1FB900F09CF9054602E000F098F9B8
:1018800045001848B5FBF0F0A0F101084FF080408A
:101890001549086040F2E7311348C160C0F8048080
:1018A000002101618160816100F024FE064696B945
:1018B0000D4800F09BFE06466EB91C2000F042F871
:1018C000102C07D2002221461C2000F049F80748BE
:1018D000046000E00126304608B0BDE8F081000059
:1018E0004038024040420F00B80A00204C0000205F
:1018F00008B500BF002000901148006840F4804007
:101900000F4908600846006800F48040009000BF5E
:1019100000BF00BF00200090081F006840F080500A
:10192000091F08600846006800F08050009000BF62
:1019300000BF00220F21901E00F012F808BD000029
:101940004438024000280ADB00F01F01012202FA9D
:1019500001F14009800000F1E020C0F8001170475B
:1019600010B4184B1B68C3F30223C3F1070CBCF17E
:10197000040F01D94FF0040C1C1D072C01D20023C9
:1019800000E0DB1E012404FA0CFCACF1010C0CEAB3
:101990000101994004FA03F35B1E1A401143002829
:1019A00006DB00F1E020090180F8001410BC70474C
:1019B00000F00F0000F1E020090180F8141D10BCB8
:1019C000704700000CED00E000F00700064A1168C7
:1019D0004FF6FF03194041EA002040F0FD7040F04F
:1019E00080601060704700000CED00E02DE9F047CA
:1019F00004460D46002C13D0DFF85491D9F80000AE
:101A0000EFB200F00700A8420DD289F80070D9F8B3
:101A1000000000F00700A84205D00120BDE8F087D3
:101A20000120BDE8F08720684A4E10F0020F14D064
:101A300010F0040F03D0306840F4E050306020789C
:101A400010F0080F03D0306840F460403060306818
:101A5000A16820F0F00008433060207810F0010FFA
:101A60003ED060683C49012808D002280DD00328E8
:101A70000BD0096811F0020F28D00AE0096811F4B0
:101A8000003F06D10120BDE8F087096811F0007F12
:101A900019D0316821F0030108433060FFF7A6FE3A
:101AA00080463068616800F00C00B0EB810F17D001
:101AB00041F2883AFFF79AFEA0EB0800504508D99A
:101AC0000320BDE8F0870120BDE8F0870120BDE8D4
:101AD000F0873068616800F00C00B0EB810FE9D14D
:101AE000D9F8000000F00700A8420AD989F8007070
:101AF000D9F8000000F00700A84202D00120BDE89C
:101B0000F087207810F0040F05D03068E16820F4E9
:101B1000E05008433060207810F0080F06D030689D
:101B2000216920F4604040EAC100306000F050F8C4
:101B300031680A4AC1F30311515CC8400849086082
:101B400008480068FFF77AFE0020BDE8F087000033
:101B5000003C02400838024000380240405600086D
:101B6000080000204C0000200F2202600B4A13687E
:101B700003F003034360136803F0F003836013680A
:101B800003F4E053C360126802F46042D2080261B9
:101B90000348006800F007000860704708380240FA
:101BA000003C024001480068704700000800002027
:101BB00000B5FFF7F7FF04490968044AC1F3822121
:101BC000515CC84000BD0000083802405056000873
:101BD00010B51748006810F00C01164816D0164BC7
:101BE000042912D0082911D1144C216801F03F02B8
:101BF000216811F4800F0AD02068C0F38810A0FB80
:101C000003010023FEF7B0FB09E0184610BD216870
:101C10000023C1F38811A1FB0001FEF7A5FB216899
:101C2000C1F30141491C4900B0FBF1F010BD0000B7
:101C3000083802400024F400001BB70004380240BA
:101C40002DE9F84F0446002C12D02078FB4E10F0FE
:101C5000010FA6F1040563D0301D016801F00C01ED
:101C600004290CD0006800F00C00082803D010E014
:101C70000120BDE8F88F306810F4800F09D0286883
:101C800010F4003F4CD06068002849D10120BDE825
:101C9000F88F6068B0F5803F14D0B0F5A02F16D053
:101CA000286820F480302860286820F4802028608C
:101CB000606810B3FFF79AFD0746286810F4003FEC
:101CC0000ED02DE0286840F480302860F0E72868C6
:101CD00040F480202860286840F480302860E7E7DE
:101CE000FFF784FDC01B642802D90320BDE8F88FEC
:101CF000286810F4003FF3D012E0FFF777FD0746A5
:101D0000286810F4003F0BD0FFF770FDC01B64285B
:101D100002D90320BDE8F88F286810F4003FF3D102
:101D20002078C74F10F0020F4FF0000957D0C54878
:101D3000016811F00C0F14D0006800F00C000828A6
:101D400003D1306810F4800F0BD0E06880B301201D
:101D50003860FFF74BFD8046286810F0020F12D064
:101D60001EE0286810F0020F05D0E068012802D0BC
:101D70000120BDE8F88F2868216920F0F80040EACA
:101D8000C10028602BE0FFF731FDA0EB080002281E
:101D900002D90320BDE8F88F286810F0020FF2D0B6
:101DA0002868216920F0F80040EAC100286016E0A8
:101DB000FFE7C7F80090FFF719FD8046286810F08C
:101DC000020F0CD0FFF712FDA0EB0800022802D989
:101DD0000320BDE8F88F286810F0020FF2D12078B8
:101DE00010F0080F35D09848DFF860A26169C1B1E2
:101DF00001210160FFF7FAFC8046DAF8000010F0DC
:101E0000020F26D1FFF7F2FCA0EB0800022802D94E
:101E10000320BDE8F88FDAF8000010F0020FF1D0CF
:101E200017E0C0F80090FFF7E1FC8046DAF8000008
:101E300010F0020F0DD0FFF7D9FCA0EB080002282C
:101E400002D90320BDE8F88FDAF8000010F0020F85
:101E5000F1D1207810F0040F71D04FF000087C48C9
:101E6000006810F0805F0AD17948016841F0805124
:101E70000160006800F0805000904FF00108DFF82A
:101E8000D4B1DBF8000010F4807F1BD1DBF8000038
:101E900040F48070CBF80000FFF7A8FC8246DBF826
:101EA000000010F4807F0DD1FFF7A0FCA0EB0A002A
:101EB000022802D90320BDE8F88FDBF8000010F4F7
:101EC000807FF1D0A068DFF890B1012818D00528F4
:101ED0001DD0DBF8000020F00100CBF80000DBF89B
:101EE000000020F00400CBF80000A06840B3FFF72A
:101EF0007DFC8246DBF8000010F0020F14D03EE0BB
:101F0000DBF8000040F00100CBF80000EDE7DBF863
:101F1000000040F00400CBF80000DBF8000040F0C7
:101F20000100CBF80000E0E7FFF760FCA0EB0A013E
:101F300041F28830814204D90320BDE8F88F26E0C1
:101F400005E0DBF8000010F0020FEDD017E0FFF71E
:101F50004DFC8246DBF8000010F0020F0FD0FFF7B7
:101F600045FCA0EB0A0141F28830814202D90320EE
:101F7000BDE8F88FDBF8000010F0020FEFD1B8F1E8
:101F8000010F04D13248016821F080510160A0693D
:101F9000F0B32C4909684FF0FF3801F00C01082913
:101FA00066D0022810D0C7F86090FFF71FFC0446E7
:101FB000286810F0007F2BD0FFF718FC001B0228C8
:101FC00051D90320BDE8F88FC7F86090FFF70EFCE9
:101FD0008146286810F0007F0CD0FFF707FCA0EBCB
:101FE0000900022802D90320BDE8F88F286810F004
:101FF000007FF2D1216AE069A26A0843616A08EBB6
:102000005202890141EA0241084394F82C1000E091
:1020100055E040EA0160306001203866FFF7E6FBDA
:102020000446286810F0007F49D1FFF7DFFB001B52
:10203000022813D90320BDE8F88F000004380240BD
:102040000000474208380240800E47427438024080
:10205000403802400070004070380240286810F09C
:10206000007FE2D02BE0286810F0007FA4D126E0AA
:10207000012822D03068E26900F4800191421AD12F
:10208000226A00F03F01914215D147F6C071626AA1
:102090000140B1EB821F0ED1A26A00F4403108EB7F
:1020A0005202B1EB024F06D194F82C1000F0706090
:1020B000B0EB016F03D00120BDE70120BBE700209A
:1020C000B9E770B50446002C09D0606A002540B11C
:1020D00025616561A56294F8510040B10CE00120D2
:1020E00070BD6068B0F5827FF4D0E561F2E784F8F6
:1020F0005050204600F044F8022084F85100206837
:10210000016821F040010160A088218900F48270FB
:1021100001F404410843A18901F400610843217CD2
:1021200001F002010843217D01F001010843218BE8
:1021300001F400710843217F01F03801084394F84D
:10214000201001F080010843218D01F40051084363
:1021500021680860A169042000EA114094F8241065
:1021600001F010010143206841602068C16921F439
:102170000061C1616565012084F85100002070BDD7
:1021800010B586B00446142101A8FEF7B5F94B49F5
:10219000206888427ED100BF002000904848006837
:1021A00040F48050464908600846006800F48050BA
:1021B000009000BF00BF00BF0020009040481438CE
:1021C000006840F002003E49143908600846006883
:1021D00000F00200009000BF00BF00BF0020009090
:1021E0000846006840F0010008600846006800F0FA
:1021F0000100009000BF00BF182001900220029053
:1022000000200390032004900520059001A92D488B
:10221000FFF7DCF98020019002200290002003905B
:10222000032004900520059001A92748FFF7CEF967
:102230002648274908604FF0C060486000212448C4
:102240008160C1604FF48061016100214161816161
:10225000C1614FF44031016200214162FFF70EF984
:1022600008B1FEF7BDFC00BF1948E064846300BFFD
:1022700016481830174908604FF0C0604860402188
:10228000144881600021C1604FF480610161002128
:10229000416100E010E08161C1614FF400310162F1
:1022A00000214162FFF7EAF808B1FEF799FC00BF90
:1022B0000848A064846300BF06B010BD0030014030
:1022C00044380240000402400000024040640240E2
:1022D000B0090020100A00202DE9F84F04460A9E9C
:1022E0008A4693461F460125FFF780FA804694F8F8
:1022F00051006168012809D0B1F5827F03D1A1683E
:1023000009B9042802D00220BDE8F88FBAF1000F05
:1023100028D0BBF1000F25D0380023D094F850000E
:10232000012822D0012084F8500094F8510004289C
:1023300002D0052084F851004FF00009C4F85490F1
:10234000C4F838B0E787A787C4F830A0E786A78627
:10235000C4F84090C4F844902068016811F0400F20
:1023600006D009E00120BDE8F88F0220BDE8F88F13
:10237000016841F040010160E068B0F5006F05D0F0
:10238000606800284DD0012F4BD083E0606808B111
:10239000012F3FD1206B21680088C860206B801C12
:1023A0002063E08E401EE08634E02068816811F0F2
:1023B000020F0DD0E18E59B1012D09D1216B098891
:1023C000C160206B801C2063E08E401EE0860025EB
:1023D0002068816811F0010F0BD0E18F49B1C0680E
:1023E000A16B0880A06B801CA063E08F401EE0877B
:1023F0000125FFF7FBF9A0EB0800B0420AD3B6F1C4
:10240000FF3F07D0012084F8510084F8509003204A
:10241000BDE8F88FE08E0028C7D1E08F0028C4D136
:102420003EE0206B216800780873206B401C20631D
:10243000E08E401EE0862DE02068816811F0020FDA
:102440000DD0E18E59B1012D09D1216B09780173AD
:10245000206B401C2063E08E401EE0860025206833
:10246000816811F0010F0BD0E18F49B1C068A16BF9
:102470000870A06B401CA063E08F401EE087012520
:10248000FFF7B4F9A0EB0800B04202D3B6F1FF3F6A
:1024900013D196B1E08E0028CED1E08F0028CBD1A9
:1024A00042463146204600F04DFF70B12020606565
:1024B00084F850900120BDE8F88F012084F8510085
:1024C00084F850900320BDE8F88FA06818B9206800
:1024D000C16880680090012084F8510084F8509011
:1024E000606D10B10120BDE8F88F0020BDE8F88FC5
:1024F0007047704710B50446002C03D094F83D0097
:1025000010B107E0012010BD002084F83C002046F7
:1025100000F01EF8022084F83D00211D206801F023
:10252000D1F8012084F8460084F83E0084F83F008A
:1025300084F8400084F8410084F8420084F84300A5
:1025400084F8440084F8450084F83D00002010BD64
:1025500008B50A4A016891420FD100BF00210091DD
:102560000749096841F40031054A116011460968BC
:1025700001F40031009100BF00BF08BD00440140DC
:102580004438024090F83D10012901D001207047E5
:10259000022180F83D100068A0F18041B1F5803142
:1025A0001AD0B0F1804F17D011F57C4114D0B1F59D
:1025B000806111D0B1F580610ED0B1F578410BD0BA
:1025C000B1F5705108D011F5943105D0016841F092
:1025D0000101016000207047816801F007010629B0
:1025E000F8D0016841F001010160F3E790F83D1077
:1025F000012901D001207047022180F83D100168B7
:10260000CA6842F00102CA600068A0F18041B1F5D9
:1026100080311AD0B0F1804F17D011F57C4114D021
:10262000B1F5806111D0B1F580610ED0B1F578417E
:102630000BD0B1F5705108D011F5943105D0016877
:1026400041F00101016000207047816801F007013D
:102650000629F8D0016841F001010160F3E77047F5
:102660002DE9F04104462068C56806694FF000076F
:1026700016F0020F16D015F0020F13D0F91E0161EB
:10268000012020772068806910F0030F03D02046D6
:10269000FFF7E5FF05E0204600F0CAF8204600F00D
:1026A00063F9277716F0040F18D015F0040F15D032
:1026B00021686FF00400086102202077206880699B
:1026C00010F4407F03D02046FFF7C9FF05E0204605
:1026D00000F0AEF8204600F047F9277716F0080F13
:1026E00018D015F0080F15D021686FF008000861A8
:1026F000042020772068C06910F0030F03D0204623
:10270000FFF7ADFF05E0204600F092F8204600F00C
:102710002BF9277716F0100F18D015F0100F15D0E1
:1027200021686FF010000861082020772068C069D8
:1027300010F4407F03D02046FFF791FF05E02046CC
:1027400000F076F8204600F00FF9277716F0010F19
:1027500009D015F0010F06D021686FF00100086163
:10276000204600F069F916F0800F09D015F0800FAF
:1027700006D021686FF0800008612046FFF7B8FEA0
:1027800016F0400F09D015F0400F06D021686FF009
:1027900040000861204600F058F916F0200F0BD0D9
:1027A00015F0200F08D021686FF020000861204646
:1027B000BDE8F041FFF79DBEBDE8F08110B586B0E1
:1027C0000446142101A8FDF797FE154920688842A8
:1027D00024D100BF002000901248006840F0200083
:1027E000104908600846006800F02000009000BF13
:1027F00000BF40200190022002900120039002209F
:1028000004900320059001A90748FEF7DFFE074862
:10281000FFF7B8FE0021054800F0A8F806B010BD8B
:10282000004401403038024000140240700A002089
:10283000704770B504460D46002694F83C00012808
:102840000FD0012084F83C006AB1042A1FD0082A66
:1028500032D00C2A44D00126002084F83C003046B7
:1028600070BD022070BD2946206800F0A3FF2068DB
:10287000816941F0080181612068816921F00401CA
:102880008161206881692A6911438161E4E72946F1
:10289000206800F0C7FF2068816941F40061816110
:1028A0002068816921F480618161206881692A69D9
:1028B00041EA02218161CFE72946206800F0EEFF5E
:1028C0002068C16941F00801C1612068C16921F037
:1028D0000401C1612068C1692A691143C161BBE774
:1028E0002946206801F016F82068C16941F40061AA
:1028F000C1612068C16921F48061C1612068C1693A
:102900002A6941EA0221C161A6E710B50446002CFC
:1029100003D094F83D0010B107E0012010BD002065
:1029200084F83C00204600F01EF8022084F83D00A8
:10293000211D206800F0C6FE012084F8460084F8BE
:102940003E0084F83F0084F8400084F8410084F899
:10295000420084F8430084F8440084F8450084F879
:102960003D00002010BD70477047000010B50446C0
:10297000002909D004290AD008290BD094F8410075
:1029800001280AD0012010BD94F83E00F8E794F821
:102990003F00F5E794F84000F2E7022099B30429DC
:1029A0003FD0082940D084F841000122206800F07F
:1029B000F1FE1F4A20681F49904201D0884203D18E
:1029C000436C43F400434364206890421CD0B0F150
:1029D000804F19D0A0F18042B2F5806214D0B2F5D8
:1029E000806211D0B2F580620ED088420CD0B2F570
:1029F0009A3109D011F5943106D0016841F00101F6
:102A00000160002010BD09E0816801F0070106297E
:102A1000F7D0016841F001010160F2E784F83E005F
:102A2000C3E784F83F00C0E784F84000BDE700003A
:102A3000000001400004014010B504462068B0F1D8
:102A4000804F01D1FEF7D8FE10BD704700BFFEE7F2
:102A5000C1680968491CC2681160C1680968C26818
:102A60005268914207D9C1684968C2681160002163
:102A7000C268117205E0C168097A11B90121C26802
:102A80001172704710B50F480F4908600320486065
:102A900000210D488160C1604FF4002101614FF4B5
:102AA00040114161002101760121417681760021AA
:102AB000C176017701214177FEF787FB08B1FEF768
:102AC0008FF810BD006400403009002008B500BF39
:102AD000002000900E48006840F480000C49086017
:102AE0000846006800F48000009000BF00BF00228C
:102AF00005213A20FEF734FF3A20FEF723FF00229B
:102B000005213B20FEF72CFF3B20FEF71BFF08BDF5
:102B10003038024000B58FB01C220C4908A8FDF7E0
:102B2000B9FC002108A801F067FE094908601C22D1
:102B300006491C3101A8FDF7ADFC002101A801F0F8
:102B40005BFE044908600FB000BD00000856000895
:102B5000000000200400002000B587B0142102A866
:102B6000FDF7CAFC00BF002001904A48006840F011
:102B70000200484908600846006800F00200019021
:102B800000BF00BF00BF002001900846006840F071
:102B9000010008600846006800F00100019000BFD5
:102BA00000BF00BF002001900846006840F0080008
:102BB00008600846006800F00800019000BF00BFF0
:102BC00000BF002001900846006840F080000860C7
:102BD0000846006800F08000019000BF00BF00BF01
:102BE000002001900846006840F020000860084678
:102BF000006800F02000019000BF00BF00BF00206F
:102C000001900846006840F004000860084600682B
:102C100000F00400019000BF00BF012210211E48F7
:102C2000FEF7DCFD012211461C48FEF7D7FD1020FF
:102C300002900120039004900220059002A91648FA
:102C4000FEF7C4FC302002904FF4041003900120E2
:102C5000049002A91248FEF7B9FC012002900390EB
:102C600004900220059002A90C48FEF7AFFC002258
:102C700005210A20FEF774FE0A20FEF763FE0022FB
:102C800005211720FEF76CFE1720FEF75BFE07B04C
:102C900000BD000030380240000002400004024045
:102CA0000008024010B50F480F4908604FF48270C9
:102CB000486000210C488160C1600221016101214E
:102CC0004161490281613821C16100210162416293
:102CD00081620A21C162FFF7F4F908B1FDF780FFB4
:102CE00010BD0000003001405809002000B587B039
:102CF0001C216846FDF700FC1548164908600020B5
:102D0000486000211348816041F28731C160002191
:102D100001618161FFF7EEFB08B1FDF761FF0D482E
:102D2000FFF7F3FD08B1FDF75BFF60200090002086
:102D3000019002900490002269460648FFF779FD51
:102D400008B1FDF74DFF0348FFF738FD07B000BDA0
:102D500000440140700A002000BFFEE770B5044641
:102D60000D462E78922E6BD006DC302E7CD0312E84
:102D700078D0902E77D140E09A2E62D0A12EF9D152
:102D8000687840B2616881F82000E878616808815D
:102D90006068007A000200B2616808816068B0F97A
:102DA0000800A978084361680881204600F056FAB7
:102DB0006879616848816068807A000200B2616861
:102DC00048816068B0F90A00297908436168488140
:102DD000E87961688881606880894FF6FF7101EA4F
:102DE00000206168888160688089A97908436168EA
:102DF00088812046FDF7D4FE69E068796168C88162
:102E00006068C0894FF6FF7101EA00206168C881DF
:102E10006068C089297908436168C881E879616878
:102E200008826068008A4FF6FF7101EA002061683D
:102E300008826068008AA97908436168088246E0D0
:102E400045E0687840B2616881F82000A878E978A8
:102E500040EA012061684884E879616881F82400CB
:102E600035E001E019E031E0A878616881F82500DB
:102E7000E878616881F826002879616881F8270080
:102E80006879616881F82800A879616881F829006B
:102E9000E879616881F82A0019E0A878616881F80A
:102EA0002500E878616881F826002879616881F852
:102EB00027006879616881F82800A879616881F83D
:102EC0002900E879616881F82A0000E000BF00BFAE
:102ED00070BD70B504460D460021A06840F80E1F75
:102EE0004160902D07D0922D09D0A12D0BD1A120AA
:102EF000A168887308E09020A168887304E092209C
:102F0000A168887300E000BF00BFA36803F10E0250
:102F10002368D3E90110FDF7B9FD0021A06840F84E
:102F20000E1F416070BD10B5044634B3204600F05A
:102F30001BFDA120A16888730021A068C173A0684F
:102F40000174A0684174A068017A8174A068008946
:102F5000010AA068C1740021A0680175A0684175CC
:102F6000A36803F10E022368D3E90110FDF78EFD7B
:102F70000021A06840F80E1F416010BD10B500F0A0
:102F800035F800F00DF810BD10B50348416A8847C8
:102F90000248416A884710BD6C060020AC0600203C
:102FA00010B50348016A88470248016A884710BD86
:102FB0006C060020AC06002010B50348C1698847A4
:102FC0000248C169884710BD6C060020AC0600208D
:102FD00010B50548D0F8A01288470348D0F87015FE
:102FE00000F53470884710BDBC00002010B50548BE
:102FF000D0F89C1288470348D0F86C1500F534705F
:10300000884710BDBC00002070470000B0EE401A99
:1030100010B99FED790A704790ED100A80ED110A02
:1030200090ED0F0A80ED100AC0ED060A80ED071A38
:1030300030EEC10A80ED0F0A0178002975D190EDBC
:10304000010AD0ED0F1A20EE210A80ED090A90ED59
:103050000A0AD0ED021A90ED0F2A01EE820A80EDE5
:103060000A0A90ED0D0A80ED0E0A90ED0C0A80ED33
:103070000D0A90ED0F0AD0ED101A30EE610A80EDC6
:103080000C0A90ED030AD0ED0C1A20EE210A80ED17
:103090000B0A90ED0A0AD0ED051AB4EEE10AF1EE42
:1030A00010FA04DD90ED050A80ED0A0A10E090EDBB
:1030B0000A0AD0ED051AF1EE611AB4EEE10AF1EE5A
:1030C00010FA05D290ED050AB1EE400A80ED0A0A29
:1030D00090ED090AD0ED0A1A30EE210AD0ED0B1A54
:1030E00030EE210A80ED080A90ED080AD0ED041AAE
:1030F000B4EEE10AF1EE10FA04DD90ED040A80ED81
:10310000080A76E090ED080AD0ED041AF1EE611A93
:10311000B4EEE10AF1EE10FA6BD290ED040AB1EED2
:10312000400A80ED080A64E0FFE70178012960D1D8
:1031300090ED0F0AD0ED101A30EE610AD0ED011AB1
:1031400020EE210A80ED090A90ED020AD0ED0F1A57
:1031500020EE210A80ED0A0A90ED0D0A80ED0E0A9C
:1031600090ED0C0A80ED0D0A90ED0F0AD0ED101ACB
:10317000B0EE002A02EE610AD0ED111A30EE210AFB
:1031800080ED0C0A90ED030AD0ED0C1A20EE210A16
:1031900080ED0B0A90ED090AD0ED0A1A30EE210AF3
:1031A000D0ED0B1A30EE210AD0ED081A30EE210ACC
:1031B00080ED080A90ED080AD0ED041AB4EEE10A99
:1031C000F1EE10FA04DD90ED040A80ED080A10E03B
:1031D00090ED080AD0ED041AF1EE611AB4EEE10A9E
:1031E000F1EE10FA05D290ED040AB1EE400A80ED3E
:1031F000080A90ED080A0EE70000000000B102B9CD
:103200007047017092ED001A80ED011A92ED011ADB
:1032100080ED021A92ED021A80ED031A80ED040A85
:10322000C0ED050A9FED0C1A80ED0E1A80ED0D1A07
:1032300080ED0C1A9FED081A80ED081A80ED0B1A2C
:1032400080ED0A1A80ED091A80ED111A80ED101A2E
:1032500080ED0F1A00BFD3E7000000000168097875
:10326000D9B94168B1F9081000EE101AF8EEC00A99
:103270009FED2E1A80EE810ADFED2D0A20EE200A46
:10328000416881ED010A416891ED010ADFED290AEB
:1032900020EE200A81ED000A46E001680978012944
:1032A0001FD14168B1F9081000EE101AB8EEC00A3B
:1032B000DFED1E0A80EE201A9FED1F0A21EE000AA4
:1032C000416881ED010A416891ED010ADFED1B0AB9
:1032D00020EE200AF1EE080A20EE200A81ED000A15
:1032E00022E00168097802291ED14168B1F908106D
:1032F00000EE101AB8EEC00A9FED0C1AC0EE010ADB
:103300009FED0D0A20EE800A416881ED010A4168B7
:1033100091ED010ADFED0A0A20EE200AF2EE000A22
:1033200020EE200A81ED000A7047000000000045F1
:10333000000084410AD7A33E000004428FC2753EBC
:103340001F858B3F70B582B004460E461546334646
:10335000012202212046009500F036F830B1606D60
:1033600040F02000606502B0032070BD144815498C
:103370000068B0FBF1F04FF47A7148430190606847
:10338000B0F5827F0ED13346002280212046009581
:1033900000F01AF880B1606D40F02000606502B066
:1033A000032070BD019838B10198401E019020683B
:1033B000806810F0800FF5D102B0002070BD0000D1
:1033C0000800002000366E012DE9F84304460F4640
:1033D00090469946089DFEF709FA401BA9EB0005A7
:1033E000FEF704FA06462D480068C0F3CB30684368
:1033F00000902068806837EA00000ED00020404529
:1034000046D0B9F1FF3F3BD0FEF7F0F9801BA84250
:1034100005D225B1009870B32FE00120EFE72068B6
:10342000416821F0E00141606068B0F5827F0BD116
:10343000A068B0F5004F02D0B0F5806F04D12068CD
:10344000016821F040010160A06AB0F5005F09D178
:103450002068016821F4005101602068016841F48E
:1034600000510160012084F85100002084F85000D0
:103470000320BDE8F883FFE700250098401E009078
:103480002068806837EA000005D000204045B8D1A8
:103490000020BDE8F8830120F8E7000008000020C4
:1034A0000849016108494161084981610849C161D0
:1034B00008494162084981620849C1626421C268C1
:1034C00051607047D32E0008272F00085D2D00089B
:1034D00045350008512A0008E13400080735000886
:1034E00010B504460021A06840F80E1F41609A20E4
:1034F000A1688873A36803F10E022368D3E9011061
:10350000FDF7C4FA10BD70B504460D460021A06851
:1035100040F80E1F41601DB93120A168887302E098
:103520003220A1688873A068817A0175A068C17A89
:103530004175A36803F10E022368D3E90110FDF77A
:10354000A5FA70BD10B5044684B1A120A1688873A6
:103550000021A068C01CC16001828174A36803F1CE
:103560000E022368D3E90110FDF790FA10BD0000A8
:1035700010B5502080F31188BFF34F8FBFF36F8FCA
:1035800001F06CFF18B104494FF080500860002032
:1035900080F3118810BD000004ED00E000B593B089
:1035A000302107A8FCF7A8FF142102A8FCF7A4FF0C
:1035B00000BF002001902448006840F0805022495C
:1035C00008600846006800F08050019000BF00BF0E
:1035D00000BF002001901D48006840F480401B4956
:1035E00008600846006800F48040019000BF00BFFA
:1035F000012007900004089002200D9041050E91D3
:1036000006210F91A82110910221119107211291F9
:1036100007A8FEF715FB08B1FDF7E2FA0F200290AC
:1036200002200390002004904FF4A05005904FF426
:1036300080500690052102A8FEF7D8F908B1FDF7E1
:10364000CFFA13B000BD00004038024000700040C7
:103650001448006840F4700012490860124800687D
:1036600040F001001049086000200F49083108604F
:103670000D4800680D4908400B4908600C48091DB9
:103680000860081F006820F48020091F08600020DF
:1036900005490C3108604FF000600249803908602C
:1036A0007047000088ED00E000380240FFFFF6FEA2
:1036B0001030002410B50248FEF7D2FF10BD000004
:1036C000B80A0020F0B402682D4BDFF8B8C02E4DC8
:1036D0002E4E2F4C98420AD0B0F1804F07D0604553
:1036E00005D0A84203D0B04201D0A04203D122F0BD
:1036F00070024F683A4398421ED0B0F1804F1BD001
:10370000604519D0A84217D0B04215D0A04213D0BE
:10371000A0F1804CBCF5A03C0ED0BCF5806C0BD069
:10372000BCF5806C08D01CF5983C05D0BCF5806CCD
:1037300002D0BCF5806C05D122F44072D1F80CC0E7
:103740004CEA0202D1F814C022F0800242EA0C02D4
:1037500002608A68C2620A688262984201D0A0420E
:1037600001D10969016301214161016911F0010F72
:1037700003D0016921F001010161F0BC7047000034
:10378000000001400004004000080040000C004020
:103790000004014001F01F0101238B40D0F820C03C
:1037A0002CEA03030362036A02FA01F1194301627E
:1037B0007047000070B4026A036A23F001030362D9
:1037C0004368D0F818C02CF0700C2CF0030C0C6877
:1037D00044EA0C0C22F002028C6822430F4C104D7C
:1037E000A04201D0A84205D122F00802CE6832439F
:1037F00022F00402A04201D0A84207D123F4807332
:1038000023F400734C6923438C6923434360C0F85D
:1038100018C049684163026270BC704700000140F3
:103820000004014070B4026A036A23F010030362CB
:103830004368D0F818C02CF4E04C2CF4407C0C68A1
:103840004CEA042C22F020028C6842EA0412114C4B
:10385000114DA04201D0A84206D122F08002CE68CC
:1038600042EA061222F04002A04201D0A84209D149
:1038700023F4806323F400634C6943EA84038C6976
:1038800043EA84034360C0F818C049688163026258
:1038900070BC7047000001400004014070B4026A2F
:1038A000036A23F4807303624368D0F81CC02CF0D1
:1038B000700C2CF0030C0C6844EA0C0C22F400721F
:1038C0008C6842EA0422114C114DA04201D0A8425A
:1038D00006D122F40062CE6842EA062222F4806217
:1038E000A04201D0A84209D123F4805323F400530D
:1038F0004C6943EA04138C6943EA04134360C0F83B
:103900001CC04968C163026270BC7047000001407E
:103910000004014010B4036A026A22F48052026279
:103920004268D0F81CC02CF4E04C2CF4407C0C68AD
:103930004CEA042C23F400538C6843EA0433A0F1CE
:103940008044B4F5803402D0B4F5806404D122F40C
:1039500080424C6942EA84124260C0F81CC0496847
:103960000164036210BC704701680978D9BB8168A3
:1039700091ED000ADFED600A80EE201A81ED011A58
:10398000816891ED010AF3EE000AB4EEE00AF1EE6F
:1039900010FA02DDB3EE000A0FE0816891ED010A32
:1039A000FBEE000AB4EEE00AF1EE10FA02D2BBEE32
:1039B000000A02E0816891ED010A816881ED010A47
:1039C000816891ED010ADFED4D0A80EE201A9FED2E
:1039D0004C0A21EE000ABDEEC00A10EE101A09B220
:1039E0008268118187E0FFE70168097801293FD1EA
:1039F0008168D1ED000AB1EE081A80EE810ADFED90
:103A0000410A80EE201A81ED011A816891ED010AC8
:103A1000DFED3D0AB4EEE00AF1EE10FA02DD9FEDB3
:103A20003A0A0FE0816891ED010ADFED380AB4EE41
:103A3000E00AF1EE10FA02D29FED340A02E081684A
:103A400091ED010A816881ED010A816891ED010A19
:103A50009FED2F1AC0EE010A9FED290A20EE800A81
:103A6000BDEEC00A10EE101A09B28268118142E060
:103A70000168097802293ED18168D1ED000AB2EED1
:103A8000001A80EE810ADFED230A80EE201A81ED14
:103A9000011A816891ED010AF2EE0C0AB4EEE00A17
:103AA000F1EE10FA02DDB2EE0C0A0FE0816891ED42
:103AB000010AFAEE0C0AB4EEE00AF1EE10FA02D2B4
:103AC000BAEE0C0A02E0816891ED010A816881ED8D
:103AD000010A816891ED010ADFED0D0A80EE201ADE
:103AE0009FED070A21EE000ABDEEC00A10EE101A83
:103AF00009B28268118170470AD7A33E0000844151
:103B0000000000458FC2753E00000042000000C268
:103B1000000004421F858B3F00BFFEE770B5002503
:103B20000024FCF7D7FD8020FCF714FF5520FCF79C
:103B300011FF5520FCF70EFF0546FCF7C1FD96204E
:103B4000FCF7F6FDFCF7C6FD8020FCF703FF5520CF
:103B5000FCF700FF5520FCF7FDFE0546FCF7B0FD25
:103B60009620FCF7E5FDFCF7B5FDB6217E20FCF7BD
:103B700001FFFCF7A5FD5020FCF7CDFDFCF7AAFDE9
:103B80008020FCF7E7FE5520FCF7E4FE5520FCF70B
:103B9000E1FE0546FCF794FD9620FCF7C9FDFCF715
:103BA00099FD8020FCF7D6FE5520FCF7D3FE55206A
:103BB000FCF7D0FE0546FCF783FD9620FCF7B8FD28
:103BC0001E2D01D0FF2070BD002434E0FCF782FDE3
:103BD00004EB44021A4B1A44517804EB4402985CFB
:103BE000FCF7C8FEFCF76CFD9620FCF7A1FDFCF786
:103BF00071FD04EB4401124A515C41F08000FCF776
:103C0000A9FE5520FCF7A6FE5520FCF7A3FE0546AD
:103C1000FCF756FD9620FCF78BFD04EB44000849A9
:103C200008444078A84204D004EB4400084480785B
:103C3000C9E7601CC4B2062CC8DB0020C3E7000043
:103C40002400002038B5002400200090FCF758FD27
:103C500069460020FCF771FEFCF748FD9620FCF752
:103C600067FDFCF74DFD69460020FCF766FEFCF79A
:103C70003DFD9620FCF75CFDFCF742FDB6211420CB
:103C8000FCF778FEFCF732FD5020FCF744FDFCF712
:103C900037FD69460020FCF750FEFCF727FD962013
:103CA000FCF746FDFCF72CFD69460020FCF745FEBD
:103CB000FCF71CFD9620FCF73BFD9DF800000F284B
:103CC00001D0FF2038BD00242FE0FCF719FD04EBE4
:103CD0004402184B1A44517804EB4402985CFCF7F8
:103CE00049FEFCF703FD9620FCF722FDFCF708FDDA
:103CF00004EB44010F4A505C6946FCF71EFEFCF7DA
:103D0000F5FC9620FCF714FD04EB44000949084437
:103D100040789DF80010884205D004EB4400054926
:103D200008448078CEE7601CC4B2062CCDDB0020AE
:103D3000C8E7000036000020B0B504460D4617461F
:103D400004B10DB90020B0BD207D08B90020FAE70C
:103D50002520005D002808DD2520005D032804DC07
:103D60002946204600F062F80BE02520005D03287C
:103D700007DD2520005D052803DC2946204600F0EC
:103D800004F83046DFE703467047704700B97047D4
:103D90002449C0F8AC122449C0F8A8122521095CB6
:103DA000012911D1C169A1F20521042903D240F2F0
:103DB000FF11816102E040F2FF218161017FC91C96
:103DC00001F0030202622AE02521095C022911D1D7
:103DD000C169A1F20121042903D24FF4007181616C
:103DE00002E040F2FF118161017FC91C01F0030272
:103DF000026214E02521095C032910D1C169A1F2F6
:103E00000121042903D24FF40071816102E040F2E4
:103E1000FF118161017FC91C01F00302026200BF32
:103E2000B5E70000393D0008873D00082DE9F04165
:103E300005460F462C463846FCF70AFE00B22080A5
:103E40003846FCF712FE60803846FCF707FEA0807B
:103E50003846FCF714FE20813846FCF70DFEE08062
:103E6000608918B9206908B9002603E020886189B3
:103E7000401A06B2002E01DD304600E07042B0F577
:103E8000805F0FDB002E06DBA6F5F850FF382169B6
:103E90000844206109E041F6FF713144206908447B
:103EA000206102E020693044206120886081002187
:103EB000A975BDE8F0810000014908607047000065
:103EC000344401404FF4FA7000F089FCDFED270A1A
:103ED0009FED270A274A00212748FFF78FF900BFE7
:103EE000FCF74BFC0028FBD110212448C161FEF7F0
:103EF000E8F808B1FCF774FE002000F0ABFC0446C3
:103F000001F058FA1E49086001201E4908702CE093
:103F100000BF4FF0FF31012000F034FF0128F8D13D
:103F2000194A1A491A48FCF737FCDFED1A0A1648F5
:103F300090ED000A1048FFF769F80F4890ED080A65
:103F4000B5EEC00AF1EE10FA03D29FED130A80ED30
:103F5000080A094890ED080ABCEEC00A10EE100AE3
:103F600084B22046FFF7A8FF00BFD1E70080894553
:103F700000A08C4558560008180B00205809002056
:103F80000C00002010000020140000200C0B00206A
:103F9000000B00200000204200000000FDF734FC70
:103FA000FFF7FCFAFEF7D8FDFEF790FDFEF77AFE6C
:103FB000FEF79CFEFEF766FDFCF7E8FCFEF7DEFF71
:103FC000FEF7A8FD00F013FC00BFFEE700218428E7
:103FD00000D0C11C0846704700B97047017D01B987
:103FE000FBE7817D491C8175827D417D8A4204DD2C
:103FF000427D82750022C27503E0C17D09B90122AC
:10400000C27500BFE9E7000000B5034603B900BD73
:104010002520C05C052803D1D3F8980200B9F6E743
:104020000021D9759975642159752420C05C18B197
:104030002420C05C012803D11846FFF7A7FE00E04A
:1040400000BF1148C3F8A4021048C3F8A0021048EA
:10405000C3F8CC020F48C3F8C8020F48C3F8C40223
:104060000E48C3F8B8020E48C3F8B4020D48C3F8AE
:10407000B0020D48C3F8C0020C48C3F8BC020120CE
:10408000187500BFC3E70000B1400008D93F000821
:1040900045410008014300089F4200087947000895
:1040A00075430008F546000851470008954600088A
:1040B00000B101B970479FED220A80ED000A9FED23
:1040C000200A80ED010A9FED1E0A80ED020A9FED95
:1040D0001C0A80ED030A9FED1A0A80ED040A9FED89
:1040E000180A80ED050A9FED160A80ED060A9FED7D
:1040F000140A80ED070A9FED120A80ED080A91ED7F
:10410000000A80ED0A0A91ED010A80ED0B0A91ED9B
:10411000020A80ED0C0A91ED030A80ED0D0A91ED83
:10412000040A80ED0E0A91ED050A80ED0F0A91ED6B
:10413000060A80ED100A012280F8242000BFB9E7AA
:104140000000000030B503460024187D08B1D87D7A
:1041500008B9002030BD012932D1D3ED0D0AF5EEAA
:10416000C00AF1EE10FA02DDD3ED0D0A03E0D3ED43
:104170000D0AF1EE600AF4EEC00AF1EE10FA1ADD53
:10418000B3F90200002802DDB3F9020002E0B3F93E
:10419000020040421E280EDA4FF42570C05A401C1F
:1041A00085B24FF42570C552C05A904201D1012406
:1041B00006E0002404E0002400254FF42570C552D9
:1041C000022932D1D3ED620AF5EEC00AF1EE10FAFF
:1041D00002DDD3ED620A03E0D3ED620AF1EE600A7C
:1041E000F4EEC00AF1EE10FA1ADDB3F9020000286D
:1041F00002DDB3F9020002E0B3F9020040420528F3
:104200000EDA4FF42570C05A401C85B24FF4257069
:10421000C552C05A904201D1012406E0002404E0B6
:10422000002400254FF42570C552204692E7B5EED4
:10423000C00AF1EE10FA04D230EE201AB0EE410AB4
:1042400008E0B4EEE00AF1EE10FA03DB30EE601A9B
:10425000B0EE410A7047B0EE001AC0EE811AB5EE1A
:10426000C00AF1EE10FA02DDB0EE401A01E0B1EE44
:10427000401AF4EEC11AF1EE10FA0FD2B5EEC00AF0
:10428000F1EE10FA06DBB1EE601A30EE011AB0EE74
:10429000410A03E030EE201AB0EE410A7047F0B553
:1042A0000023B0F90020B0F92840A24205DA0288C4
:1042B000048D121B0A4413B203E00288048D121B02
:1042C00013B20A4601EBD177A3EB6707002F04DD99
:1042D00001EBD177A3EB670703E001EBD177C3EBE9
:1042E00067074FEAE27C02EB9C7CB7EBAC0F03DA8A
:1042F00001242A22145402E000242A221454F0BD7E
:1043000070B502460023B2F90040B0F92850AC4223
:1043100005DA1488058D641B0C4423B203E014886D
:10432000058D641B23B20C46CD1701EB95755E42DB
:104330000E4406EBA5052BB28B4201DD5C1A23B2BD
:104340000C46CD1701EB9575A3EBA50500EE905A31
:10435000F8EEE00AB0EE600A00EE901AF8EE600A9D
:10436000FFF765FFBDEEC00A10EE105A2BB2938125
:1043700070BD000010B50446B0EE403A207D10B983
:104380009FED130A10BD94F8940010B99FED100A28
:10439000F8E784ED1C3AB4F9020001EE100AB8EE19
:1043A000C11AF0EE410AB4F9000001EE100AB8EEAD
:1043B000C11AB0EE410A012204F1B40104F1700007
:1043C00000F0C4F884EDA40A94EDA40ADAE7000032
:1043D00000000000024692F8243013B99FED5A0AFB
:1043E0007047104602F1280190ED020AB5EEC00AAE
:1043F000F1EE10FA02DD90ED020A03E090ED020A00
:10440000B1EE400AD1ED030AB4EEE00AF1EE10FA83
:1044100003D89FED4D0A80ED020A90ED040AD0ED1D
:10442000020A30EE200A80ED040A90ED040AD1ED74
:10443000040AB4EEE00AF1EE10FA02DD91ED040A8E
:1044400011E090ED040AD1ED040AF1EE600AB4EE39
:10445000E00AF1EE10FA04D291ED040AB1EE400A3E
:1044600001E090ED040A80ED040A91ED000AD0ED20
:10447000020A20EE200A80ED050A91ED010AD0ED36
:10448000040A20EE200A80ED060A90ED020AD0ED23
:10449000030A30EE600AD1ED020A20EE200A80ED18
:1044A000070A90ED060AD1ED050AB4EEE00AF1EE36
:1044B00010FA02DD91ED050A11E090ED060AD1ED4A
:1044C000050AF1EE600AB4EEE00AF1EE10FA04D249
:1044D00091ED050AB1EE400A01E090ED060A80ED8B
:1044E000060A90ED050AD0ED060A30EE200AD0ED5E
:1044F000070A30EE200A80ED080A90ED080AD1ED97
:10450000060AB4EEE00AF1EE10FA02DD91ED060AB9
:1045100011E090ED080AD1ED060AF1EE600AB4EE62
:10452000E00AF1EE10FA04D291ED060AB1EE400A6B
:1045300001E090ED080A80ED080A90ED020A80ED96
:10454000030A90ED080A4BE70000000070B504462E
:104550000D46F0EE402AB0EE602A164614B99FEDE3
:10456000490A70BDEDBBB0EE620A204600F0A8F823
:1045700036B1012E05D0022E0ED0032E2CD120E014
:104580002AE0D4ED020AB0EE600ADFED3F0AFFF741
:1045900062FE84ED020A1FE0D4ED020AB0EE600A6A
:1045A000DFED390AFFF757FE84ED020AD4ED020A67
:1045B000B0EE600ADFED350AFFF74DFE84ED020A2A
:1045C0000AE0D4ED020AB0EE600ADFED310AFFF72F
:1045D00042FE84ED020A00BF00BF2046FFF7FAFE4C
:1045E00000E002E094ED080ABBE7B0EE620A204664
:1045F00000F066F836B1012E05D0022E0ED0032E43
:104600002CD120E02AE0D4ED020AB0EE600ADFED02
:104610001E0AFFF720FE84ED020A1FE0D4ED020A15
:10462000B0EE600ADFED180AFFF715FE84ED020A0E
:10463000D4ED020AB0EE600ADFED140AFFF70BFEBC
:1046400084ED020A0AE0D4ED020AB0EE600ADFED62
:10465000100AFFF700FE84ED020A00BF00BF2046EB
:10466000FFF7B8FE94ED080A85ED000AB0EE420AA5
:10467000284600F025F82846FFF7ACFE95ED080A1D
:104680006FE700000000000000F8FF4500F07F45E4
:104690000000B44370B504460D46F0EE403AB0EE6B
:1046A000604AB0EE413A164684ED003A3246F0EEEA
:1046B000440AB0EE630A29462046FFF747FF70BD63
:1046C0000146F0EE400A084691F8242012B99FED09
:1046D000080A7047C0ED010A90ED000A90ED011A3A
:1046E00030EE410A80ED020A90ED020AF1E7000087
:1046F0000000000010B50446B0EE403A207D10B92D
:104700009FED120A10BD94F8A40110B99FED0F0A95
:10471000F8E784ED603AB4F9020001EE100AB8EE51
:10472000C11AF0EE410A94ED041AB8EEC11AB0EEC7
:10473000410A002204F5E27104F5C070FFF706FF9C
:1047400084EDA40A94EDA40ADCE700000000000058
:1047500010B50446F0EE403AB0EE603A84ED003A0F
:104760000022DFED040AB0EE630A11462046FFF78F
:10477000EDFE10BD0000000010B50446B0EE403A5A
:10478000207D10B99FED0F0A10BD94F8500010B9AC
:104790009FED0C0AF8E784ED0B3AB4F9020000EE45
:1047A000900AF8EEE00AB0EE600A0022DFED050A9A
:1047B000114604F12C00FFF7C9FE84EDA40A94ED24
:1047C000A40AE1E70000000000BFFEF701FCFEF7CD
:1047D000DBFBFEF7F1FB012000F001F8F5E710B577
:1047E000002800D1012000F0FBFB002010BD10B517
:1047F00000F07CFC002010BD30B585B004460D46AD
:104800006169B4F90800002910D0A16971B1FFF7FE
:10481000DDFB6269A1690192029100902B46226939
:104820002168606800F096FD049010E0FFF7CEFB71
:1048300004A901910090208A2B4682B22168606809
:1048400000F052FD012802D005B0002030BD0498D0
:1048500005B030BD002801D10648006808B13430E9
:104860007047502080F31188BFF34F8FBFF36F8FD5
:10487000FEE70000540000202DE9F04104460F46F9
:10488000194EF5683068001D00F0B0FA48B930687C
:10489000012190F82C0001FA00F0316921EA0000B2
:1048A0003061B4F1FF3F07D137B13068BDE8F04166
:1048B000011D0E4800F0E3BA2C4430684460AC425D
:1048C00006D23068011DB06BBDE8F04100F0BCBA03
:1048D0003068011D706B00F0B7FAB06A844200D2F4
:1048E000B462BDE8F081000054000020840C002078
:1048F00070B5044600F0D0FA1C4DA868401CA860B2
:10490000286810B1686938B10CE02C60A8680128EB
:1049100008D100F0EDF805E02868E16AC06A884235
:1049200000D82C60686A401C6862E06A01212A692C
:104930008140114329610E4900EB800001EB8000AA
:10494000211D00F09CFA00F0C7FA686900280CD01D
:104950002868E16AC06A884207D206494FF0805051
:104960000860BFF34F8FBFF36F8F70BD54000020FE
:10497000A80B002004ED00E070B50D4C6068002825
:1049800015D00C4E00F088FAF068C568281D00F0BC
:104990002DFAA068401EA0606068401E606000F0B4
:1049A0009BFA284600F008F860680028EAD170BD3C
:1049B00054000020700C002010B5044694F85110EB
:1049C00000290BD0012911D0022914D0502080F3E6
:1049D0001188BFF34F8FBFF36F8FFEE7206B00F09E
:1049E00091FA2046BDE8104000F08CBA2046BDE8A0
:1049F000104000F087BA10BD4FF47051104810F00D
:104A0000070F06D0C01D20F007000D49411AC1F55F
:104A100070510C4A1060002353600144083921F0A2
:104A20000701183A11604B600B600B1A436001607C
:104A30004068906050604FF0004050617047000047
:104A4000980C0020A8000020074E4FF08054074D1E
:104A5000FFF792FF30680128FAD92C60BFF34F8F1F
:104A6000BFF36F8FF4E70000A80B002004ED00E017
:104A70002DE9F0478146099E089D0A9C9A46521EE0
:104A8000206B00EB820020F00708002700290CD0E3
:104A9000002023180A5C83F834200A5C12B1401C01
:104AA0001028F6D384F8437001E084F83470072DA1
:104AB00000D30625E5626564A764201D00F0C1F9F6
:104AC00004F1180000F0BDF92461C5F10700A061F0
:104AD0006462E76484F8507052464946404600F0EC
:104AE0003BF92060002E00D03460BDE8F087000064
:104AF00070B500240F4D04EB840005EB800000F03E
:104B000095F9641C072CF6D30B4800F08FF90B487D
:104B100000F08CF90A4800F089F90A4800F086F99B
:104B2000094800F083F9094803494163143181635E
:104B300070BD0000A80B0020340C0020480C0020A1
:104B40005C0C0020700C0020840C0020540000201D
:104B500010B4144900E011460A688242FBD34B6846
:104B600003EB010C844503D14068184448600846B3
:104B70000C68D0F804C00CEB0003A3420CD10A4B24
:104B80001B689A4206D05268624442600A68126802
:104B9000026002E0036000E00260814200D0086031
:104BA00010BC7047A8000020900000200749486B07
:104BB0000068002805D0486BC068C06840688862FB
:104BC00070474FF0FF3088627047000054000020AB
:104BD0002DE9F00104460025206800282BD06068EC
:104BE0004068606004F10807B84201D14268626021
:104BF0006068C668606840686060B84201D1426819
:104C000062606068C0680023002200EB020C9CF820
:104C100034C011F80280E04501D0012304E0BCF16A
:104C2000000F01D10546012313B9521C102AECD301
:104C30000DB9B042DED12846BDE8F0017047000052
:104C40000A484068B0F1FF3F07D0502080F3118838
:104C5000BFF34F8FBFF36F8FFEE7502080F31188B3
:104C6000BFF34F8FBFF36F8FFEE70000B00000204F
:104C70002DE9F0410546002600F07CFA344F3868F3
:104C800008B9FFF7B9FE7869054251D19DB10835E1
:104C900015F0070F0FD005F00700C0F1080005441C
:104CA00015F0070F07D0502080F31188BFF34F8F06
:104CB000BFF36F8FFEE7002D3AD07868854237D872
:104CC00024490846046801E0214604466068A84279
:104CD00002D220680028F7D13868844228D00868BA
:104CE00000F10806206808606068411B10290FD990
:104CF000601910F0070F07D0502080F31188BFF320
:104D00004F8FBFF36F8FFEE741606560FFF720FFB5
:104D100061687868401A7860BA68904200D2B860DA
:104D200078690843606000202060F868401CF860E3
:104D300000F0FEFB16F0070F07D0502080F311881B
:104D4000BFF34F8FBFF36F8FFEE73046BDE8F081B2
:104D500090000020A8000020001F4FF08073036027
:104D6000001F21F001010160001F05490160143896
:104D70000260001F6FF002010160203870470000E0
:104D8000414C000870B506460C4600F085F8154DFC
:104D90002868C06C80B92A68012082F850005CB194
:104DA00001212046FFF768FD0F494FF08050086051
:104DB000BFF34F8FBFF36F8F00F08EF800F06CF8E9
:104DC0002868C46C002034B116B12968C86402E0B8
:104DD0002A68611ED164296881F8500000F07CF8CF
:104DE000204670BD5400002004ED00E001694368D6
:104DF00082689A60836842685A604A68824201D138
:104E000082684A60002202610868401E08600868E3
:104E100070470000034B0360034B0B60802313605B
:104E200070470000DC0600203007002000F1080178
:104E300041604FF0FF328260C1600161002101607A
:104E4000704700210161704710B4D1F800C0BCF177
:104E5000FF3F02D000F1080202E0026904E01A46B6
:104E600053681C686445FAD953684B6099608A603E
:104E7000516008610168491C016010BC70474268BC
:104E80004A6093688B60936859609160086101681B
:104E9000491C016070470000502080F31188BFF367
:104EA0004F8FBFF36F8F0A494868401C4860012844
:104EB0000CD10848006810F0FF0F07D0502080F395
:104EC0001188BFF34F8FBFF36F8FFEE7704700006D
:104ED000B000002004ED00E009494868002806D031
:104EE000401E4860002801D180F31188704750208F
:104EF00080F31188BFF34F8FBFF36F8FFEE7000081
:104F0000B000002070B500282AD0A0F10804154D8B
:104F100060686969084207D1502080F31188BFF3A7
:104F20004F8FBFF36F8FFEE722683AB1502080F3B6
:104F30001188BFF34F8FBFF36F8FFEE78843606028
:104F400000F018F960686968084468602046FFF757
:104F5000FFFD2869401C2861BDE8704000F0E8BAF8
:104F600070BD0000900000204FF0E02000210161A2
:104F7000816105494FF47A720968B1FBF2F1491E6B
:104F800041610721016170470800002010B5FBF75F
:104F9000C7F9114910280ED300F1E02090F8F00372
:104FA0000A78904207D2502080F31188BFF34F8FC8
:104FB000BFF36F8FFEE709480068896800F4E0607E
:104FC000884207D9502080F31188BFF34F8FBFF379
:104FD0006F8FFEE710BD0000B00000200CED00E078
:104FE00010B502460020002A12D00F48006B38B1DD
:104FF000502080F31188BFF34F8FBFF36F8FFEE710
:1050000000F0B8F800211046FFF736FC00F090FAE7
:10501000002807D105494FF080500860BFF34F8F3B
:10502000BFF36F8F10BD00005400002004ED00E0BE
:105030002DE9F04104460D46002C15D0FFF7A6FFE0
:105040005020EFF3118680F31188BFF34F8FBFF329
:105050006F8F94F85000022184F85010E16C491CC5
:10506000E164012808D025E0502080F31188BFF3C7
:105070004F8FBFF36F8FFEE7A06A38B1502080F3E7
:105080001188BFF34F8FBFF36F8FFEE7144F386B5C
:105090004FF0010890B104F118011248FFF7EFFE3C
:1050A000E06A3968C96A884204D90DB1C5F8008040
:1050B000C7F81C8086F31188BDE8F081201DFFF73A
:1050C00095FEE06A3A6908FA00F111433961064930
:1050D00000EB800001EB8000211DFFF7D0FEDFE731
:1050E000540000205C0C0020A80B002010B586B0F6
:1050F00000240594049403AA04A905A8FFF78AFED6
:1051000005980499019102900023009415A1174875
:10511000039A00F01FF91649C86208B1012000E0A7
:10512000002001280AD0B0F1FF3F19D1502080F3B0
:105130001188BFF34F8FBFF36F8FFEE7502080F3CE
:105140001188BFF34F8FBFF36F8F4FF0FF3088622E
:1051500001204861CC6006B0BDE8104000F042B8C4
:1051600006B010BD49444C4500000000494A000803
:10517000540000200248016B491C01637047000085
:1051800054000020154A106B002802D00120D06185
:1051900070470020D0611069B0FA80F0C0F11F00A4
:1051A0000F4900EB800051F8203073B101EB800013
:1051B00041684968416000F10803994201D149689A
:1051C00041604068C06810607047502080F31188CB
:1051D000BFF34F8FBFF36F8FFEE700005400002036
:1051E000A80B002010B582B038480168384A9142B7
:1051F00007D1502080F31188BFF34F8FBFF36F8F1B
:10520000FEE700683349884207D1502080F31188B7
:10521000BFF34F8FBFF36F8FFEE72F4908780190E0
:10522000FF200870087800909DF800009DF800208D
:1052300000F0F000904207D0502080F31188BFF3B7
:105240004F8FBFF36F8FFEE79DF80000234C00F0F7
:10525000500020700720A0609DF8000010F0800F23
:105260000BD0A068401EA0609DF800004000009098
:105270009DF8000010F0800FF3D1A068032807D03C
:10528000502080F31188BFF34F8FBFF36F8FFEE77D
:105290004FF44070A060019808701148016841F413
:1052A00070010160016841F070410160FFF75CFE30
:1052B00000206060FAF7FCFF0A48016841F04041B5
:1052C0000160FAF7E1FF02B0002010BD00ED00E040
:1052D00071C20F4170C20F4100E400E0B000002035
:1052E00020ED00E034EF00E02DE9F04F85B081467D
:1052F0000F9F0E9E8A4690469B464FEA8800FFF716
:10530000B7FC054628000AD05420FFF7B1FC04463C
:105310000CB1256304E02846FFF7F4FD00E000240B
:105320009CB1002084F8510003905B4642465146F0
:105330000197009602944846FFF79AFB2046FFF734
:10534000D7FA05B00120BDE8F08F05B04FF0FF306F
:10535000BDE8F08F70B586B00646DDF828C00C9C1D
:105360000B98002816D0ECB1542504952063022038
:1053700084F85100002005AD0390CDF800C00195E0
:1053800002943046FFF774FB2046FFF7B1FA059808
:1053900006B070BD502080F31188BFF34F8FBFF36C
:1053A0006F8FFEE7502080F31188BFF34F8FBFF35C
:1053B0006F8FFEE72DE9F041074607243846FBF7DB
:1053C0004AF8102807D3502080F31188BFF34F8F7D
:1053D000BFF36F8FFEE7FFF7CDFE154E641E04EBA3
:1053E000840006EB80003946FFF7F2FB05460DB955
:1053F000002CF3D10F4C25B93946606BFFF7E8FB61
:10540000054625B93946A06BFFF7E2FB054625B9ED
:1054100039460948FFF7DCFB054625B939460748F8
:10542000FFF7D6FB054600F083F82846BDE8F0817B
:10543000A80B002054000020840C0020700C0020D9
:1054400005484169002903D0006B18B1002070475E
:105450000120704702207047540000202DE9F047DA
:105460000026314F386B002805D0B869401CB86160
:105470003046BDE8F087F868451CFD609DB9786B43
:10548000006838B1502080F31188BFF34F8FBFF30D
:105490006F8FFEE7786BB96B7963B863386A401C2D
:1054A0003862FFF783FBB86ADFF8808085420FD34C
:1054B0004FF00109786B006838B1786BC068C46838
:1054C0006068854212D2B86202E04FF0FF30B862E5
:1054D0003868C06A00EB800058F82000012800D925
:1054E0000126F8690028C3D00126C1E7201DFFF777
:1054F0007DFCA06A18B104F11800FFF777FCE16A9F
:105500003A6909FA01F01043386101EB810008EBB8
:105510008000211DFFF7B3FCE06A3968C96A884240
:10552000C8D30126C6E7000054000020A80B0020C5
:105530002DE9F0470024A0462D4D286B002807D008
:10554000FFF7AAFC286B401E2863286B40B149E096
:10555000502080F31188BFF34F8FBFF36F8FFEE7AA
:10556000A86800283ED0234F3868012600B3A7F171
:10557000B409F868C46804F11800FFF737FC201D6F
:10558000FFF734FCE06A2A6906FA00F11143296149
:1055900000EB800009EB8000211DFFF770FCE06A42
:1055A0002968C96A884200D3EE6138680028E0D1D2
:1055B0000CB1FFF7FBFAAC6944B1FFF74FFF00B144
:1055C000EE61641E002CF8D10020A861E86948B1A2
:1055D0004FF0010808494FF080500860BFF34F8F2B
:1055E000BFF36F8FFFF778FC4046BDE8F0870000FF
:1055F000540000205C0C002004ED00E04FF04070EF
:10560000E1EE100A7047000074560008C53E00081D
:105610000000000000000000000200000000000088
:10562000000000006C560008C94700080000000098
:105630000000000000020000000000000000000068
:105640000000000000000000010203040607080932
:1056500000000000010203040000C844CDCC4C3E11
:10566000000000000006101600061016434F4E54AE
:10567000524F4C0054454D50000000009C5600080D
:1056800000000020DC060000C401000834570008B8
:10569000DC060020C48200002002000891031124CF
:1056A000F4100DE7416B3A58A08B3A7D04017C164B
:1056B0000240AB03411009055308065804070F16B2
:1056C0000810820911160A15800B16360C18010DE8
:1056D000010267101AAA010120730502299901FF2E
:1056E00001FF0175130940024C0863060203FF0124
:1056F0000101FF0178130940023008320223410101
:105700001330091A200711135C06142098481B2037
:10571000C8041AE0040110CBA1346429405A424065
:1057200032FF1A9C401AEC38131C491B2034040920
:045730001E40000017
:040000050800018965
:00000001FF
